{
  "_format": "hh-sol-artifact-1",
  "contractName": "carpooling",
  "sourceName": "contracts/CarPool.sol",
  "abi": [
    {
      "anonymous": false,
      "inputs": [
        {
          "indexed": false,
          "internalType": "uint256",
          "name": "rideId",
          "type": "uint256"
        },
        {
          "indexed": false,
          "internalType": "address",
          "name": "passenger",
          "type": "address"
        }
      ],
      "name": "RideBooked",
      "type": "event"
    },
    {
      "anonymous": false,
      "inputs": [
        {
          "indexed": false,
          "internalType": "uint256",
          "name": "rideId",
          "type": "uint256"
        },
        {
          "indexed": false,
          "internalType": "string",
          "name": "origin",
          "type": "string"
        },
        {
          "indexed": false,
          "internalType": "string",
          "name": "destination",
          "type": "string"
        },
        {
          "indexed": false,
          "internalType": "uint256",
          "name": "departuretime",
          "type": "uint256"
        },
        {
          "indexed": false,
          "internalType": "uint256",
          "name": "fare",
          "type": "uint256"
        },
        {
          "indexed": false,
          "internalType": "uint256",
          "name": "seats",
          "type": "uint256"
        },
        {
          "indexed": false,
          "internalType": "string",
          "name": "carModel",
          "type": "string"
        },
        {
          "indexed": false,
          "internalType": "string",
          "name": "carNumber",
          "type": "string"
        }
      ],
      "name": "RideCreated",
      "type": "event"
    },
    {
      "anonymous": false,
      "inputs": [
        {
          "indexed": true,
          "internalType": "address",
          "name": "from",
          "type": "address"
        },
        {
          "indexed": true,
          "internalType": "address",
          "name": "to",
          "type": "address"
        },
        {
          "indexed": false,
          "internalType": "uint256",
          "name": "amount",
          "type": "uint256"
        }
      ],
      "name": "RidePaid",
      "type": "event"
    },
    {
      "anonymous": false,
      "inputs": [
        {
          "indexed": false,
          "internalType": "uint256",
          "name": "rideId",
          "type": "uint256"
        },
        {
          "indexed": false,
          "internalType": "address",
          "name": "rider",
          "type": "address"
        },
        {
          "indexed": false,
          "internalType": "uint256",
          "name": "amount",
          "type": "uint256"
        }
      ],
      "name": "RidePaymentReleased",
      "type": "event"
    },
    {
      "inputs": [
        {
          "internalType": "address",
          "name": "",
          "type": "address"
        }
      ],
      "name": "addressDetails",
      "outputs": [
        {
          "internalType": "string",
          "name": "name",
          "type": "string"
        },
        {
          "internalType": "uint8",
          "name": "age",
          "type": "uint8"
        },
        {
          "internalType": "bool",
          "name": "gender",
          "type": "bool"
        }
      ],
      "stateMutability": "view",
      "type": "function"
    },
    {
      "inputs": [
        {
          "internalType": "uint256",
          "name": "rideId",
          "type": "uint256"
        }
      ],
      "name": "allPassengersConfirmed",
      "outputs": [
        {
          "internalType": "bool",
          "name": "",
          "type": "bool"
        }
      ],
      "stateMutability": "view",
      "type": "function"
    },
    {
      "inputs": [
        {
          "internalType": "uint256",
          "name": "_rideId",
          "type": "uint256"
        }
      ],
      "name": "bookRide",
      "outputs": [],
      "stateMutability": "payable",
      "type": "function"
    },
    {
      "inputs": [
        {
          "internalType": "uint256",
          "name": "rideId",
          "type": "uint256"
        }
      ],
      "name": "confirmRideCompleted",
      "outputs": [],
      "stateMutability": "nonpayable",
      "type": "function"
    },
    {
      "inputs": [
        {
          "internalType": "string",
          "name": "_origin",
          "type": "string"
        },
        {
          "internalType": "string",
          "name": "_destination",
          "type": "string"
        },
        {
          "internalType": "uint256",
          "name": "_departuretime",
          "type": "uint256"
        },
        {
          "internalType": "uint256",
          "name": "_fare",
          "type": "uint256"
        },
        {
          "internalType": "uint256",
          "name": "_seats",
          "type": "uint256"
        },
        {
          "internalType": "string",
          "name": "_carModel",
          "type": "string"
        },
        {
          "internalType": "string",
          "name": "_carNumber",
          "type": "string"
        }
      ],
      "name": "createRide",
      "outputs": [],
      "stateMutability": "nonpayable",
      "type": "function"
    },
    {
      "inputs": [
        {
          "internalType": "uint256",
          "name": "rideId",
          "type": "uint256"
        }
      ],
      "name": "deleteRide",
      "outputs": [],
      "stateMutability": "nonpayable",
      "type": "function"
    },
    {
      "inputs": [],
      "name": "getActiveRides",
      "outputs": [
        {
          "components": [
            {
              "internalType": "uint256",
              "name": "rideId",
              "type": "uint256"
            },
            {
              "internalType": "string",
              "name": "origin",
              "type": "string"
            },
            {
              "internalType": "string",
              "name": "destination",
              "type": "string"
            },
            {
              "internalType": "uint256",
              "name": "departuretime",
              "type": "uint256"
            },
            {
              "internalType": "uint256",
              "name": "fare",
              "type": "uint256"
            },
            {
              "internalType": "uint256",
              "name": "seats",
              "type": "uint256"
            },
            {
              "internalType": "string",
              "name": "carModel",
              "type": "string"
            },
            {
              "internalType": "string",
              "name": "carNumber",
              "type": "string"
            },
            {
              "internalType": "bool",
              "name": "isActive",
              "type": "bool"
            }
          ],
          "internalType": "struct carpooling.Ride[]",
          "name": "",
          "type": "tuple[]"
        }
      ],
      "stateMutability": "view",
      "type": "function"
    },
    {
      "inputs": [],
      "name": "getAllRides",
      "outputs": [
        {
          "components": [
            {
              "internalType": "uint256",
              "name": "rideId",
              "type": "uint256"
            },
            {
              "internalType": "string",
              "name": "origin",
              "type": "string"
            },
            {
              "internalType": "string",
              "name": "destination",
              "type": "string"
            },
            {
              "internalType": "uint256",
              "name": "departuretime",
              "type": "uint256"
            },
            {
              "internalType": "uint256",
              "name": "fare",
              "type": "uint256"
            },
            {
              "internalType": "uint256",
              "name": "seats",
              "type": "uint256"
            },
            {
              "internalType": "string",
              "name": "carModel",
              "type": "string"
            },
            {
              "internalType": "string",
              "name": "carNumber",
              "type": "string"
            },
            {
              "internalType": "bool",
              "name": "isActive",
              "type": "bool"
            }
          ],
          "internalType": "struct carpooling.Ride[]",
          "name": "",
          "type": "tuple[]"
        }
      ],
      "stateMutability": "view",
      "type": "function"
    },
    {
      "inputs": [
        {
          "internalType": "uint256",
          "name": "rideId",
          "type": "uint256"
        },
        {
          "internalType": "address",
          "name": "passenger",
          "type": "address"
        }
      ],
      "name": "getPassengerDetails",
      "outputs": [
        {
          "internalType": "string",
          "name": "name",
          "type": "string"
        },
        {
          "internalType": "uint8",
          "name": "age",
          "type": "uint8"
        },
        {
          "internalType": "bool",
          "name": "gender",
          "type": "bool"
        },
        {
          "internalType": "string",
          "name": "origin",
          "type": "string"
        },
        {
          "internalType": "string",
          "name": "destination",
          "type": "string"
        },
        {
          "internalType": "uint256",
          "name": "departureTime",
          "type": "uint256"
        },
        {
          "internalType": "uint256",
          "name": "fare",
          "type": "uint256"
        },
        {
          "internalType": "uint256",
          "name": "seats",
          "type": "uint256"
        }
      ],
      "stateMutability": "view",
      "type": "function"
    },
    {
      "inputs": [
        {
          "internalType": "uint256",
          "name": "_rideId",
          "type": "uint256"
        }
      ],
      "name": "getPassengersForRide",
      "outputs": [
        {
          "internalType": "address[]",
          "name": "",
          "type": "address[]"
        }
      ],
      "stateMutability": "view",
      "type": "function"
    },
    {
      "inputs": [
        {
          "internalType": "address",
          "name": "_user",
          "type": "address"
        }
      ],
      "name": "getUserDetails",
      "outputs": [
        {
          "internalType": "string",
          "name": "",
          "type": "string"
        },
        {
          "internalType": "uint8",
          "name": "",
          "type": "uint8"
        },
        {
          "internalType": "bool",
          "name": "",
          "type": "bool"
        }
      ],
      "stateMutability": "view",
      "type": "function"
    },
    {
      "inputs": [
        {
          "internalType": "string",
          "name": "_name",
          "type": "string"
        },
        {
          "internalType": "uint8",
          "name": "_age",
          "type": "uint8"
        },
        {
          "internalType": "bool",
          "name": "_gender",
          "type": "bool"
        }
      ],
      "name": "newUser",
      "outputs": [],
      "stateMutability": "nonpayable",
      "type": "function"
    },
    {
      "inputs": [
        {
          "internalType": "uint256",
          "name": "",
          "type": "uint256"
        },
        {
          "internalType": "address",
          "name": "",
          "type": "address"
        }
      ],
      "name": "passengerPayments",
      "outputs": [
        {
          "internalType": "uint256",
          "name": "",
          "type": "uint256"
        }
      ],
      "stateMutability": "view",
      "type": "function"
    },
    {
      "inputs": [
        {
          "internalType": "uint256",
          "name": "",
          "type": "uint256"
        },
        {
          "internalType": "uint256",
          "name": "",
          "type": "uint256"
        }
      ],
      "name": "passengersByRide",
      "outputs": [
        {
          "internalType": "address",
          "name": "",
          "type": "address"
        }
      ],
      "stateMutability": "view",
      "type": "function"
    },
    {
      "inputs": [
        {
          "internalType": "uint256",
          "name": "",
          "type": "uint256"
        }
      ],
      "name": "paymentReleased",
      "outputs": [
        {
          "internalType": "bool",
          "name": "",
          "type": "bool"
        }
      ],
      "stateMutability": "view",
      "type": "function"
    },
    {
      "inputs": [
        {
          "internalType": "uint256",
          "name": "rideId",
          "type": "uint256"
        }
      ],
      "name": "releasePaymentToRider",
      "outputs": [],
      "stateMutability": "nonpayable",
      "type": "function"
    },
    {
      "inputs": [
        {
          "internalType": "uint256",
          "name": "",
          "type": "uint256"
        },
        {
          "internalType": "address",
          "name": "",
          "type": "address"
        }
      ],
      "name": "rideCompletedConfirmations",
      "outputs": [
        {
          "internalType": "bool",
          "name": "",
          "type": "bool"
        }
      ],
      "stateMutability": "view",
      "type": "function"
    },
    {
      "inputs": [],
      "name": "rideCount",
      "outputs": [
        {
          "internalType": "uint256",
          "name": "",
          "type": "uint256"
        }
      ],
      "stateMutability": "view",
      "type": "function"
    },
    {
      "inputs": [
        {
          "internalType": "uint256",
          "name": "",
          "type": "uint256"
        }
      ],
      "name": "rideOwner",
      "outputs": [
        {
          "internalType": "address",
          "name": "",
          "type": "address"
        }
      ],
      "stateMutability": "view",
      "type": "function"
    },
    {
      "inputs": [
        {
          "internalType": "uint256",
          "name": "",
          "type": "uint256"
        }
      ],
      "name": "rides",
      "outputs": [
        {
          "internalType": "uint256",
          "name": "rideId",
          "type": "uint256"
        },
        {
          "internalType": "string",
          "name": "origin",
          "type": "string"
        },
        {
          "internalType": "string",
          "name": "destination",
          "type": "string"
        },
        {
          "internalType": "uint256",
          "name": "departuretime",
          "type": "uint256"
        },
        {
          "internalType": "uint256",
          "name": "fare",
          "type": "uint256"
        },
        {
          "internalType": "uint256",
          "name": "seats",
          "type": "uint256"
        },
        {
          "internalType": "string",
          "name": "carModel",
          "type": "string"
        },
        {
          "internalType": "string",
          "name": "carNumber",
          "type": "string"
        },
        {
          "internalType": "bool",
          "name": "isActive",
          "type": "bool"
        }
      ],
      "stateMutability": "view",
      "type": "function"
    },
    {
      "inputs": [
        {
          "internalType": "address",
          "name": "_user",
          "type": "address"
        }
      ],
      "name": "userExists",
      "outputs": [
        {
          "internalType": "bool",
          "name": "",
          "type": "bool"
        }
      ],
      "stateMutability": "view",
      "type": "function"
    }
  ],
  "bytecode": "0x60806040526000600755348015601457600080fd5b50613943806100246000396000f3fe60806040526004361061012a5760003560e01c8063787660c3116100ab578063b47c18831161006f578063b47c188314610449578063c152291914610474578063c69b2cf6146104b1578063cc3d967b146104cd578063daa256a11461050c578063ebf7a828146105495761012a565b8063787660c3146103375780637e8d519c1461036257806381c05f921461039f57806389b7085a146103dc5780638ed20c74146104055761012a565b80634717bba6116100f25780634717bba6146102265780635205f1121461024f578063650fbb7c146102945780636b5acaa5146102d15780636d04b3c41461030e5761012a565b80630dcc2fb71461012f5780630e666e491461015a5780631740d5ae146101975780633177fdd7146101c05780633c70c157146101fd575b600080fd5b34801561013b57600080fd5b50610144610588565b60405161015191906127c8565b60405180910390f35b34801561016657600080fd5b50610181600480360381019061017c919061285c565b61098e565b60405161018e9190612898565b60405180910390f35b3480156101a357600080fd5b506101be60048036038101906101b991906128df565b6109e7565b005b3480156101cc57600080fd5b506101e760048036038101906101e2919061290c565b610e09565b6040516101f4919061295b565b60405180910390f35b34801561020957600080fd5b50610224600480360381019061021f91906128df565b610e2e565b005b34801561023257600080fd5b5061024d60048036038101906102489190612b10565b610f57565b005b34801561025b57600080fd5b50610276600480360381019061027191906128df565b611014565b60405161028b99989796959493929190612bc9565b60405180910390f35b3480156102a057600080fd5b506102bb60048036038101906102b691906128df565b61129f565b6040516102c89190612d30565b60405180910390f35b3480156102dd57600080fd5b506102f860048036038101906102f391906128df565b611340565b6040516103059190612898565b60405180910390f35b34801561031a57600080fd5b50610335600480360381019061033091906128df565b611489565b005b34801561034357600080fd5b5061034c61168b565b60405161035991906127c8565b60405180910390f35b34801561036e57600080fd5b5061038960048036038101906103849190612d52565b611976565b6040516103969190612da1565b60405180910390f35b3480156103ab57600080fd5b506103c660048036038101906103c191906128df565b6119c4565b6040516103d39190612da1565b60405180910390f35b3480156103e857600080fd5b5061040360048036038101906103fe9190612dbc565b6119f7565b005b34801561041157600080fd5b5061042c6004803603810190610427919061290c565b611bc6565b604051610440989796959493929190612edd565b60405180910390f35b34801561045557600080fd5b5061045e611fed565b60405161046b919061295b565b60405180910390f35b34801561048057600080fd5b5061049b600480360381019061049691906128df565b611ff3565b6040516104a89190612898565b60405180910390f35b6104cb60048036038101906104c691906128df565b612013565b005b3480156104d957600080fd5b506104f460048036038101906104ef919061285c565b6122e6565b60405161050393929190612f70565b60405180910390f35b34801561051857600080fd5b50610533600480360381019061052e919061290c565b61241f565b6040516105409190612898565b60405180910390f35b34801561055557600080fd5b50610570600480360381019061056b919061285c565b61244e565b60405161057f93929190612f70565b60405180910390f35b60606000805b6006805490508110156105ef57600681815481106105af576105ae612fae565b5b906000526020600020906009020160080160009054906101000a900460ff16156105e25781806105de9061300c565b9250505b808060010191505061058e565b5060008167ffffffffffffffff81111561060c5761060b612980565b5b60405190808252806020026020018201604052801561064557816020015b61063261251a565b81526020019060019003908161062a5790505b5090506000805b600680549050811015610984576006818154811061066d5761066c612fae565b5b906000526020600020906009020160080160009054906101000a900460ff161561097757600681815481106106a5576106a4612fae565b5b906000526020600020906009020160405180610120016040529081600082015481526020016001820180546106d990613083565b80601f016020809104026020016040519081016040528092919081815260200182805461070590613083565b80156107525780601f1061072757610100808354040283529160200191610752565b820191906000526020600020905b81548152906001019060200180831161073557829003601f168201915b5050505050815260200160028201805461076b90613083565b80601f016020809104026020016040519081016040528092919081815260200182805461079790613083565b80156107e45780601f106107b9576101008083540402835291602001916107e4565b820191906000526020600020905b8154815290600101906020018083116107c757829003601f168201915b5050505050815260200160038201548152602001600482015481526020016005820154815260200160068201805461081b90613083565b80601f016020809104026020016040519081016040528092919081815260200182805461084790613083565b80156108945780601f1061086957610100808354040283529160200191610894565b820191906000526020600020905b81548152906001019060200180831161087757829003601f168201915b505050505081526020016007820180546108ad90613083565b80601f01602080910402602001604051908101604052809291908181526020018280546108d990613083565b80156109265780601f106108fb57610100808354040283529160200191610926565b820191906000526020600020905b81548152906001019060200180831161090957829003601f168201915b505050505081526020016008820160009054906101000a900460ff16151515158152505083838151811061095d5761095c612fae565b5b602002602001018190525081806109739061300c565b9250505b808060010191505061064c565b5081935050505090565b6000806000808473ffffffffffffffffffffffffffffffffffffffff1673ffffffffffffffffffffffffffffffffffffffff16815260200190815260200160002060000180546109dd90613083565b9050119050919050565b6006805490508110610a2e576040517f08c379a0000000000000000000000000000000000000000000000000000000008152600401610a2590613100565b60405180910390fd5b610a3781611340565b610a76576040517f08c379a0000000000000000000000000000000000000000000000000000000008152600401610a6d90613192565b60405180910390fd5b6001600082815260200190815260200160002060009054906101000a900473ffffffffffffffffffffffffffffffffffffffff1673ffffffffffffffffffffffffffffffffffffffff163373ffffffffffffffffffffffffffffffffffffffff1614610b17576040517f08c379a0000000000000000000000000000000000000000000000000000000008152600401610b0e906131fe565b60405180910390fd5b6003600082815260200190815260200160002060009054906101000a900460ff1615610b78576040517f08c379a0000000000000000000000000000000000000000000000000000000008152600401610b6f9061326a565b60405180910390fd5b600060026000838152602001908152602001600020805480602002602001604051908101604052809291908181526020018280548015610c0d57602002820191906000526020600020905b8160009054906101000a900473ffffffffffffffffffffffffffffffffffffffff1673ffffffffffffffffffffffffffffffffffffffff1681526020019060010190808311610bc3575b505050505090506000805b8251811015610d12576000838281518110610c3657610c35612fae565b5b6020026020010151905060006004600087815260200190815260200160002060008373ffffffffffffffffffffffffffffffffffffffff1673ffffffffffffffffffffffffffffffffffffffff1681526020019081526020016000205490506000811115610d035760006004600088815260200190815260200160002060008473ffffffffffffffffffffffffffffffffffffffff1673ffffffffffffffffffffffffffffffffffffffff168152602001908152602001600020819055508084610d00919061328a565b93505b50508080600101915050610c18565b5060008111610d56576040517f08c379a0000000000000000000000000000000000000000000000000000000008152600401610d4d9061330a565b60405180910390fd5b60016003600085815260200190815260200160002060006101000a81548160ff0219169083151502179055503373ffffffffffffffffffffffffffffffffffffffff166108fc829081150290604051600060405180830381858888f19350505050158015610dc8573d6000803e3d6000fd5b507f0d490bb0c09fc0aa67ea0e5bf22e57c5adb6d80867b3db228f1a446f3936f7fb833383604051610dfc9392919061332a565b60405180910390a1505050565b6004602052816000526040600020602052806000526040600020600091509150505481565b6006805490508110610e75576040517f08c379a0000000000000000000000000000000000000000000000000000000008152600401610e6c90613100565b60405180910390fd5b6001600082815260200190815260200160002060009054906101000a900473ffffffffffffffffffffffffffffffffffffffff1673ffffffffffffffffffffffffffffffffffffffff163373ffffffffffffffffffffffffffffffffffffffff1614610f16576040517f08c379a0000000000000000000000000000000000000000000000000000000008152600401610f0d906133d3565b60405180910390fd5b600060068281548110610f2c57610f2b612fae565b5b906000526020600020906009020160080160006101000a81548160ff02191690831515021790555050565b60405180606001604052808481526020018360ff1681526020018215158152506000803373ffffffffffffffffffffffffffffffffffffffff1673ffffffffffffffffffffffffffffffffffffffff1681526020019081526020016000206000820151816000019081610fca919061359f565b5060208201518160010160006101000a81548160ff021916908360ff16021790555060408201518160010160016101000a81548160ff021916908315150217905550905050505050565b6006818154811061102457600080fd5b906000526020600020906009020160009150905080600001549080600101805461104d90613083565b80601f016020809104026020016040519081016040528092919081815260200182805461107990613083565b80156110c65780601f1061109b576101008083540402835291602001916110c6565b820191906000526020600020905b8154815290600101906020018083116110a957829003601f168201915b5050505050908060020180546110db90613083565b80601f016020809104026020016040519081016040528092919081815260200182805461110790613083565b80156111545780601f1061112957610100808354040283529160200191611154565b820191906000526020600020905b81548152906001019060200180831161113757829003601f168201915b50505050509080600301549080600401549080600501549080600601805461117b90613083565b80601f01602080910402602001604051908101604052809291908181526020018280546111a790613083565b80156111f45780601f106111c9576101008083540402835291602001916111f4565b820191906000526020600020905b8154815290600101906020018083116111d757829003601f168201915b50505050509080600701805461120990613083565b80601f016020809104026020016040519081016040528092919081815260200182805461123590613083565b80156112825780601f1061125757610100808354040283529160200191611282565b820191906000526020600020905b81548152906001019060200180831161126557829003601f168201915b5050505050908060080160009054906101000a900460ff16905089565b60606002600083815260200190815260200160002080548060200260200160405190810160405280929190818152602001828054801561133457602002820191906000526020600020905b8160009054906101000a900473ffffffffffffffffffffffffffffffffffffffff1673ffffffffffffffffffffffffffffffffffffffff16815260200190600101908083116112ea575b50505050509050919050565b600080600260008481526020019081526020016000208054806020026020016040519081016040528092919081815260200182805480156113d657602002820191906000526020600020905b8160009054906101000a900473ffffffffffffffffffffffffffffffffffffffff1673ffffffffffffffffffffffffffffffffffffffff168152602001906001019080831161138c575b5050505050905060005b815181101561147d5760056000858152602001908152602001600020600083838151811061141157611410612fae565b5b602002602001015173ffffffffffffffffffffffffffffffffffffffff1673ffffffffffffffffffffffffffffffffffffffff16815260200190815260200160002060009054906101000a900460ff1661147057600092505050611484565b80806001019150506113e0565b5060019150505b919050565b60068054905081106114d0576040517f08c379a00000000000000000000000000000000000000000000000000000000081526004016114c790613100565b60405180910390fd5b60006002600083815260200190815260200160002080548060200260200160405190810160405280929190818152602001828054801561156557602002820191906000526020600020905b8160009054906101000a900473ffffffffffffffffffffffffffffffffffffffff1673ffffffffffffffffffffffffffffffffffffffff168152602001906001019080831161151b575b505050505090506000805b82518110156115dc573373ffffffffffffffffffffffffffffffffffffffff168382815181106115a3576115a2612fae565b5b602002602001015173ffffffffffffffffffffffffffffffffffffffff16036115cf57600191506115dc565b8080600101915050611570565b508061161d576040517f08c379a0000000000000000000000000000000000000000000000000000000008152600401611614906136bd565b60405180910390fd5b60016005600085815260200190815260200160002060003373ffffffffffffffffffffffffffffffffffffffff1673ffffffffffffffffffffffffffffffffffffffff16815260200190815260200160002060006101000a81548160ff021916908315150217905550505050565b60606006805480602002602001604051908101604052809291908181526020016000905b8282101561196d578382906000526020600020906009020160405180610120016040529081600082015481526020016001820180546116ed90613083565b80601f016020809104026020016040519081016040528092919081815260200182805461171990613083565b80156117665780601f1061173b57610100808354040283529160200191611766565b820191906000526020600020905b81548152906001019060200180831161174957829003601f168201915b5050505050815260200160028201805461177f90613083565b80601f01602080910402602001604051908101604052809291908181526020018280546117ab90613083565b80156117f85780601f106117cd576101008083540402835291602001916117f8565b820191906000526020600020905b8154815290600101906020018083116117db57829003601f168201915b5050505050815260200160038201548152602001600482015481526020016005820154815260200160068201805461182f90613083565b80601f016020809104026020016040519081016040528092919081815260200182805461185b90613083565b80156118a85780601f1061187d576101008083540402835291602001916118a8565b820191906000526020600020905b81548152906001019060200180831161188b57829003601f168201915b505050505081526020016007820180546118c190613083565b80601f01602080910402602001604051908101604052809291908181526020018280546118ed90613083565b801561193a5780601f1061190f5761010080835404028352916020019161193a565b820191906000526020600020905b81548152906001019060200180831161191d57829003601f168201915b505050505081526020016008820160009054906101000a900460ff161515151581525050815260200190600101906116af565b50505050905090565b6002602052816000526040600020818154811061199257600080fd5b906000526020600020016000915091509054906101000a900473ffffffffffffffffffffffffffffffffffffffff1681565b60016020528060005260406000206000915054906101000a900473ffffffffffffffffffffffffffffffffffffffff1681565b60066040518061012001604052806007548152602001898152602001888152602001878152602001868152602001858152602001848152602001838152602001600115158152509080600181540180825580915050600190039060005260206000209060090201600090919091909150600082015181600001556020820151816001019081611a86919061359f565b506040820151816002019081611a9c919061359f565b50606082015181600301556080820151816004015560a0820151816005015560c0820151816006019081611ad0919061359f565b5060e0820151816007019081611ae6919061359f565b506101008201518160080160006101000a81548160ff02191690831515021790555050503360016000600754815260200190815260200160002060006101000a81548173ffffffffffffffffffffffffffffffffffffffff021916908373ffffffffffffffffffffffffffffffffffffffff1602179055507f50ec692c37ef92db184dba2e36f72c23f1e98d2288ed07021995c307205dbd6860075488888888888888604051611b9d9897969594939291906136dd565b60405180910390a160076000815480929190611bb89061300c565b919050555050505050505050565b60606000806060806000806000806000808b73ffffffffffffffffffffffffffffffffffffffff1673ffffffffffffffffffffffffffffffffffffffff168152602001908152602001600020604051806060016040529081600082018054611c2d90613083565b80601f0160208091040260200160405190810160405280929190818152602001828054611c5990613083565b8015611ca65780601f10611c7b57610100808354040283529160200191611ca6565b820191906000526020600020905b815481529060010190602001808311611c8957829003601f168201915b505050505081526020016001820160009054906101000a900460ff1660ff1660ff1681526020016001820160019054906101000a900460ff1615151515815250509050600060068c81548110611cff57611cfe612fae565b5b90600052602060002090600902016040518061012001604052908160008201548152602001600182018054611d3390613083565b80601f0160208091040260200160405190810160405280929190818152602001828054611d5f90613083565b8015611dac5780601f10611d8157610100808354040283529160200191611dac565b820191906000526020600020905b815481529060010190602001808311611d8f57829003601f168201915b50505050508152602001600282018054611dc590613083565b80601f0160208091040260200160405190810160405280929190818152602001828054611df190613083565b8015611e3e5780601f10611e1357610100808354040283529160200191611e3e565b820191906000526020600020905b815481529060010190602001808311611e2157829003601f168201915b50505050508152602001600382015481526020016004820154815260200160058201548152602001600682018054611e7590613083565b80601f0160208091040260200160405190810160405280929190818152602001828054611ea190613083565b8015611eee5780601f10611ec357610100808354040283529160200191611eee565b820191906000526020600020905b815481529060010190602001808311611ed157829003601f168201915b50505050508152602001600782018054611f0790613083565b80601f0160208091040260200160405190810160405280929190818152602001828054611f3390613083565b8015611f805780601f10611f5557610100808354040283529160200191611f80565b820191906000526020600020905b815481529060010190602001808311611f6357829003601f168201915b505050505081526020016008820160009054906101000a900460ff161515151581525050905081600001518260200151836040015183602001518460400151856060015186608001518760a001519950995099509950995099509950995050509295985092959890939650565b60075481565b60036020528060005260406000206000915054906101000a900460ff1681565b600680549050811061205a576040517f08c379a0000000000000000000000000000000000000000000000000000000008152600401612051906137c3565b60405180910390fd5b6000600682815481106120705761206f612fae565b5b906000526020600020906009020160050154116120c2576040517f08c379a00000000000000000000000000000000000000000000000000000000081526004016120b99061382f565b60405180910390fd5b6000600682815481106120d8576120d7612fae565b5b906000526020600020906009020190508060040154341461212e576040517f08c379a00000000000000000000000000000000000000000000000000000000081526004016121259061389b565b60405180910390fd5b806005016000815480929190612143906138bb565b919050555060026000838152602001908152602001600020339080600181540180825580915050600190039060005260206000200160009091909190916101000a81548173ffffffffffffffffffffffffffffffffffffffff021916908373ffffffffffffffffffffffffffffffffffffffff160217905550346004600084815260200190815260200160002060003373ffffffffffffffffffffffffffffffffffffffff1673ffffffffffffffffffffffffffffffffffffffff168152602001908152602001600020819055506001600083815260200190815260200160002060009054906101000a900473ffffffffffffffffffffffffffffffffffffffff1673ffffffffffffffffffffffffffffffffffffffff163373ffffffffffffffffffffffffffffffffffffffff167f959dfdd606796d8b4f43f5579aa99e6f5c44c5090591ebff34a84d020d210410346040516122a1919061295b565b60405180910390a37f65394bc371dbe55ca40e19310c8a935b039bf28367787cfaeeecfe3361bf18a082336040516122da9291906138e4565b60405180910390a15050565b606060008060008060008673ffffffffffffffffffffffffffffffffffffffff1673ffffffffffffffffffffffffffffffffffffffff16815260200190815260200160002060405180606001604052908160008201805461234690613083565b80601f016020809104026020016040519081016040528092919081815260200182805461237290613083565b80156123bf5780601f10612394576101008083540402835291602001916123bf565b820191906000526020600020905b8154815290600101906020018083116123a257829003601f168201915b505050505081526020016001820160009054906101000a900460ff1660ff1660ff1681526020016001820160019054906101000a900460ff1615151515815250509050806000015181602001518260400151935093509350509193909250565b60056020528160005260406000206020528060005260406000206000915091509054906101000a900460ff1681565b600060205280600052604060002060009150905080600001805461247190613083565b80601f016020809104026020016040519081016040528092919081815260200182805461249d90613083565b80156124ea5780601f106124bf576101008083540402835291602001916124ea565b820191906000526020600020905b8154815290600101906020018083116124cd57829003601f168201915b5050505050908060010160009054906101000a900460ff16908060010160019054906101000a900460ff16905083565b60405180610120016040528060008152602001606081526020016060815260200160008152602001600081526020016000815260200160608152602001606081526020016000151581525090565b600081519050919050565b600082825260208201905092915050565b6000819050602082019050919050565b6000819050919050565b6125a781612594565b82525050565b600081519050919050565b600082825260208201905092915050565b60005b838110156125e75780820151818401526020810190506125cc565b60008484015250505050565b6000601f19601f8301169050919050565b600061260f826125ad565b61261981856125b8565b93506126298185602086016125c9565b612632816125f3565b840191505092915050565b60008115159050919050565b6126528161263d565b82525050565b600061012083016000830151612671600086018261259e565b50602083015184820360208601526126898282612604565b915050604083015184820360408601526126a38282612604565b91505060608301516126b8606086018261259e565b5060808301516126cb608086018261259e565b5060a08301516126de60a086018261259e565b5060c083015184820360c08601526126f68282612604565b91505060e083015184820360e08601526127108282612604565b915050610100830151612727610100860182612649565b508091505092915050565b600061273e8383612658565b905092915050565b6000602082019050919050565b600061275e82612568565b6127688185612573565b93508360208202850161277a85612584565b8060005b858110156127b657848403895281516127978582612732565b94506127a283612746565b925060208a0199505060018101905061277e565b50829750879550505050505092915050565b600060208201905081810360008301526127e28184612753565b905092915050565b6000604051905090565b600080fd5b600080fd5b600073ffffffffffffffffffffffffffffffffffffffff82169050919050565b6000612829826127fe565b9050919050565b6128398161281e565b811461284457600080fd5b50565b60008135905061285681612830565b92915050565b600060208284031215612872576128716127f4565b5b600061288084828501612847565b91505092915050565b6128928161263d565b82525050565b60006020820190506128ad6000830184612889565b92915050565b6128bc81612594565b81146128c757600080fd5b50565b6000813590506128d9816128b3565b92915050565b6000602082840312156128f5576128f46127f4565b5b6000612903848285016128ca565b91505092915050565b60008060408385031215612923576129226127f4565b5b6000612931858286016128ca565b925050602061294285828601612847565b9150509250929050565b61295581612594565b82525050565b6000602082019050612970600083018461294c565b92915050565b600080fd5b600080fd5b7f4e487b7100000000000000000000000000000000000000000000000000000000600052604160045260246000fd5b6129b8826125f3565b810181811067ffffffffffffffff821117156129d7576129d6612980565b5b80604052505050565b60006129ea6127ea565b90506129f682826129af565b919050565b600067ffffffffffffffff821115612a1657612a15612980565b5b612a1f826125f3565b9050602081019050919050565b82818337600083830152505050565b6000612a4e612a49846129fb565b6129e0565b905082815260208101848484011115612a6a57612a6961297b565b5b612a75848285612a2c565b509392505050565b600082601f830112612a9257612a91612976565b5b8135612aa2848260208601612a3b565b91505092915050565b600060ff82169050919050565b612ac181612aab565b8114612acc57600080fd5b50565b600081359050612ade81612ab8565b92915050565b612aed8161263d565b8114612af857600080fd5b50565b600081359050612b0a81612ae4565b92915050565b600080600060608486031215612b2957612b286127f4565b5b600084013567ffffffffffffffff811115612b4757612b466127f9565b5b612b5386828701612a7d565b9350506020612b6486828701612acf565b9250506040612b7586828701612afb565b9150509250925092565b600082825260208201905092915050565b6000612b9b826125ad565b612ba58185612b7f565b9350612bb58185602086016125c9565b612bbe816125f3565b840191505092915050565b600061012082019050612bdf600083018c61294c565b8181036020830152612bf1818b612b90565b90508181036040830152612c05818a612b90565b9050612c14606083018961294c565b612c21608083018861294c565b612c2e60a083018761294c565b81810360c0830152612c408186612b90565b905081810360e0830152612c548185612b90565b9050612c64610100830184612889565b9a9950505050505050505050565b600081519050919050565b600082825260208201905092915050565b6000819050602082019050919050565b612ca78161281e565b82525050565b6000612cb98383612c9e565b60208301905092915050565b6000602082019050919050565b6000612cdd82612c72565b612ce78185612c7d565b9350612cf283612c8e565b8060005b83811015612d23578151612d0a8882612cad565b9750612d1583612cc5565b925050600181019050612cf6565b5085935050505092915050565b60006020820190508181036000830152612d4a8184612cd2565b905092915050565b60008060408385031215612d6957612d686127f4565b5b6000612d77858286016128ca565b9250506020612d88858286016128ca565b9150509250929050565b612d9b8161281e565b82525050565b6000602082019050612db66000830184612d92565b92915050565b600080600080600080600060e0888a031215612ddb57612dda6127f4565b5b600088013567ffffffffffffffff811115612df957612df86127f9565b5b612e058a828b01612a7d565b975050602088013567ffffffffffffffff811115612e2657612e256127f9565b5b612e328a828b01612a7d565b9650506040612e438a828b016128ca565b9550506060612e548a828b016128ca565b9450506080612e658a828b016128ca565b93505060a088013567ffffffffffffffff811115612e8657612e856127f9565b5b612e928a828b01612a7d565b92505060c088013567ffffffffffffffff811115612eb357612eb26127f9565b5b612ebf8a828b01612a7d565b91505092959891949750929550565b612ed781612aab565b82525050565b6000610100820190508181036000830152612ef8818b612b90565b9050612f07602083018a612ece565b612f146040830189612889565b8181036060830152612f268188612b90565b90508181036080830152612f3a8187612b90565b9050612f4960a083018661294c565b612f5660c083018561294c565b612f6360e083018461294c565b9998505050505050505050565b60006060820190508181036000830152612f8a8186612b90565b9050612f996020830185612ece565b612fa66040830184612889565b949350505050565b7f4e487b7100000000000000000000000000000000000000000000000000000000600052603260045260246000fd5b7f4e487b7100000000000000000000000000000000000000000000000000000000600052601160045260246000fd5b600061301782612594565b91507fffffffffffffffffffffffffffffffffffffffffffffffffffffffffffffffff820361304957613048612fdd565b5b600182019050919050565b7f4e487b7100000000000000000000000000000000000000000000000000000000600052602260045260246000fd5b6000600282049050600182168061309b57607f821691505b6020821081036130ae576130ad613054565b5b50919050565b7f496e76616c696420726964652049440000000000000000000000000000000000600082015250565b60006130ea600f83612b7f565b91506130f5826130b4565b602082019050919050565b60006020820190508181036000830152613119816130dd565b9050919050565b7f50617373656e6765727320686176656e277420616c6c20636f6e6669726d656460008201527f20726964652e0000000000000000000000000000000000000000000000000000602082015250565b600061317c602683612b7f565b915061318782613120565b604082019050919050565b600060208201905081810360008301526131ab8161316f565b9050919050565b7f4f6e6c792072696465722063616e207769746864726177000000000000000000600082015250565b60006131e8601783612b7f565b91506131f3826131b2565b602082019050919050565b60006020820190508181036000830152613217816131db565b9050919050565b7f5061796d656e7420616c72656164792072656c65617365640000000000000000600082015250565b6000613254601883612b7f565b915061325f8261321e565b602082019050919050565b6000602082019050818103600083015261328381613247565b9050919050565b600061329582612594565b91506132a083612594565b92508282019050808211156132b8576132b7612fdd565b5b92915050565b7f4e6f20666172657320746f207769746864726177000000000000000000000000600082015250565b60006132f4601483612b7f565b91506132ff826132be565b602082019050919050565b60006020820190508181036000830152613323816132e7565b9050919050565b600060608201905061333f600083018661294c565b61334c6020830185612d92565b613359604083018461294c565b949350505050565b7f4f6e6c792072696465206f776e65722063616e2064656c65746520746865207260008201527f6964650000000000000000000000000000000000000000000000000000000000602082015250565b60006133bd602383612b7f565b91506133c882613361565b604082019050919050565b600060208201905081810360008301526133ec816133b0565b9050919050565b60008190508160005260206000209050919050565b60006020601f8301049050919050565b600082821b905092915050565b6000600883026134557fffffffffffffffffffffffffffffffffffffffffffffffffffffffffffffffff82613418565b61345f8683613418565b95508019841693508086168417925050509392505050565b6000819050919050565b600061349c61349761349284612594565b613477565b612594565b9050919050565b6000819050919050565b6134b683613481565b6134ca6134c2826134a3565b848454613425565b825550505050565b600090565b6134df6134d2565b6134ea8184846134ad565b505050565b5b8181101561350e576135036000826134d7565b6001810190506134f0565b5050565b601f82111561355357613524816133f3565b61352d84613408565b8101602085101561353c578190505b61355061354885613408565b8301826134ef565b50505b505050565b600082821c905092915050565b600061357660001984600802613558565b1980831691505092915050565b600061358f8383613565565b9150826002028217905092915050565b6135a8826125ad565b67ffffffffffffffff8111156135c1576135c0612980565b5b6135cb8254613083565b6135d6828285613512565b600060209050601f83116001811461360957600084156135f7578287015190505b6136018582613583565b865550613669565b601f198416613617866133f3565b60005b8281101561363f5784890151825560018201915060208501945060208101905061361a565b8683101561365c5784890151613658601f891682613565565b8355505b6001600288020188555050505b505050505050565b7f4e6f7420612070617373656e67657220666f7220746869732072696465000000600082015250565b60006136a7601d83612b7f565b91506136b282613671565b602082019050919050565b600060208201905081810360008301526136d68161369a565b9050919050565b6000610100820190506136f3600083018b61294c565b8181036020830152613705818a612b90565b905081810360408301526137198189612b90565b9050613728606083018861294c565b613735608083018761294c565b61374260a083018661294c565b81810360c08301526137548185612b90565b905081810360e08301526137688184612b90565b90509998505050505050505050565b7f5269646520646f6573206e6f7420657869737400000000000000000000000000600082015250565b60006137ad601383612b7f565b91506137b882613777565b602082019050919050565b600060208201905081810360008301526137dc816137a0565b9050919050565b7f4e6f20736561747320617661696c61626c650000000000000000000000000000600082015250565b6000613819601283612b7f565b9150613824826137e3565b602082019050919050565b600060208201905081810360008301526138488161380c565b9050919050565b7f496e636f727265637420666172652073656e7400000000000000000000000000600082015250565b6000613885601383612b7f565b91506138908261384f565b602082019050919050565b600060208201905081810360008301526138b481613878565b9050919050565b60006138c682612594565b9150600082036138d9576138d8612fdd565b5b600182039050919050565b60006040820190506138f9600083018561294c565b6139066020830184612d92565b939250505056fea26469706673582212202c3bb7384b93b49c00309eff8e5279d5d7afd4192aaf588a55f10c56b783130464736f6c634300081c0033",
  "linkReferences": {},
  "deployedLinkReferences": {}
}