{
  "_format": "hh-sol-artifact-1",
  "contractName": "carpooling",
  "sourceName": "contracts/CarPool.sol",
  "abi": [
    {
      "anonymous": false,
      "inputs": [
        {
          "indexed": false,
          "internalType": "uint256",
          "name": "rideId",
          "type": "uint256"
        },
        {
          "indexed": false,
          "internalType": "address",
          "name": "passenger",
          "type": "address"
        }
      ],
      "name": "RideBooked",
      "type": "event"
    },
    {
      "anonymous": false,
      "inputs": [
        {
          "indexed": false,
          "internalType": "uint256",
          "name": "rideId",
          "type": "uint256"
        },
        {
          "indexed": false,
          "internalType": "string",
          "name": "origin",
          "type": "string"
        },
        {
          "indexed": false,
          "internalType": "string",
          "name": "destination",
          "type": "string"
        },
        {
          "indexed": false,
          "internalType": "uint256",
          "name": "departuretime",
          "type": "uint256"
        },
        {
          "indexed": false,
          "internalType": "uint256",
          "name": "fare",
          "type": "uint256"
        },
        {
          "indexed": false,
          "internalType": "uint256",
          "name": "seats",
          "type": "uint256"
        },
        {
          "indexed": false,
          "internalType": "string",
          "name": "carModel",
          "type": "string"
        },
        {
          "indexed": false,
          "internalType": "string",
          "name": "carNumber",
          "type": "string"
        }
      ],
      "name": "RideCreated",
      "type": "event"
    },
    {
      "anonymous": false,
      "inputs": [
        {
          "indexed": true,
          "internalType": "address",
          "name": "from",
          "type": "address"
        },
        {
          "indexed": true,
          "internalType": "address",
          "name": "to",
          "type": "address"
        },
        {
          "indexed": false,
          "internalType": "uint256",
          "name": "amount",
          "type": "uint256"
        }
      ],
      "name": "RidePaid",
      "type": "event"
    },
    {
      "inputs": [
        {
          "internalType": "address",
          "name": "",
          "type": "address"
        }
      ],
      "name": "addressDetails",
      "outputs": [
        {
          "internalType": "string",
          "name": "name",
          "type": "string"
        },
        {
          "internalType": "uint8",
          "name": "age",
          "type": "uint8"
        },
        {
          "internalType": "bool",
          "name": "gender",
          "type": "bool"
        }
      ],
      "stateMutability": "view",
      "type": "function"
    },
    {
      "inputs": [
        {
          "internalType": "uint256",
          "name": "_rideId",
          "type": "uint256"
        }
      ],
      "name": "bookRide",
      "outputs": [],
      "stateMutability": "payable",
      "type": "function"
    },
    {
      "inputs": [
        {
          "internalType": "string",
          "name": "_origin",
          "type": "string"
        },
        {
          "internalType": "string",
          "name": "_destination",
          "type": "string"
        },
        {
          "internalType": "uint256",
          "name": "_departuretime",
          "type": "uint256"
        },
        {
          "internalType": "uint256",
          "name": "_fare",
          "type": "uint256"
        },
        {
          "internalType": "uint256",
          "name": "_seats",
          "type": "uint256"
        },
        {
          "internalType": "string",
          "name": "_carModel",
          "type": "string"
        },
        {
          "internalType": "string",
          "name": "_carNumber",
          "type": "string"
        }
      ],
      "name": "createRide",
      "outputs": [],
      "stateMutability": "nonpayable",
      "type": "function"
    },
    {
      "inputs": [
        {
          "internalType": "uint256",
          "name": "rideId",
          "type": "uint256"
        }
      ],
      "name": "deleteRide",
      "outputs": [],
      "stateMutability": "nonpayable",
      "type": "function"
    },
    {
      "inputs": [],
      "name": "getActiveRides",
      "outputs": [
        {
          "components": [
            {
              "internalType": "uint256",
              "name": "rideId",
              "type": "uint256"
            },
            {
              "internalType": "string",
              "name": "origin",
              "type": "string"
            },
            {
              "internalType": "string",
              "name": "destination",
              "type": "string"
            },
            {
              "internalType": "uint256",
              "name": "departuretime",
              "type": "uint256"
            },
            {
              "internalType": "uint256",
              "name": "fare",
              "type": "uint256"
            },
            {
              "internalType": "uint256",
              "name": "seats",
              "type": "uint256"
            },
            {
              "internalType": "string",
              "name": "carModel",
              "type": "string"
            },
            {
              "internalType": "string",
              "name": "carNumber",
              "type": "string"
            },
            {
              "internalType": "bool",
              "name": "isActive",
              "type": "bool"
            }
          ],
          "internalType": "struct carpooling.Ride[]",
          "name": "",
          "type": "tuple[]"
        }
      ],
      "stateMutability": "view",
      "type": "function"
    },
    {
      "inputs": [],
      "name": "getAllRides",
      "outputs": [
        {
          "components": [
            {
              "internalType": "uint256",
              "name": "rideId",
              "type": "uint256"
            },
            {
              "internalType": "string",
              "name": "origin",
              "type": "string"
            },
            {
              "internalType": "string",
              "name": "destination",
              "type": "string"
            },
            {
              "internalType": "uint256",
              "name": "departuretime",
              "type": "uint256"
            },
            {
              "internalType": "uint256",
              "name": "fare",
              "type": "uint256"
            },
            {
              "internalType": "uint256",
              "name": "seats",
              "type": "uint256"
            },
            {
              "internalType": "string",
              "name": "carModel",
              "type": "string"
            },
            {
              "internalType": "string",
              "name": "carNumber",
              "type": "string"
            },
            {
              "internalType": "bool",
              "name": "isActive",
              "type": "bool"
            }
          ],
          "internalType": "struct carpooling.Ride[]",
          "name": "",
          "type": "tuple[]"
        }
      ],
      "stateMutability": "view",
      "type": "function"
    },
    {
      "inputs": [
        {
          "internalType": "uint256",
          "name": "rideId",
          "type": "uint256"
        },
        {
          "internalType": "address",
          "name": "passenger",
          "type": "address"
        }
      ],
      "name": "getPassengerDetails",
      "outputs": [
        {
          "internalType": "string",
          "name": "name",
          "type": "string"
        },
        {
          "internalType": "uint8",
          "name": "age",
          "type": "uint8"
        },
        {
          "internalType": "bool",
          "name": "gender",
          "type": "bool"
        },
        {
          "internalType": "string",
          "name": "origin",
          "type": "string"
        },
        {
          "internalType": "string",
          "name": "destination",
          "type": "string"
        },
        {
          "internalType": "uint256",
          "name": "departureTime",
          "type": "uint256"
        },
        {
          "internalType": "uint256",
          "name": "fare",
          "type": "uint256"
        },
        {
          "internalType": "uint256",
          "name": "seats",
          "type": "uint256"
        }
      ],
      "stateMutability": "view",
      "type": "function"
    },
    {
      "inputs": [
        {
          "internalType": "uint256",
          "name": "_rideId",
          "type": "uint256"
        }
      ],
      "name": "getPassengersForRide",
      "outputs": [
        {
          "internalType": "address[]",
          "name": "",
          "type": "address[]"
        }
      ],
      "stateMutability": "view",
      "type": "function"
    },
    {
      "inputs": [
        {
          "internalType": "address",
          "name": "_user",
          "type": "address"
        }
      ],
      "name": "getUserDetails",
      "outputs": [
        {
          "internalType": "string",
          "name": "",
          "type": "string"
        },
        {
          "internalType": "uint8",
          "name": "",
          "type": "uint8"
        },
        {
          "internalType": "bool",
          "name": "",
          "type": "bool"
        }
      ],
      "stateMutability": "view",
      "type": "function"
    },
    {
      "inputs": [
        {
          "internalType": "string",
          "name": "_name",
          "type": "string"
        },
        {
          "internalType": "uint8",
          "name": "_age",
          "type": "uint8"
        },
        {
          "internalType": "bool",
          "name": "_gender",
          "type": "bool"
        }
      ],
      "name": "newUser",
      "outputs": [],
      "stateMutability": "nonpayable",
      "type": "function"
    },
    {
      "inputs": [
        {
          "internalType": "uint256",
          "name": "",
          "type": "uint256"
        },
        {
          "internalType": "uint256",
          "name": "",
          "type": "uint256"
        }
      ],
      "name": "passengersByRide",
      "outputs": [
        {
          "internalType": "address",
          "name": "",
          "type": "address"
        }
      ],
      "stateMutability": "view",
      "type": "function"
    },
    {
      "inputs": [],
      "name": "rideCount",
      "outputs": [
        {
          "internalType": "uint256",
          "name": "",
          "type": "uint256"
        }
      ],
      "stateMutability": "view",
      "type": "function"
    },
    {
      "inputs": [
        {
          "internalType": "uint256",
          "name": "",
          "type": "uint256"
        }
      ],
      "name": "rideOwner",
      "outputs": [
        {
          "internalType": "address",
          "name": "",
          "type": "address"
        }
      ],
      "stateMutability": "view",
      "type": "function"
    },
    {
      "inputs": [
        {
          "internalType": "uint256",
          "name": "",
          "type": "uint256"
        }
      ],
      "name": "rides",
      "outputs": [
        {
          "internalType": "uint256",
          "name": "rideId",
          "type": "uint256"
        },
        {
          "internalType": "string",
          "name": "origin",
          "type": "string"
        },
        {
          "internalType": "string",
          "name": "destination",
          "type": "string"
        },
        {
          "internalType": "uint256",
          "name": "departuretime",
          "type": "uint256"
        },
        {
          "internalType": "uint256",
          "name": "fare",
          "type": "uint256"
        },
        {
          "internalType": "uint256",
          "name": "seats",
          "type": "uint256"
        },
        {
          "internalType": "string",
          "name": "carModel",
          "type": "string"
        },
        {
          "internalType": "string",
          "name": "carNumber",
          "type": "string"
        },
        {
          "internalType": "bool",
          "name": "isActive",
          "type": "bool"
        }
      ],
      "stateMutability": "view",
      "type": "function"
    },
    {
      "inputs": [
        {
          "internalType": "address",
          "name": "_user",
          "type": "address"
        }
      ],
      "name": "userExists",
      "outputs": [
        {
          "internalType": "bool",
          "name": "",
          "type": "bool"
        }
      ],
      "stateMutability": "view",
      "type": "function"
    }
  ],
  "bytecode": "0x60806040526000600455348015601457600080fd5b50612d52806100246000396000f3fe6080604052600436106100e85760003560e01c80637e8d519c1161008a578063b47c188311610059578063b47c18831461033b578063c69b2cf614610366578063cc3d967b14610382578063ebf7a828146103c1576100e8565b80637e8d519c1461025457806381c05f921461029157806389b7085a146102ce5780638ed20c74146102f7576100e8565b80634717bba6116100c65780634717bba61461017e5780635205f112146101a7578063650fbb7c146101ec578063787660c314610229576100e8565b80630dcc2fb7146100ed5780630e666e49146101185780633c70c15714610155575b600080fd5b3480156100f957600080fd5b50610102610400565b60405161010f9190611e84565b60405180910390f35b34801561012457600080fd5b5061013f600480360381019061013a9190611f18565b610806565b60405161014c9190611f54565b60405180910390f35b34801561016157600080fd5b5061017c60048036038101906101779190611f9b565b61085f565b005b34801561018a57600080fd5b506101a560048036038101906101a09190612162565b610988565b005b3480156101b357600080fd5b506101ce60048036038101906101c99190611f9b565b610a45565b6040516101e39998979695949392919061222a565b60405180910390f35b3480156101f857600080fd5b50610213600480360381019061020e9190611f9b565b610cd0565b6040516102209190612391565b60405180910390f35b34801561023557600080fd5b5061023e610d71565b60405161024b9190611e84565b60405180910390f35b34801561026057600080fd5b5061027b600480360381019061027691906123b3565b61105c565b6040516102889190612402565b60405180910390f35b34801561029d57600080fd5b506102b860048036038101906102b39190611f9b565b6110aa565b6040516102c59190612402565b60405180910390f35b3480156102da57600080fd5b506102f560048036038101906102f0919061241d565b6110dd565b005b34801561030357600080fd5b5061031e6004803603810190610319919061252f565b6112ac565b60405161033298979695949392919061257e565b60405180910390f35b34801561034757600080fd5b506103506116d3565b60405161035d9190612611565b60405180910390f35b610380600480360381019061037b9190611f9b565b6116d9565b005b34801561038e57600080fd5b506103a960048036038101906103a49190611f18565b6119d1565b6040516103b89392919061262c565b60405180910390f35b3480156103cd57600080fd5b506103e860048036038101906103e39190611f18565b611b0a565b6040516103f79392919061262c565b60405180910390f35b60606000805b60038054905081101561046757600381815481106104275761042661266a565b5b906000526020600020906009020160080160009054906101000a900460ff161561045a578180610456906126c8565b9250505b8080600101915050610406565b5060008167ffffffffffffffff81111561048457610483611fd2565b5b6040519080825280602002602001820160405280156104bd57816020015b6104aa611bd6565b8152602001906001900390816104a25790505b5090506000805b6003805490508110156107fc57600381815481106104e5576104e461266a565b5b906000526020600020906009020160080160009054906101000a900460ff16156107ef576003818154811061051d5761051c61266a565b5b906000526020600020906009020160405180610120016040529081600082015481526020016001820180546105519061273f565b80601f016020809104026020016040519081016040528092919081815260200182805461057d9061273f565b80156105ca5780601f1061059f576101008083540402835291602001916105ca565b820191906000526020600020905b8154815290600101906020018083116105ad57829003601f168201915b505050505081526020016002820180546105e39061273f565b80601f016020809104026020016040519081016040528092919081815260200182805461060f9061273f565b801561065c5780601f106106315761010080835404028352916020019161065c565b820191906000526020600020905b81548152906001019060200180831161063f57829003601f168201915b505050505081526020016003820154815260200160048201548152602001600582015481526020016006820180546106939061273f565b80601f01602080910402602001604051908101604052809291908181526020018280546106bf9061273f565b801561070c5780601f106106e15761010080835404028352916020019161070c565b820191906000526020600020905b8154815290600101906020018083116106ef57829003601f168201915b505050505081526020016007820180546107259061273f565b80601f01602080910402602001604051908101604052809291908181526020018280546107519061273f565b801561079e5780601f106107735761010080835404028352916020019161079e565b820191906000526020600020905b81548152906001019060200180831161078157829003601f168201915b505050505081526020016008820160009054906101000a900460ff1615151515815250508383815181106107d5576107d461266a565b5b602002602001018190525081806107eb906126c8565b9250505b80806001019150506104c4565b5081935050505090565b6000806000808473ffffffffffffffffffffffffffffffffffffffff1673ffffffffffffffffffffffffffffffffffffffff16815260200190815260200160002060000180546108559061273f565b9050119050919050565b60038054905081106108a6576040517f08c379a000000000000000000000000000000000000000000000000000000000815260040161089d906127bc565b60405180910390fd5b6001600082815260200190815260200160002060009054906101000a900473ffffffffffffffffffffffffffffffffffffffff1673ffffffffffffffffffffffffffffffffffffffff163373ffffffffffffffffffffffffffffffffffffffff1614610947576040517f08c379a000000000000000000000000000000000000000000000000000000000815260040161093e9061284e565b60405180910390fd5b60006003828154811061095d5761095c61266a565b5b906000526020600020906009020160080160006101000a81548160ff02191690831515021790555050565b60405180606001604052808481526020018360ff1681526020018215158152506000803373ffffffffffffffffffffffffffffffffffffffff1673ffffffffffffffffffffffffffffffffffffffff16815260200190815260200160002060008201518160000190816109fb9190612a1a565b5060208201518160010160006101000a81548160ff021916908360ff16021790555060408201518160010160016101000a81548160ff021916908315150217905550905050505050565b60038181548110610a5557600080fd5b9060005260206000209060090201600091509050806000015490806001018054610a7e9061273f565b80601f0160208091040260200160405190810160405280929190818152602001828054610aaa9061273f565b8015610af75780601f10610acc57610100808354040283529160200191610af7565b820191906000526020600020905b815481529060010190602001808311610ada57829003601f168201915b505050505090806002018054610b0c9061273f565b80601f0160208091040260200160405190810160405280929190818152602001828054610b389061273f565b8015610b855780601f10610b5a57610100808354040283529160200191610b85565b820191906000526020600020905b815481529060010190602001808311610b6857829003601f168201915b505050505090806003015490806004015490806005015490806006018054610bac9061273f565b80601f0160208091040260200160405190810160405280929190818152602001828054610bd89061273f565b8015610c255780601f10610bfa57610100808354040283529160200191610c25565b820191906000526020600020905b815481529060010190602001808311610c0857829003601f168201915b505050505090806007018054610c3a9061273f565b80601f0160208091040260200160405190810160405280929190818152602001828054610c669061273f565b8015610cb35780601f10610c8857610100808354040283529160200191610cb3565b820191906000526020600020905b815481529060010190602001808311610c9657829003601f168201915b5050505050908060080160009054906101000a900460ff16905089565b606060026000838152602001908152602001600020805480602002602001604051908101604052809291908181526020018280548015610d6557602002820191906000526020600020905b8160009054906101000a900473ffffffffffffffffffffffffffffffffffffffff1673ffffffffffffffffffffffffffffffffffffffff1681526020019060010190808311610d1b575b50505050509050919050565b60606003805480602002602001604051908101604052809291908181526020016000905b8282101561105357838290600052602060002090600902016040518061012001604052908160008201548152602001600182018054610dd39061273f565b80601f0160208091040260200160405190810160405280929190818152602001828054610dff9061273f565b8015610e4c5780601f10610e2157610100808354040283529160200191610e4c565b820191906000526020600020905b815481529060010190602001808311610e2f57829003601f168201915b50505050508152602001600282018054610e659061273f565b80601f0160208091040260200160405190810160405280929190818152602001828054610e919061273f565b8015610ede5780601f10610eb357610100808354040283529160200191610ede565b820191906000526020600020905b815481529060010190602001808311610ec157829003601f168201915b50505050508152602001600382015481526020016004820154815260200160058201548152602001600682018054610f159061273f565b80601f0160208091040260200160405190810160405280929190818152602001828054610f419061273f565b8015610f8e5780601f10610f6357610100808354040283529160200191610f8e565b820191906000526020600020905b815481529060010190602001808311610f7157829003601f168201915b50505050508152602001600782018054610fa79061273f565b80601f0160208091040260200160405190810160405280929190818152602001828054610fd39061273f565b80156110205780601f10610ff557610100808354040283529160200191611020565b820191906000526020600020905b81548152906001019060200180831161100357829003601f168201915b505050505081526020016008820160009054906101000a900460ff16151515158152505081526020019060010190610d95565b50505050905090565b6002602052816000526040600020818154811061107857600080fd5b906000526020600020016000915091509054906101000a900473ffffffffffffffffffffffffffffffffffffffff1681565b60016020528060005260406000206000915054906101000a900473ffffffffffffffffffffffffffffffffffffffff1681565b6003604051806101200160405280600454815260200189815260200188815260200187815260200186815260200185815260200184815260200183815260200160011515815250908060018154018082558091505060019003906000526020600020906009020160009091909190915060008201518160000155602082015181600101908161116c9190612a1a565b5060408201518160020190816111829190612a1a565b50606082015181600301556080820151816004015560a0820151816005015560c08201518160060190816111b69190612a1a565b5060e08201518160070190816111cc9190612a1a565b506101008201518160080160006101000a81548160ff02191690831515021790555050503360016000600454815260200190815260200160002060006101000a81548173ffffffffffffffffffffffffffffffffffffffff021916908373ffffffffffffffffffffffffffffffffffffffff1602179055507f50ec692c37ef92db184dba2e36f72c23f1e98d2288ed07021995c307205dbd6860045488888888888888604051611283989796959493929190612aec565b60405180910390a16004600081548092919061129e906126c8565b919050555050505050505050565b60606000806060806000806000806000808b73ffffffffffffffffffffffffffffffffffffffff1673ffffffffffffffffffffffffffffffffffffffff1681526020019081526020016000206040518060600160405290816000820180546113139061273f565b80601f016020809104026020016040519081016040528092919081815260200182805461133f9061273f565b801561138c5780601f106113615761010080835404028352916020019161138c565b820191906000526020600020905b81548152906001019060200180831161136f57829003601f168201915b505050505081526020016001820160009054906101000a900460ff1660ff1660ff1681526020016001820160019054906101000a900460ff1615151515815250509050600060038c815481106113e5576113e461266a565b5b906000526020600020906009020160405180610120016040529081600082015481526020016001820180546114199061273f565b80601f01602080910402602001604051908101604052809291908181526020018280546114459061273f565b80156114925780601f1061146757610100808354040283529160200191611492565b820191906000526020600020905b81548152906001019060200180831161147557829003601f168201915b505050505081526020016002820180546114ab9061273f565b80601f01602080910402602001604051908101604052809291908181526020018280546114d79061273f565b80156115245780601f106114f957610100808354040283529160200191611524565b820191906000526020600020905b81548152906001019060200180831161150757829003601f168201915b5050505050815260200160038201548152602001600482015481526020016005820154815260200160068201805461155b9061273f565b80601f01602080910402602001604051908101604052809291908181526020018280546115879061273f565b80156115d45780601f106115a9576101008083540402835291602001916115d4565b820191906000526020600020905b8154815290600101906020018083116115b757829003601f168201915b505050505081526020016007820180546115ed9061273f565b80601f01602080910402602001604051908101604052809291908181526020018280546116199061273f565b80156116665780601f1061163b57610100808354040283529160200191611666565b820191906000526020600020905b81548152906001019060200180831161164957829003601f168201915b505050505081526020016008820160009054906101000a900460ff161515151581525050905081600001518260200151836040015183602001518460400151856060015186608001518760a001519950995099509950995099509950995050509295985092959890939650565b60045481565b6003805490508110611720576040517f08c379a000000000000000000000000000000000000000000000000000000000815260040161171790612bd2565b60405180910390fd5b6000600382815481106117365761173561266a565b5b90600052602060002090600902016005015411611788576040517f08c379a000000000000000000000000000000000000000000000000000000000815260040161177f90612c3e565b60405180910390fd5b60006003828154811061179e5761179d61266a565b5b90600052602060002090600902019050806004015434146117f4576040517f08c379a00000000000000000000000000000000000000000000000000000000081526004016117eb90612caa565b60405180910390fd5b80600501600081548092919061180990612cca565b919050555060026000838152602001908152602001600020339080600181540180825580915050600190039060005260206000200160009091909190916101000a81548173ffffffffffffffffffffffffffffffffffffffff021916908373ffffffffffffffffffffffffffffffffffffffff1602179055506001600083815260200190815260200160002060009054906101000a900473ffffffffffffffffffffffffffffffffffffffff1673ffffffffffffffffffffffffffffffffffffffff166108fc349081150290604051600060405180830381858888f193505050501580156118fb573d6000803e3d6000fd5b506001600083815260200190815260200160002060009054906101000a900473ffffffffffffffffffffffffffffffffffffffff1673ffffffffffffffffffffffffffffffffffffffff163373ffffffffffffffffffffffffffffffffffffffff167f959dfdd606796d8b4f43f5579aa99e6f5c44c5090591ebff34a84d020d2104103460405161198c9190612611565b60405180910390a37f65394bc371dbe55ca40e19310c8a935b039bf28367787cfaeeecfe3361bf18a082336040516119c5929190612cf3565b60405180910390a15050565b606060008060008060008673ffffffffffffffffffffffffffffffffffffffff1673ffffffffffffffffffffffffffffffffffffffff168152602001908152602001600020604051806060016040529081600082018054611a319061273f565b80601f0160208091040260200160405190810160405280929190818152602001828054611a5d9061273f565b8015611aaa5780601f10611a7f57610100808354040283529160200191611aaa565b820191906000526020600020905b815481529060010190602001808311611a8d57829003601f168201915b505050505081526020016001820160009054906101000a900460ff1660ff1660ff1681526020016001820160019054906101000a900460ff1615151515815250509050806000015181602001518260400151935093509350509193909250565b6000602052806000526040600020600091509050806000018054611b2d9061273f565b80601f0160208091040260200160405190810160405280929190818152602001828054611b599061273f565b8015611ba65780601f10611b7b57610100808354040283529160200191611ba6565b820191906000526020600020905b815481529060010190602001808311611b8957829003601f168201915b5050505050908060010160009054906101000a900460ff16908060010160019054906101000a900460ff16905083565b60405180610120016040528060008152602001606081526020016060815260200160008152602001600081526020016000815260200160608152602001606081526020016000151581525090565b600081519050919050565b600082825260208201905092915050565b6000819050602082019050919050565b6000819050919050565b611c6381611c50565b82525050565b600081519050919050565b600082825260208201905092915050565b60005b83811015611ca3578082015181840152602081019050611c88565b60008484015250505050565b6000601f19601f8301169050919050565b6000611ccb82611c69565b611cd58185611c74565b9350611ce5818560208601611c85565b611cee81611caf565b840191505092915050565b60008115159050919050565b611d0e81611cf9565b82525050565b600061012083016000830151611d2d6000860182611c5a565b5060208301518482036020860152611d458282611cc0565b91505060408301518482036040860152611d5f8282611cc0565b9150506060830151611d746060860182611c5a565b506080830151611d876080860182611c5a565b5060a0830151611d9a60a0860182611c5a565b5060c083015184820360c0860152611db28282611cc0565b91505060e083015184820360e0860152611dcc8282611cc0565b915050610100830151611de3610100860182611d05565b508091505092915050565b6000611dfa8383611d14565b905092915050565b6000602082019050919050565b6000611e1a82611c24565b611e248185611c2f565b935083602082028501611e3685611c40565b8060005b85811015611e725784840389528151611e538582611dee565b9450611e5e83611e02565b925060208a01995050600181019050611e3a565b50829750879550505050505092915050565b60006020820190508181036000830152611e9e8184611e0f565b905092915050565b6000604051905090565b600080fd5b600080fd5b600073ffffffffffffffffffffffffffffffffffffffff82169050919050565b6000611ee582611eba565b9050919050565b611ef581611eda565b8114611f0057600080fd5b50565b600081359050611f1281611eec565b92915050565b600060208284031215611f2e57611f2d611eb0565b5b6000611f3c84828501611f03565b91505092915050565b611f4e81611cf9565b82525050565b6000602082019050611f696000830184611f45565b92915050565b611f7881611c50565b8114611f8357600080fd5b50565b600081359050611f9581611f6f565b92915050565b600060208284031215611fb157611fb0611eb0565b5b6000611fbf84828501611f86565b91505092915050565b600080fd5b600080fd5b7f4e487b7100000000000000000000000000000000000000000000000000000000600052604160045260246000fd5b61200a82611caf565b810181811067ffffffffffffffff8211171561202957612028611fd2565b5b80604052505050565b600061203c611ea6565b90506120488282612001565b919050565b600067ffffffffffffffff82111561206857612067611fd2565b5b61207182611caf565b9050602081019050919050565b82818337600083830152505050565b60006120a061209b8461204d565b612032565b9050828152602081018484840111156120bc576120bb611fcd565b5b6120c784828561207e565b509392505050565b600082601f8301126120e4576120e3611fc8565b5b81356120f484826020860161208d565b91505092915050565b600060ff82169050919050565b612113816120fd565b811461211e57600080fd5b50565b6000813590506121308161210a565b92915050565b61213f81611cf9565b811461214a57600080fd5b50565b60008135905061215c81612136565b92915050565b60008060006060848603121561217b5761217a611eb0565b5b600084013567ffffffffffffffff81111561219957612198611eb5565b5b6121a5868287016120cf565b93505060206121b686828701612121565b92505060406121c78682870161214d565b9150509250925092565b6121da81611c50565b82525050565b600082825260208201905092915050565b60006121fc82611c69565b61220681856121e0565b9350612216818560208601611c85565b61221f81611caf565b840191505092915050565b600061012082019050612240600083018c6121d1565b8181036020830152612252818b6121f1565b90508181036040830152612266818a6121f1565b905061227560608301896121d1565b61228260808301886121d1565b61228f60a08301876121d1565b81810360c08301526122a181866121f1565b905081810360e08301526122b581856121f1565b90506122c5610100830184611f45565b9a9950505050505050505050565b600081519050919050565b600082825260208201905092915050565b6000819050602082019050919050565b61230881611eda565b82525050565b600061231a83836122ff565b60208301905092915050565b6000602082019050919050565b600061233e826122d3565b61234881856122de565b9350612353836122ef565b8060005b8381101561238457815161236b888261230e565b975061237683612326565b925050600181019050612357565b5085935050505092915050565b600060208201905081810360008301526123ab8184612333565b905092915050565b600080604083850312156123ca576123c9611eb0565b5b60006123d885828601611f86565b92505060206123e985828601611f86565b9150509250929050565b6123fc81611eda565b82525050565b600060208201905061241760008301846123f3565b92915050565b600080600080600080600060e0888a03121561243c5761243b611eb0565b5b600088013567ffffffffffffffff81111561245a57612459611eb5565b5b6124668a828b016120cf565b975050602088013567ffffffffffffffff81111561248757612486611eb5565b5b6124938a828b016120cf565b96505060406124a48a828b01611f86565b95505060606124b58a828b01611f86565b94505060806124c68a828b01611f86565b93505060a088013567ffffffffffffffff8111156124e7576124e6611eb5565b5b6124f38a828b016120cf565b92505060c088013567ffffffffffffffff81111561251457612513611eb5565b5b6125208a828b016120cf565b91505092959891949750929550565b6000806040838503121561254657612545611eb0565b5b600061255485828601611f86565b925050602061256585828601611f03565b9150509250929050565b612578816120fd565b82525050565b6000610100820190508181036000830152612599818b6121f1565b90506125a8602083018a61256f565b6125b56040830189611f45565b81810360608301526125c781886121f1565b905081810360808301526125db81876121f1565b90506125ea60a08301866121d1565b6125f760c08301856121d1565b61260460e08301846121d1565b9998505050505050505050565b600060208201905061262660008301846121d1565b92915050565b6000606082019050818103600083015261264681866121f1565b9050612655602083018561256f565b6126626040830184611f45565b949350505050565b7f4e487b7100000000000000000000000000000000000000000000000000000000600052603260045260246000fd5b7f4e487b7100000000000000000000000000000000000000000000000000000000600052601160045260246000fd5b60006126d382611c50565b91507fffffffffffffffffffffffffffffffffffffffffffffffffffffffffffffffff820361270557612704612699565b5b600182019050919050565b7f4e487b7100000000000000000000000000000000000000000000000000000000600052602260045260246000fd5b6000600282049050600182168061275757607f821691505b60208210810361276a57612769612710565b5b50919050565b7f496e76616c696420726964652049440000000000000000000000000000000000600082015250565b60006127a6600f836121e0565b91506127b182612770565b602082019050919050565b600060208201905081810360008301526127d581612799565b9050919050565b7f4f6e6c792072696465206f776e65722063616e2064656c65746520746865207260008201527f6964650000000000000000000000000000000000000000000000000000000000602082015250565b60006128386023836121e0565b9150612843826127dc565b604082019050919050565b600060208201905081810360008301526128678161282b565b9050919050565b60008190508160005260206000209050919050565b60006020601f8301049050919050565b600082821b905092915050565b6000600883026128d07fffffffffffffffffffffffffffffffffffffffffffffffffffffffffffffffff82612893565b6128da8683612893565b95508019841693508086168417925050509392505050565b6000819050919050565b600061291761291261290d84611c50565b6128f2565b611c50565b9050919050565b6000819050919050565b612931836128fc565b61294561293d8261291e565b8484546128a0565b825550505050565b600090565b61295a61294d565b612965818484612928565b505050565b5b818110156129895761297e600082612952565b60018101905061296b565b5050565b601f8211156129ce5761299f8161286e565b6129a884612883565b810160208510156129b7578190505b6129cb6129c385612883565b83018261296a565b50505b505050565b600082821c905092915050565b60006129f1600019846008026129d3565b1980831691505092915050565b6000612a0a83836129e0565b9150826002028217905092915050565b612a2382611c69565b67ffffffffffffffff811115612a3c57612a3b611fd2565b5b612a46825461273f565b612a5182828561298d565b600060209050601f831160018114612a845760008415612a72578287015190505b612a7c85826129fe565b865550612ae4565b601f198416612a928661286e565b60005b82811015612aba57848901518255600182019150602085019450602081019050612a95565b86831015612ad75784890151612ad3601f8916826129e0565b8355505b6001600288020188555050505b505050505050565b600061010082019050612b02600083018b6121d1565b8181036020830152612b14818a6121f1565b90508181036040830152612b2881896121f1565b9050612b3760608301886121d1565b612b4460808301876121d1565b612b5160a08301866121d1565b81810360c0830152612b6381856121f1565b905081810360e0830152612b7781846121f1565b90509998505050505050505050565b7f5269646520646f6573206e6f7420657869737400000000000000000000000000600082015250565b6000612bbc6013836121e0565b9150612bc782612b86565b602082019050919050565b60006020820190508181036000830152612beb81612baf565b9050919050565b7f4e6f20736561747320617661696c61626c650000000000000000000000000000600082015250565b6000612c286012836121e0565b9150612c3382612bf2565b602082019050919050565b60006020820190508181036000830152612c5781612c1b565b9050919050565b7f496e636f727265637420666172652073656e7400000000000000000000000000600082015250565b6000612c946013836121e0565b9150612c9f82612c5e565b602082019050919050565b60006020820190508181036000830152612cc381612c87565b9050919050565b6000612cd582611c50565b915060008203612ce857612ce7612699565b5b600182039050919050565b6000604082019050612d0860008301856121d1565b612d1560208301846123f3565b939250505056fea26469706673582212203cb830c0e20d6faf1ed5f0a33716cd2ca9f1cb13499aaeaa2de57822097fbfba64736f6c634300081c0033",
  "linkReferences": {},
  "deployedLinkReferences": {}
}