{
  "contracts/CarPool.sol": {
    "carpooling": {
      "abi": [
        {
          "anonymous": false,
          "inputs": [
            {
              "indexed": false,
              "internalType": "uint256",
              "name": "rideId",
              "type": "uint256"
            },
            {
              "indexed": false,
              "internalType": "address",
              "name": "passenger",
              "type": "address"
            }
          ],
          "name": "RideBooked",
          "type": "event"
        },
        {
          "anonymous": false,
          "inputs": [
            {
              "indexed": false,
              "internalType": "uint256",
              "name": "rideId",
              "type": "uint256"
            },
            {
              "indexed": false,
              "internalType": "string",
              "name": "origin",
              "type": "string"
            },
            {
              "indexed": false,
              "internalType": "string",
              "name": "destination",
              "type": "string"
            },
            {
              "indexed": false,
              "internalType": "uint256",
              "name": "departuretime",
              "type": "uint256"
            },
            {
              "indexed": false,
              "internalType": "uint256",
              "name": "fare",
              "type": "uint256"
            },
            {
              "indexed": false,
              "internalType": "uint256",
              "name": "seats",
              "type": "uint256"
            },
            {
              "indexed": false,
              "internalType": "string",
              "name": "carModel",
              "type": "string"
            },
            {
              "indexed": false,
              "internalType": "string",
              "name": "carNumber",
              "type": "string"
            }
          ],
          "name": "RideCreated",
          "type": "event"
        },
        {
          "anonymous": false,
          "inputs": [
            {
              "indexed": true,
              "internalType": "address",
              "name": "from",
              "type": "address"
            },
            {
              "indexed": true,
              "internalType": "address",
              "name": "to",
              "type": "address"
            },
            {
              "indexed": false,
              "internalType": "uint256",
              "name": "amount",
              "type": "uint256"
            }
          ],
          "name": "RidePaid",
          "type": "event"
        },
        {
          "anonymous": false,
          "inputs": [
            {
              "indexed": false,
              "internalType": "uint256",
              "name": "rideId",
              "type": "uint256"
            },
            {
              "indexed": false,
              "internalType": "address",
              "name": "rider",
              "type": "address"
            },
            {
              "indexed": false,
              "internalType": "uint256",
              "name": "amount",
              "type": "uint256"
            }
          ],
          "name": "RidePaymentReleased",
          "type": "event"
        },
        {
          "inputs": [
            {
              "internalType": "address",
              "name": "",
              "type": "address"
            }
          ],
          "name": "addressDetails",
          "outputs": [
            {
              "internalType": "string",
              "name": "name",
              "type": "string"
            },
            {
              "internalType": "uint8",
              "name": "age",
              "type": "uint8"
            },
            {
              "internalType": "bool",
              "name": "gender",
              "type": "bool"
            }
          ],
          "stateMutability": "view",
          "type": "function"
        },
        {
          "inputs": [
            {
              "internalType": "uint256",
              "name": "rideId",
              "type": "uint256"
            }
          ],
          "name": "allPassengersConfirmed",
          "outputs": [
            {
              "internalType": "bool",
              "name": "",
              "type": "bool"
            }
          ],
          "stateMutability": "view",
          "type": "function"
        },
        {
          "inputs": [
            {
              "internalType": "uint256",
              "name": "_rideId",
              "type": "uint256"
            }
          ],
          "name": "bookRide",
          "outputs": [],
          "stateMutability": "payable",
          "type": "function"
        },
        {
          "inputs": [
            {
              "internalType": "uint256",
              "name": "rideId",
              "type": "uint256"
            }
          ],
          "name": "confirmRideCompleted",
          "outputs": [],
          "stateMutability": "nonpayable",
          "type": "function"
        },
        {
          "inputs": [
            {
              "internalType": "string",
              "name": "_origin",
              "type": "string"
            },
            {
              "internalType": "string",
              "name": "_destination",
              "type": "string"
            },
            {
              "internalType": "uint256",
              "name": "_departuretime",
              "type": "uint256"
            },
            {
              "internalType": "uint256",
              "name": "_fare",
              "type": "uint256"
            },
            {
              "internalType": "uint256",
              "name": "_seats",
              "type": "uint256"
            },
            {
              "internalType": "string",
              "name": "_carModel",
              "type": "string"
            },
            {
              "internalType": "string",
              "name": "_carNumber",
              "type": "string"
            }
          ],
          "name": "createRide",
          "outputs": [],
          "stateMutability": "nonpayable",
          "type": "function"
        },
        {
          "inputs": [
            {
              "internalType": "uint256",
              "name": "rideId",
              "type": "uint256"
            }
          ],
          "name": "deleteRide",
          "outputs": [],
          "stateMutability": "nonpayable",
          "type": "function"
        },
        {
          "inputs": [],
          "name": "getActiveRides",
          "outputs": [
            {
              "components": [
                {
                  "internalType": "uint256",
                  "name": "rideId",
                  "type": "uint256"
                },
                {
                  "internalType": "string",
                  "name": "origin",
                  "type": "string"
                },
                {
                  "internalType": "string",
                  "name": "destination",
                  "type": "string"
                },
                {
                  "internalType": "uint256",
                  "name": "departuretime",
                  "type": "uint256"
                },
                {
                  "internalType": "uint256",
                  "name": "fare",
                  "type": "uint256"
                },
                {
                  "internalType": "uint256",
                  "name": "seats",
                  "type": "uint256"
                },
                {
                  "internalType": "string",
                  "name": "carModel",
                  "type": "string"
                },
                {
                  "internalType": "string",
                  "name": "carNumber",
                  "type": "string"
                },
                {
                  "internalType": "bool",
                  "name": "isActive",
                  "type": "bool"
                }
              ],
              "internalType": "struct carpooling.Ride[]",
              "name": "",
              "type": "tuple[]"
            }
          ],
          "stateMutability": "view",
          "type": "function"
        },
        {
          "inputs": [],
          "name": "getAllRides",
          "outputs": [
            {
              "components": [
                {
                  "internalType": "uint256",
                  "name": "rideId",
                  "type": "uint256"
                },
                {
                  "internalType": "string",
                  "name": "origin",
                  "type": "string"
                },
                {
                  "internalType": "string",
                  "name": "destination",
                  "type": "string"
                },
                {
                  "internalType": "uint256",
                  "name": "departuretime",
                  "type": "uint256"
                },
                {
                  "internalType": "uint256",
                  "name": "fare",
                  "type": "uint256"
                },
                {
                  "internalType": "uint256",
                  "name": "seats",
                  "type": "uint256"
                },
                {
                  "internalType": "string",
                  "name": "carModel",
                  "type": "string"
                },
                {
                  "internalType": "string",
                  "name": "carNumber",
                  "type": "string"
                },
                {
                  "internalType": "bool",
                  "name": "isActive",
                  "type": "bool"
                }
              ],
              "internalType": "struct carpooling.Ride[]",
              "name": "",
              "type": "tuple[]"
            }
          ],
          "stateMutability": "view",
          "type": "function"
        },
        {
          "inputs": [
            {
              "internalType": "uint256",
              "name": "rideId",
              "type": "uint256"
            },
            {
              "internalType": "address",
              "name": "passenger",
              "type": "address"
            }
          ],
          "name": "getPassengerDetails",
          "outputs": [
            {
              "internalType": "string",
              "name": "name",
              "type": "string"
            },
            {
              "internalType": "uint8",
              "name": "age",
              "type": "uint8"
            },
            {
              "internalType": "bool",
              "name": "gender",
              "type": "bool"
            },
            {
              "internalType": "string",
              "name": "origin",
              "type": "string"
            },
            {
              "internalType": "string",
              "name": "destination",
              "type": "string"
            },
            {
              "internalType": "uint256",
              "name": "departureTime",
              "type": "uint256"
            },
            {
              "internalType": "uint256",
              "name": "fare",
              "type": "uint256"
            },
            {
              "internalType": "uint256",
              "name": "seats",
              "type": "uint256"
            }
          ],
          "stateMutability": "view",
          "type": "function"
        },
        {
          "inputs": [
            {
              "internalType": "uint256",
              "name": "_rideId",
              "type": "uint256"
            }
          ],
          "name": "getPassengersForRide",
          "outputs": [
            {
              "internalType": "address[]",
              "name": "",
              "type": "address[]"
            }
          ],
          "stateMutability": "view",
          "type": "function"
        },
        {
          "inputs": [
            {
              "internalType": "address",
              "name": "_user",
              "type": "address"
            }
          ],
          "name": "getUserDetails",
          "outputs": [
            {
              "internalType": "string",
              "name": "",
              "type": "string"
            },
            {
              "internalType": "uint8",
              "name": "",
              "type": "uint8"
            },
            {
              "internalType": "bool",
              "name": "",
              "type": "bool"
            }
          ],
          "stateMutability": "view",
          "type": "function"
        },
        {
          "inputs": [
            {
              "internalType": "string",
              "name": "_name",
              "type": "string"
            },
            {
              "internalType": "uint8",
              "name": "_age",
              "type": "uint8"
            },
            {
              "internalType": "bool",
              "name": "_gender",
              "type": "bool"
            }
          ],
          "name": "newUser",
          "outputs": [],
          "stateMutability": "nonpayable",
          "type": "function"
        },
        {
          "inputs": [
            {
              "internalType": "uint256",
              "name": "",
              "type": "uint256"
            },
            {
              "internalType": "address",
              "name": "",
              "type": "address"
            }
          ],
          "name": "passengerPayments",
          "outputs": [
            {
              "internalType": "uint256",
              "name": "",
              "type": "uint256"
            }
          ],
          "stateMutability": "view",
          "type": "function"
        },
        {
          "inputs": [
            {
              "internalType": "uint256",
              "name": "",
              "type": "uint256"
            },
            {
              "internalType": "uint256",
              "name": "",
              "type": "uint256"
            }
          ],
          "name": "passengersByRide",
          "outputs": [
            {
              "internalType": "address",
              "name": "",
              "type": "address"
            }
          ],
          "stateMutability": "view",
          "type": "function"
        },
        {
          "inputs": [
            {
              "internalType": "uint256",
              "name": "",
              "type": "uint256"
            }
          ],
          "name": "paymentReleased",
          "outputs": [
            {
              "internalType": "bool",
              "name": "",
              "type": "bool"
            }
          ],
          "stateMutability": "view",
          "type": "function"
        },
        {
          "inputs": [
            {
              "internalType": "uint256",
              "name": "rideId",
              "type": "uint256"
            }
          ],
          "name": "releasePaymentToRider",
          "outputs": [],
          "stateMutability": "nonpayable",
          "type": "function"
        },
        {
          "inputs": [
            {
              "internalType": "uint256",
              "name": "",
              "type": "uint256"
            },
            {
              "internalType": "address",
              "name": "",
              "type": "address"
            }
          ],
          "name": "rideCompletedConfirmations",
          "outputs": [
            {
              "internalType": "bool",
              "name": "",
              "type": "bool"
            }
          ],
          "stateMutability": "view",
          "type": "function"
        },
        {
          "inputs": [],
          "name": "rideCount",
          "outputs": [
            {
              "internalType": "uint256",
              "name": "",
              "type": "uint256"
            }
          ],
          "stateMutability": "view",
          "type": "function"
        },
        {
          "inputs": [
            {
              "internalType": "uint256",
              "name": "",
              "type": "uint256"
            }
          ],
          "name": "rideOwner",
          "outputs": [
            {
              "internalType": "address",
              "name": "",
              "type": "address"
            }
          ],
          "stateMutability": "view",
          "type": "function"
        },
        {
          "inputs": [
            {
              "internalType": "uint256",
              "name": "",
              "type": "uint256"
            }
          ],
          "name": "rides",
          "outputs": [
            {
              "internalType": "uint256",
              "name": "rideId",
              "type": "uint256"
            },
            {
              "internalType": "string",
              "name": "origin",
              "type": "string"
            },
            {
              "internalType": "string",
              "name": "destination",
              "type": "string"
            },
            {
              "internalType": "uint256",
              "name": "departuretime",
              "type": "uint256"
            },
            {
              "internalType": "uint256",
              "name": "fare",
              "type": "uint256"
            },
            {
              "internalType": "uint256",
              "name": "seats",
              "type": "uint256"
            },
            {
              "internalType": "string",
              "name": "carModel",
              "type": "string"
            },
            {
              "internalType": "string",
              "name": "carNumber",
              "type": "string"
            },
            {
              "internalType": "bool",
              "name": "isActive",
              "type": "bool"
            }
          ],
          "stateMutability": "view",
          "type": "function"
        },
        {
          "inputs": [
            {
              "internalType": "address",
              "name": "_user",
              "type": "address"
            }
          ],
          "name": "userExists",
          "outputs": [
            {
              "internalType": "bool",
              "name": "",
              "type": "bool"
            }
          ],
          "stateMutability": "view",
          "type": "function"
        }
      ],
      "evm": {
        "bytecode": {
          "linkReferences": {},
          "object": "60806040526000600755348015601457600080fd5b50613943806100246000396000f3fe60806040526004361061012a5760003560e01c8063787660c3116100ab578063b47c18831161006f578063b47c188314610449578063c152291914610474578063c69b2cf6146104b1578063cc3d967b146104cd578063daa256a11461050c578063ebf7a828146105495761012a565b8063787660c3146103375780637e8d519c1461036257806381c05f921461039f57806389b7085a146103dc5780638ed20c74146104055761012a565b80634717bba6116100f25780634717bba6146102265780635205f1121461024f578063650fbb7c146102945780636b5acaa5146102d15780636d04b3c41461030e5761012a565b80630dcc2fb71461012f5780630e666e491461015a5780631740d5ae146101975780633177fdd7146101c05780633c70c157146101fd575b600080fd5b34801561013b57600080fd5b50610144610588565b60405161015191906127c8565b60405180910390f35b34801561016657600080fd5b50610181600480360381019061017c919061285c565b61098e565b60405161018e9190612898565b60405180910390f35b3480156101a357600080fd5b506101be60048036038101906101b991906128df565b6109e7565b005b3480156101cc57600080fd5b506101e760048036038101906101e2919061290c565b610e09565b6040516101f4919061295b565b60405180910390f35b34801561020957600080fd5b50610224600480360381019061021f91906128df565b610e2e565b005b34801561023257600080fd5b5061024d60048036038101906102489190612b10565b610f57565b005b34801561025b57600080fd5b50610276600480360381019061027191906128df565b611014565b60405161028b99989796959493929190612bc9565b60405180910390f35b3480156102a057600080fd5b506102bb60048036038101906102b691906128df565b61129f565b6040516102c89190612d30565b60405180910390f35b3480156102dd57600080fd5b506102f860048036038101906102f391906128df565b611340565b6040516103059190612898565b60405180910390f35b34801561031a57600080fd5b50610335600480360381019061033091906128df565b611489565b005b34801561034357600080fd5b5061034c61168b565b60405161035991906127c8565b60405180910390f35b34801561036e57600080fd5b5061038960048036038101906103849190612d52565b611976565b6040516103969190612da1565b60405180910390f35b3480156103ab57600080fd5b506103c660048036038101906103c191906128df565b6119c4565b6040516103d39190612da1565b60405180910390f35b3480156103e857600080fd5b5061040360048036038101906103fe9190612dbc565b6119f7565b005b34801561041157600080fd5b5061042c6004803603810190610427919061290c565b611bc6565b604051610440989796959493929190612edd565b60405180910390f35b34801561045557600080fd5b5061045e611fed565b60405161046b919061295b565b60405180910390f35b34801561048057600080fd5b5061049b600480360381019061049691906128df565b611ff3565b6040516104a89190612898565b60405180910390f35b6104cb60048036038101906104c691906128df565b612013565b005b3480156104d957600080fd5b506104f460048036038101906104ef919061285c565b6122e6565b60405161050393929190612f70565b60405180910390f35b34801561051857600080fd5b50610533600480360381019061052e919061290c565b61241f565b6040516105409190612898565b60405180910390f35b34801561055557600080fd5b50610570600480360381019061056b919061285c565b61244e565b60405161057f93929190612f70565b60405180910390f35b60606000805b6006805490508110156105ef57600681815481106105af576105ae612fae565b5b906000526020600020906009020160080160009054906101000a900460ff16156105e25781806105de9061300c565b9250505b808060010191505061058e565b5060008167ffffffffffffffff81111561060c5761060b612980565b5b60405190808252806020026020018201604052801561064557816020015b61063261251a565b81526020019060019003908161062a5790505b5090506000805b600680549050811015610984576006818154811061066d5761066c612fae565b5b906000526020600020906009020160080160009054906101000a900460ff161561097757600681815481106106a5576106a4612fae565b5b906000526020600020906009020160405180610120016040529081600082015481526020016001820180546106d990613083565b80601f016020809104026020016040519081016040528092919081815260200182805461070590613083565b80156107525780601f1061072757610100808354040283529160200191610752565b820191906000526020600020905b81548152906001019060200180831161073557829003601f168201915b5050505050815260200160028201805461076b90613083565b80601f016020809104026020016040519081016040528092919081815260200182805461079790613083565b80156107e45780601f106107b9576101008083540402835291602001916107e4565b820191906000526020600020905b8154815290600101906020018083116107c757829003601f168201915b5050505050815260200160038201548152602001600482015481526020016005820154815260200160068201805461081b90613083565b80601f016020809104026020016040519081016040528092919081815260200182805461084790613083565b80156108945780601f1061086957610100808354040283529160200191610894565b820191906000526020600020905b81548152906001019060200180831161087757829003601f168201915b505050505081526020016007820180546108ad90613083565b80601f01602080910402602001604051908101604052809291908181526020018280546108d990613083565b80156109265780601f106108fb57610100808354040283529160200191610926565b820191906000526020600020905b81548152906001019060200180831161090957829003601f168201915b505050505081526020016008820160009054906101000a900460ff16151515158152505083838151811061095d5761095c612fae565b5b602002602001018190525081806109739061300c565b9250505b808060010191505061064c565b5081935050505090565b6000806000808473ffffffffffffffffffffffffffffffffffffffff1673ffffffffffffffffffffffffffffffffffffffff16815260200190815260200160002060000180546109dd90613083565b9050119050919050565b6006805490508110610a2e576040517f08c379a0000000000000000000000000000000000000000000000000000000008152600401610a2590613100565b60405180910390fd5b610a3781611340565b610a76576040517f08c379a0000000000000000000000000000000000000000000000000000000008152600401610a6d90613192565b60405180910390fd5b6001600082815260200190815260200160002060009054906101000a900473ffffffffffffffffffffffffffffffffffffffff1673ffffffffffffffffffffffffffffffffffffffff163373ffffffffffffffffffffffffffffffffffffffff1614610b17576040517f08c379a0000000000000000000000000000000000000000000000000000000008152600401610b0e906131fe565b60405180910390fd5b6003600082815260200190815260200160002060009054906101000a900460ff1615610b78576040517f08c379a0000000000000000000000000000000000000000000000000000000008152600401610b6f9061326a565b60405180910390fd5b600060026000838152602001908152602001600020805480602002602001604051908101604052809291908181526020018280548015610c0d57602002820191906000526020600020905b8160009054906101000a900473ffffffffffffffffffffffffffffffffffffffff1673ffffffffffffffffffffffffffffffffffffffff1681526020019060010190808311610bc3575b505050505090506000805b8251811015610d12576000838281518110610c3657610c35612fae565b5b6020026020010151905060006004600087815260200190815260200160002060008373ffffffffffffffffffffffffffffffffffffffff1673ffffffffffffffffffffffffffffffffffffffff1681526020019081526020016000205490506000811115610d035760006004600088815260200190815260200160002060008473ffffffffffffffffffffffffffffffffffffffff1673ffffffffffffffffffffffffffffffffffffffff168152602001908152602001600020819055508084610d00919061328a565b93505b50508080600101915050610c18565b5060008111610d56576040517f08c379a0000000000000000000000000000000000000000000000000000000008152600401610d4d9061330a565b60405180910390fd5b60016003600085815260200190815260200160002060006101000a81548160ff0219169083151502179055503373ffffffffffffffffffffffffffffffffffffffff166108fc829081150290604051600060405180830381858888f19350505050158015610dc8573d6000803e3d6000fd5b507f0d490bb0c09fc0aa67ea0e5bf22e57c5adb6d80867b3db228f1a446f3936f7fb833383604051610dfc9392919061332a565b60405180910390a1505050565b6004602052816000526040600020602052806000526040600020600091509150505481565b6006805490508110610e75576040517f08c379a0000000000000000000000000000000000000000000000000000000008152600401610e6c90613100565b60405180910390fd5b6001600082815260200190815260200160002060009054906101000a900473ffffffffffffffffffffffffffffffffffffffff1673ffffffffffffffffffffffffffffffffffffffff163373ffffffffffffffffffffffffffffffffffffffff1614610f16576040517f08c379a0000000000000000000000000000000000000000000000000000000008152600401610f0d906133d3565b60405180910390fd5b600060068281548110610f2c57610f2b612fae565b5b906000526020600020906009020160080160006101000a81548160ff02191690831515021790555050565b60405180606001604052808481526020018360ff1681526020018215158152506000803373ffffffffffffffffffffffffffffffffffffffff1673ffffffffffffffffffffffffffffffffffffffff1681526020019081526020016000206000820151816000019081610fca919061359f565b5060208201518160010160006101000a81548160ff021916908360ff16021790555060408201518160010160016101000a81548160ff021916908315150217905550905050505050565b6006818154811061102457600080fd5b906000526020600020906009020160009150905080600001549080600101805461104d90613083565b80601f016020809104026020016040519081016040528092919081815260200182805461107990613083565b80156110c65780601f1061109b576101008083540402835291602001916110c6565b820191906000526020600020905b8154815290600101906020018083116110a957829003601f168201915b5050505050908060020180546110db90613083565b80601f016020809104026020016040519081016040528092919081815260200182805461110790613083565b80156111545780601f1061112957610100808354040283529160200191611154565b820191906000526020600020905b81548152906001019060200180831161113757829003601f168201915b50505050509080600301549080600401549080600501549080600601805461117b90613083565b80601f01602080910402602001604051908101604052809291908181526020018280546111a790613083565b80156111f45780601f106111c9576101008083540402835291602001916111f4565b820191906000526020600020905b8154815290600101906020018083116111d757829003601f168201915b50505050509080600701805461120990613083565b80601f016020809104026020016040519081016040528092919081815260200182805461123590613083565b80156112825780601f1061125757610100808354040283529160200191611282565b820191906000526020600020905b81548152906001019060200180831161126557829003601f168201915b5050505050908060080160009054906101000a900460ff16905089565b60606002600083815260200190815260200160002080548060200260200160405190810160405280929190818152602001828054801561133457602002820191906000526020600020905b8160009054906101000a900473ffffffffffffffffffffffffffffffffffffffff1673ffffffffffffffffffffffffffffffffffffffff16815260200190600101908083116112ea575b50505050509050919050565b600080600260008481526020019081526020016000208054806020026020016040519081016040528092919081815260200182805480156113d657602002820191906000526020600020905b8160009054906101000a900473ffffffffffffffffffffffffffffffffffffffff1673ffffffffffffffffffffffffffffffffffffffff168152602001906001019080831161138c575b5050505050905060005b815181101561147d5760056000858152602001908152602001600020600083838151811061141157611410612fae565b5b602002602001015173ffffffffffffffffffffffffffffffffffffffff1673ffffffffffffffffffffffffffffffffffffffff16815260200190815260200160002060009054906101000a900460ff1661147057600092505050611484565b80806001019150506113e0565b5060019150505b919050565b60068054905081106114d0576040517f08c379a00000000000000000000000000000000000000000000000000000000081526004016114c790613100565b60405180910390fd5b60006002600083815260200190815260200160002080548060200260200160405190810160405280929190818152602001828054801561156557602002820191906000526020600020905b8160009054906101000a900473ffffffffffffffffffffffffffffffffffffffff1673ffffffffffffffffffffffffffffffffffffffff168152602001906001019080831161151b575b505050505090506000805b82518110156115dc573373ffffffffffffffffffffffffffffffffffffffff168382815181106115a3576115a2612fae565b5b602002602001015173ffffffffffffffffffffffffffffffffffffffff16036115cf57600191506115dc565b8080600101915050611570565b508061161d576040517f08c379a0000000000000000000000000000000000000000000000000000000008152600401611614906136bd565b60405180910390fd5b60016005600085815260200190815260200160002060003373ffffffffffffffffffffffffffffffffffffffff1673ffffffffffffffffffffffffffffffffffffffff16815260200190815260200160002060006101000a81548160ff021916908315150217905550505050565b60606006805480602002602001604051908101604052809291908181526020016000905b8282101561196d578382906000526020600020906009020160405180610120016040529081600082015481526020016001820180546116ed90613083565b80601f016020809104026020016040519081016040528092919081815260200182805461171990613083565b80156117665780601f1061173b57610100808354040283529160200191611766565b820191906000526020600020905b81548152906001019060200180831161174957829003601f168201915b5050505050815260200160028201805461177f90613083565b80601f01602080910402602001604051908101604052809291908181526020018280546117ab90613083565b80156117f85780601f106117cd576101008083540402835291602001916117f8565b820191906000526020600020905b8154815290600101906020018083116117db57829003601f168201915b5050505050815260200160038201548152602001600482015481526020016005820154815260200160068201805461182f90613083565b80601f016020809104026020016040519081016040528092919081815260200182805461185b90613083565b80156118a85780601f1061187d576101008083540402835291602001916118a8565b820191906000526020600020905b81548152906001019060200180831161188b57829003601f168201915b505050505081526020016007820180546118c190613083565b80601f01602080910402602001604051908101604052809291908181526020018280546118ed90613083565b801561193a5780601f1061190f5761010080835404028352916020019161193a565b820191906000526020600020905b81548152906001019060200180831161191d57829003601f168201915b505050505081526020016008820160009054906101000a900460ff161515151581525050815260200190600101906116af565b50505050905090565b6002602052816000526040600020818154811061199257600080fd5b906000526020600020016000915091509054906101000a900473ffffffffffffffffffffffffffffffffffffffff1681565b60016020528060005260406000206000915054906101000a900473ffffffffffffffffffffffffffffffffffffffff1681565b60066040518061012001604052806007548152602001898152602001888152602001878152602001868152602001858152602001848152602001838152602001600115158152509080600181540180825580915050600190039060005260206000209060090201600090919091909150600082015181600001556020820151816001019081611a86919061359f565b506040820151816002019081611a9c919061359f565b50606082015181600301556080820151816004015560a0820151816005015560c0820151816006019081611ad0919061359f565b5060e0820151816007019081611ae6919061359f565b506101008201518160080160006101000a81548160ff02191690831515021790555050503360016000600754815260200190815260200160002060006101000a81548173ffffffffffffffffffffffffffffffffffffffff021916908373ffffffffffffffffffffffffffffffffffffffff1602179055507f50ec692c37ef92db184dba2e36f72c23f1e98d2288ed07021995c307205dbd6860075488888888888888604051611b9d9897969594939291906136dd565b60405180910390a160076000815480929190611bb89061300c565b919050555050505050505050565b60606000806060806000806000806000808b73ffffffffffffffffffffffffffffffffffffffff1673ffffffffffffffffffffffffffffffffffffffff168152602001908152602001600020604051806060016040529081600082018054611c2d90613083565b80601f0160208091040260200160405190810160405280929190818152602001828054611c5990613083565b8015611ca65780601f10611c7b57610100808354040283529160200191611ca6565b820191906000526020600020905b815481529060010190602001808311611c8957829003601f168201915b505050505081526020016001820160009054906101000a900460ff1660ff1660ff1681526020016001820160019054906101000a900460ff1615151515815250509050600060068c81548110611cff57611cfe612fae565b5b90600052602060002090600902016040518061012001604052908160008201548152602001600182018054611d3390613083565b80601f0160208091040260200160405190810160405280929190818152602001828054611d5f90613083565b8015611dac5780601f10611d8157610100808354040283529160200191611dac565b820191906000526020600020905b815481529060010190602001808311611d8f57829003601f168201915b50505050508152602001600282018054611dc590613083565b80601f0160208091040260200160405190810160405280929190818152602001828054611df190613083565b8015611e3e5780601f10611e1357610100808354040283529160200191611e3e565b820191906000526020600020905b815481529060010190602001808311611e2157829003601f168201915b50505050508152602001600382015481526020016004820154815260200160058201548152602001600682018054611e7590613083565b80601f0160208091040260200160405190810160405280929190818152602001828054611ea190613083565b8015611eee5780601f10611ec357610100808354040283529160200191611eee565b820191906000526020600020905b815481529060010190602001808311611ed157829003601f168201915b50505050508152602001600782018054611f0790613083565b80601f0160208091040260200160405190810160405280929190818152602001828054611f3390613083565b8015611f805780601f10611f5557610100808354040283529160200191611f80565b820191906000526020600020905b815481529060010190602001808311611f6357829003601f168201915b505050505081526020016008820160009054906101000a900460ff161515151581525050905081600001518260200151836040015183602001518460400151856060015186608001518760a001519950995099509950995099509950995050509295985092959890939650565b60075481565b60036020528060005260406000206000915054906101000a900460ff1681565b600680549050811061205a576040517f08c379a0000000000000000000000000000000000000000000000000000000008152600401612051906137c3565b60405180910390fd5b6000600682815481106120705761206f612fae565b5b906000526020600020906009020160050154116120c2576040517f08c379a00000000000000000000000000000000000000000000000000000000081526004016120b99061382f565b60405180910390fd5b6000600682815481106120d8576120d7612fae565b5b906000526020600020906009020190508060040154341461212e576040517f08c379a00000000000000000000000000000000000000000000000000000000081526004016121259061389b565b60405180910390fd5b806005016000815480929190612143906138bb565b919050555060026000838152602001908152602001600020339080600181540180825580915050600190039060005260206000200160009091909190916101000a81548173ffffffffffffffffffffffffffffffffffffffff021916908373ffffffffffffffffffffffffffffffffffffffff160217905550346004600084815260200190815260200160002060003373ffffffffffffffffffffffffffffffffffffffff1673ffffffffffffffffffffffffffffffffffffffff168152602001908152602001600020819055506001600083815260200190815260200160002060009054906101000a900473ffffffffffffffffffffffffffffffffffffffff1673ffffffffffffffffffffffffffffffffffffffff163373ffffffffffffffffffffffffffffffffffffffff167f959dfdd606796d8b4f43f5579aa99e6f5c44c5090591ebff34a84d020d210410346040516122a1919061295b565b60405180910390a37f65394bc371dbe55ca40e19310c8a935b039bf28367787cfaeeecfe3361bf18a082336040516122da9291906138e4565b60405180910390a15050565b606060008060008060008673ffffffffffffffffffffffffffffffffffffffff1673ffffffffffffffffffffffffffffffffffffffff16815260200190815260200160002060405180606001604052908160008201805461234690613083565b80601f016020809104026020016040519081016040528092919081815260200182805461237290613083565b80156123bf5780601f10612394576101008083540402835291602001916123bf565b820191906000526020600020905b8154815290600101906020018083116123a257829003601f168201915b505050505081526020016001820160009054906101000a900460ff1660ff1660ff1681526020016001820160019054906101000a900460ff1615151515815250509050806000015181602001518260400151935093509350509193909250565b60056020528160005260406000206020528060005260406000206000915091509054906101000a900460ff1681565b600060205280600052604060002060009150905080600001805461247190613083565b80601f016020809104026020016040519081016040528092919081815260200182805461249d90613083565b80156124ea5780601f106124bf576101008083540402835291602001916124ea565b820191906000526020600020905b8154815290600101906020018083116124cd57829003601f168201915b5050505050908060010160009054906101000a900460ff16908060010160019054906101000a900460ff16905083565b60405180610120016040528060008152602001606081526020016060815260200160008152602001600081526020016000815260200160608152602001606081526020016000151581525090565b600081519050919050565b600082825260208201905092915050565b6000819050602082019050919050565b6000819050919050565b6125a781612594565b82525050565b600081519050919050565b600082825260208201905092915050565b60005b838110156125e75780820151818401526020810190506125cc565b60008484015250505050565b6000601f19601f8301169050919050565b600061260f826125ad565b61261981856125b8565b93506126298185602086016125c9565b612632816125f3565b840191505092915050565b60008115159050919050565b6126528161263d565b82525050565b600061012083016000830151612671600086018261259e565b50602083015184820360208601526126898282612604565b915050604083015184820360408601526126a38282612604565b91505060608301516126b8606086018261259e565b5060808301516126cb608086018261259e565b5060a08301516126de60a086018261259e565b5060c083015184820360c08601526126f68282612604565b91505060e083015184820360e08601526127108282612604565b915050610100830151612727610100860182612649565b508091505092915050565b600061273e8383612658565b905092915050565b6000602082019050919050565b600061275e82612568565b6127688185612573565b93508360208202850161277a85612584565b8060005b858110156127b657848403895281516127978582612732565b94506127a283612746565b925060208a0199505060018101905061277e565b50829750879550505050505092915050565b600060208201905081810360008301526127e28184612753565b905092915050565b6000604051905090565b600080fd5b600080fd5b600073ffffffffffffffffffffffffffffffffffffffff82169050919050565b6000612829826127fe565b9050919050565b6128398161281e565b811461284457600080fd5b50565b60008135905061285681612830565b92915050565b600060208284031215612872576128716127f4565b5b600061288084828501612847565b91505092915050565b6128928161263d565b82525050565b60006020820190506128ad6000830184612889565b92915050565b6128bc81612594565b81146128c757600080fd5b50565b6000813590506128d9816128b3565b92915050565b6000602082840312156128f5576128f46127f4565b5b6000612903848285016128ca565b91505092915050565b60008060408385031215612923576129226127f4565b5b6000612931858286016128ca565b925050602061294285828601612847565b9150509250929050565b61295581612594565b82525050565b6000602082019050612970600083018461294c565b92915050565b600080fd5b600080fd5b7f4e487b7100000000000000000000000000000000000000000000000000000000600052604160045260246000fd5b6129b8826125f3565b810181811067ffffffffffffffff821117156129d7576129d6612980565b5b80604052505050565b60006129ea6127ea565b90506129f682826129af565b919050565b600067ffffffffffffffff821115612a1657612a15612980565b5b612a1f826125f3565b9050602081019050919050565b82818337600083830152505050565b6000612a4e612a49846129fb565b6129e0565b905082815260208101848484011115612a6a57612a6961297b565b5b612a75848285612a2c565b509392505050565b600082601f830112612a9257612a91612976565b5b8135612aa2848260208601612a3b565b91505092915050565b600060ff82169050919050565b612ac181612aab565b8114612acc57600080fd5b50565b600081359050612ade81612ab8565b92915050565b612aed8161263d565b8114612af857600080fd5b50565b600081359050612b0a81612ae4565b92915050565b600080600060608486031215612b2957612b286127f4565b5b600084013567ffffffffffffffff811115612b4757612b466127f9565b5b612b5386828701612a7d565b9350506020612b6486828701612acf565b9250506040612b7586828701612afb565b9150509250925092565b600082825260208201905092915050565b6000612b9b826125ad565b612ba58185612b7f565b9350612bb58185602086016125c9565b612bbe816125f3565b840191505092915050565b600061012082019050612bdf600083018c61294c565b8181036020830152612bf1818b612b90565b90508181036040830152612c05818a612b90565b9050612c14606083018961294c565b612c21608083018861294c565b612c2e60a083018761294c565b81810360c0830152612c408186612b90565b905081810360e0830152612c548185612b90565b9050612c64610100830184612889565b9a9950505050505050505050565b600081519050919050565b600082825260208201905092915050565b6000819050602082019050919050565b612ca78161281e565b82525050565b6000612cb98383612c9e565b60208301905092915050565b6000602082019050919050565b6000612cdd82612c72565b612ce78185612c7d565b9350612cf283612c8e565b8060005b83811015612d23578151612d0a8882612cad565b9750612d1583612cc5565b925050600181019050612cf6565b5085935050505092915050565b60006020820190508181036000830152612d4a8184612cd2565b905092915050565b60008060408385031215612d6957612d686127f4565b5b6000612d77858286016128ca565b9250506020612d88858286016128ca565b9150509250929050565b612d9b8161281e565b82525050565b6000602082019050612db66000830184612d92565b92915050565b600080600080600080600060e0888a031215612ddb57612dda6127f4565b5b600088013567ffffffffffffffff811115612df957612df86127f9565b5b612e058a828b01612a7d565b975050602088013567ffffffffffffffff811115612e2657612e256127f9565b5b612e328a828b01612a7d565b9650506040612e438a828b016128ca565b9550506060612e548a828b016128ca565b9450506080612e658a828b016128ca565b93505060a088013567ffffffffffffffff811115612e8657612e856127f9565b5b612e928a828b01612a7d565b92505060c088013567ffffffffffffffff811115612eb357612eb26127f9565b5b612ebf8a828b01612a7d565b91505092959891949750929550565b612ed781612aab565b82525050565b6000610100820190508181036000830152612ef8818b612b90565b9050612f07602083018a612ece565b612f146040830189612889565b8181036060830152612f268188612b90565b90508181036080830152612f3a8187612b90565b9050612f4960a083018661294c565b612f5660c083018561294c565b612f6360e083018461294c565b9998505050505050505050565b60006060820190508181036000830152612f8a8186612b90565b9050612f996020830185612ece565b612fa66040830184612889565b949350505050565b7f4e487b7100000000000000000000000000000000000000000000000000000000600052603260045260246000fd5b7f4e487b7100000000000000000000000000000000000000000000000000000000600052601160045260246000fd5b600061301782612594565b91507fffffffffffffffffffffffffffffffffffffffffffffffffffffffffffffffff820361304957613048612fdd565b5b600182019050919050565b7f4e487b7100000000000000000000000000000000000000000000000000000000600052602260045260246000fd5b6000600282049050600182168061309b57607f821691505b6020821081036130ae576130ad613054565b5b50919050565b7f496e76616c696420726964652049440000000000000000000000000000000000600082015250565b60006130ea600f83612b7f565b91506130f5826130b4565b602082019050919050565b60006020820190508181036000830152613119816130dd565b9050919050565b7f50617373656e6765727320686176656e277420616c6c20636f6e6669726d656460008201527f20726964652e0000000000000000000000000000000000000000000000000000602082015250565b600061317c602683612b7f565b915061318782613120565b604082019050919050565b600060208201905081810360008301526131ab8161316f565b9050919050565b7f4f6e6c792072696465722063616e207769746864726177000000000000000000600082015250565b60006131e8601783612b7f565b91506131f3826131b2565b602082019050919050565b60006020820190508181036000830152613217816131db565b9050919050565b7f5061796d656e7420616c72656164792072656c65617365640000000000000000600082015250565b6000613254601883612b7f565b915061325f8261321e565b602082019050919050565b6000602082019050818103600083015261328381613247565b9050919050565b600061329582612594565b91506132a083612594565b92508282019050808211156132b8576132b7612fdd565b5b92915050565b7f4e6f20666172657320746f207769746864726177000000000000000000000000600082015250565b60006132f4601483612b7f565b91506132ff826132be565b602082019050919050565b60006020820190508181036000830152613323816132e7565b9050919050565b600060608201905061333f600083018661294c565b61334c6020830185612d92565b613359604083018461294c565b949350505050565b7f4f6e6c792072696465206f776e65722063616e2064656c65746520746865207260008201527f6964650000000000000000000000000000000000000000000000000000000000602082015250565b60006133bd602383612b7f565b91506133c882613361565b604082019050919050565b600060208201905081810360008301526133ec816133b0565b9050919050565b60008190508160005260206000209050919050565b60006020601f8301049050919050565b600082821b905092915050565b6000600883026134557fffffffffffffffffffffffffffffffffffffffffffffffffffffffffffffffff82613418565b61345f8683613418565b95508019841693508086168417925050509392505050565b6000819050919050565b600061349c61349761349284612594565b613477565b612594565b9050919050565b6000819050919050565b6134b683613481565b6134ca6134c2826134a3565b848454613425565b825550505050565b600090565b6134df6134d2565b6134ea8184846134ad565b505050565b5b8181101561350e576135036000826134d7565b6001810190506134f0565b5050565b601f82111561355357613524816133f3565b61352d84613408565b8101602085101561353c578190505b61355061354885613408565b8301826134ef565b50505b505050565b600082821c905092915050565b600061357660001984600802613558565b1980831691505092915050565b600061358f8383613565565b9150826002028217905092915050565b6135a8826125ad565b67ffffffffffffffff8111156135c1576135c0612980565b5b6135cb8254613083565b6135d6828285613512565b600060209050601f83116001811461360957600084156135f7578287015190505b6136018582613583565b865550613669565b601f198416613617866133f3565b60005b8281101561363f5784890151825560018201915060208501945060208101905061361a565b8683101561365c5784890151613658601f891682613565565b8355505b6001600288020188555050505b505050505050565b7f4e6f7420612070617373656e67657220666f7220746869732072696465000000600082015250565b60006136a7601d83612b7f565b91506136b282613671565b602082019050919050565b600060208201905081810360008301526136d68161369a565b9050919050565b6000610100820190506136f3600083018b61294c565b8181036020830152613705818a612b90565b905081810360408301526137198189612b90565b9050613728606083018861294c565b613735608083018761294c565b61374260a083018661294c565b81810360c08301526137548185612b90565b905081810360e08301526137688184612b90565b90509998505050505050505050565b7f5269646520646f6573206e6f7420657869737400000000000000000000000000600082015250565b60006137ad601383612b7f565b91506137b882613777565b602082019050919050565b600060208201905081810360008301526137dc816137a0565b9050919050565b7f4e6f20736561747320617661696c61626c650000000000000000000000000000600082015250565b6000613819601283612b7f565b9150613824826137e3565b602082019050919050565b600060208201905081810360008301526138488161380c565b9050919050565b7f496e636f727265637420666172652073656e7400000000000000000000000000600082015250565b6000613885601383612b7f565b91506138908261384f565b602082019050919050565b600060208201905081810360008301526138b481613878565b9050919050565b60006138c682612594565b9150600082036138d9576138d8612fdd565b5b600182039050919050565b60006040820190506138f9600083018561294c565b6139066020830184612d92565b939250505056fea26469706673582212202c3bb7384b93b49c00309eff8e5279d5d7afd4192aaf588a55f10c56b783130464736f6c634300081c0033",
          "opcodes": "PUSH1 0x80 PUSH1 0x40 MSTORE PUSH1 0x0 PUSH1 0x7 SSTORE CALLVALUE DUP1 ISZERO PUSH1 0x14 JUMPI PUSH1 0x0 DUP1 REVERT JUMPDEST POP PUSH2 0x3943 DUP1 PUSH2 0x24 PUSH1 0x0 CODECOPY PUSH1 0x0 RETURN INVALID PUSH1 0x80 PUSH1 0x40 MSTORE PUSH1 0x4 CALLDATASIZE LT PUSH2 0x12A JUMPI PUSH1 0x0 CALLDATALOAD PUSH1 0xE0 SHR DUP1 PUSH4 0x787660C3 GT PUSH2 0xAB JUMPI DUP1 PUSH4 0xB47C1883 GT PUSH2 0x6F JUMPI DUP1 PUSH4 0xB47C1883 EQ PUSH2 0x449 JUMPI DUP1 PUSH4 0xC1522919 EQ PUSH2 0x474 JUMPI DUP1 PUSH4 0xC69B2CF6 EQ PUSH2 0x4B1 JUMPI DUP1 PUSH4 0xCC3D967B EQ PUSH2 0x4CD JUMPI DUP1 PUSH4 0xDAA256A1 EQ PUSH2 0x50C JUMPI DUP1 PUSH4 0xEBF7A828 EQ PUSH2 0x549 JUMPI PUSH2 0x12A JUMP JUMPDEST DUP1 PUSH4 0x787660C3 EQ PUSH2 0x337 JUMPI DUP1 PUSH4 0x7E8D519C EQ PUSH2 0x362 JUMPI DUP1 PUSH4 0x81C05F92 EQ PUSH2 0x39F JUMPI DUP1 PUSH4 0x89B7085A EQ PUSH2 0x3DC JUMPI DUP1 PUSH4 0x8ED20C74 EQ PUSH2 0x405 JUMPI PUSH2 0x12A JUMP JUMPDEST DUP1 PUSH4 0x4717BBA6 GT PUSH2 0xF2 JUMPI DUP1 PUSH4 0x4717BBA6 EQ PUSH2 0x226 JUMPI DUP1 PUSH4 0x5205F112 EQ PUSH2 0x24F JUMPI DUP1 PUSH4 0x650FBB7C EQ PUSH2 0x294 JUMPI DUP1 PUSH4 0x6B5ACAA5 EQ PUSH2 0x2D1 JUMPI DUP1 PUSH4 0x6D04B3C4 EQ PUSH2 0x30E JUMPI PUSH2 0x12A JUMP JUMPDEST DUP1 PUSH4 0xDCC2FB7 EQ PUSH2 0x12F JUMPI DUP1 PUSH4 0xE666E49 EQ PUSH2 0x15A JUMPI DUP1 PUSH4 0x1740D5AE EQ PUSH2 0x197 JUMPI DUP1 PUSH4 0x3177FDD7 EQ PUSH2 0x1C0 JUMPI DUP1 PUSH4 0x3C70C157 EQ PUSH2 0x1FD JUMPI JUMPDEST PUSH1 0x0 DUP1 REVERT JUMPDEST CALLVALUE DUP1 ISZERO PUSH2 0x13B JUMPI PUSH1 0x0 DUP1 REVERT JUMPDEST POP PUSH2 0x144 PUSH2 0x588 JUMP JUMPDEST PUSH1 0x40 MLOAD PUSH2 0x151 SWAP2 SWAP1 PUSH2 0x27C8 JUMP JUMPDEST PUSH1 0x40 MLOAD DUP1 SWAP2 SUB SWAP1 RETURN JUMPDEST CALLVALUE DUP1 ISZERO PUSH2 0x166 JUMPI PUSH1 0x0 DUP1 REVERT JUMPDEST POP PUSH2 0x181 PUSH1 0x4 DUP1 CALLDATASIZE SUB DUP2 ADD SWAP1 PUSH2 0x17C SWAP2 SWAP1 PUSH2 0x285C JUMP JUMPDEST PUSH2 0x98E JUMP JUMPDEST PUSH1 0x40 MLOAD PUSH2 0x18E SWAP2 SWAP1 PUSH2 0x2898 JUMP JUMPDEST PUSH1 0x40 MLOAD DUP1 SWAP2 SUB SWAP1 RETURN JUMPDEST CALLVALUE DUP1 ISZERO PUSH2 0x1A3 JUMPI PUSH1 0x0 DUP1 REVERT JUMPDEST POP PUSH2 0x1BE PUSH1 0x4 DUP1 CALLDATASIZE SUB DUP2 ADD SWAP1 PUSH2 0x1B9 SWAP2 SWAP1 PUSH2 0x28DF JUMP JUMPDEST PUSH2 0x9E7 JUMP JUMPDEST STOP JUMPDEST CALLVALUE DUP1 ISZERO PUSH2 0x1CC JUMPI PUSH1 0x0 DUP1 REVERT JUMPDEST POP PUSH2 0x1E7 PUSH1 0x4 DUP1 CALLDATASIZE SUB DUP2 ADD SWAP1 PUSH2 0x1E2 SWAP2 SWAP1 PUSH2 0x290C JUMP JUMPDEST PUSH2 0xE09 JUMP JUMPDEST PUSH1 0x40 MLOAD PUSH2 0x1F4 SWAP2 SWAP1 PUSH2 0x295B JUMP JUMPDEST PUSH1 0x40 MLOAD DUP1 SWAP2 SUB SWAP1 RETURN JUMPDEST CALLVALUE DUP1 ISZERO PUSH2 0x209 JUMPI PUSH1 0x0 DUP1 REVERT JUMPDEST POP PUSH2 0x224 PUSH1 0x4 DUP1 CALLDATASIZE SUB DUP2 ADD SWAP1 PUSH2 0x21F SWAP2 SWAP1 PUSH2 0x28DF JUMP JUMPDEST PUSH2 0xE2E JUMP JUMPDEST STOP JUMPDEST CALLVALUE DUP1 ISZERO PUSH2 0x232 JUMPI PUSH1 0x0 DUP1 REVERT JUMPDEST POP PUSH2 0x24D PUSH1 0x4 DUP1 CALLDATASIZE SUB DUP2 ADD SWAP1 PUSH2 0x248 SWAP2 SWAP1 PUSH2 0x2B10 JUMP JUMPDEST PUSH2 0xF57 JUMP JUMPDEST STOP JUMPDEST CALLVALUE DUP1 ISZERO PUSH2 0x25B JUMPI PUSH1 0x0 DUP1 REVERT JUMPDEST POP PUSH2 0x276 PUSH1 0x4 DUP1 CALLDATASIZE SUB DUP2 ADD SWAP1 PUSH2 0x271 SWAP2 SWAP1 PUSH2 0x28DF JUMP JUMPDEST PUSH2 0x1014 JUMP JUMPDEST PUSH1 0x40 MLOAD PUSH2 0x28B SWAP10 SWAP9 SWAP8 SWAP7 SWAP6 SWAP5 SWAP4 SWAP3 SWAP2 SWAP1 PUSH2 0x2BC9 JUMP JUMPDEST PUSH1 0x40 MLOAD DUP1 SWAP2 SUB SWAP1 RETURN JUMPDEST CALLVALUE DUP1 ISZERO PUSH2 0x2A0 JUMPI PUSH1 0x0 DUP1 REVERT JUMPDEST POP PUSH2 0x2BB PUSH1 0x4 DUP1 CALLDATASIZE SUB DUP2 ADD SWAP1 PUSH2 0x2B6 SWAP2 SWAP1 PUSH2 0x28DF JUMP JUMPDEST PUSH2 0x129F JUMP JUMPDEST PUSH1 0x40 MLOAD PUSH2 0x2C8 SWAP2 SWAP1 PUSH2 0x2D30 JUMP JUMPDEST PUSH1 0x40 MLOAD DUP1 SWAP2 SUB SWAP1 RETURN JUMPDEST CALLVALUE DUP1 ISZERO PUSH2 0x2DD JUMPI PUSH1 0x0 DUP1 REVERT JUMPDEST POP PUSH2 0x2F8 PUSH1 0x4 DUP1 CALLDATASIZE SUB DUP2 ADD SWAP1 PUSH2 0x2F3 SWAP2 SWAP1 PUSH2 0x28DF JUMP JUMPDEST PUSH2 0x1340 JUMP JUMPDEST PUSH1 0x40 MLOAD PUSH2 0x305 SWAP2 SWAP1 PUSH2 0x2898 JUMP JUMPDEST PUSH1 0x40 MLOAD DUP1 SWAP2 SUB SWAP1 RETURN JUMPDEST CALLVALUE DUP1 ISZERO PUSH2 0x31A JUMPI PUSH1 0x0 DUP1 REVERT JUMPDEST POP PUSH2 0x335 PUSH1 0x4 DUP1 CALLDATASIZE SUB DUP2 ADD SWAP1 PUSH2 0x330 SWAP2 SWAP1 PUSH2 0x28DF JUMP JUMPDEST PUSH2 0x1489 JUMP JUMPDEST STOP JUMPDEST CALLVALUE DUP1 ISZERO PUSH2 0x343 JUMPI PUSH1 0x0 DUP1 REVERT JUMPDEST POP PUSH2 0x34C PUSH2 0x168B JUMP JUMPDEST PUSH1 0x40 MLOAD PUSH2 0x359 SWAP2 SWAP1 PUSH2 0x27C8 JUMP JUMPDEST PUSH1 0x40 MLOAD DUP1 SWAP2 SUB SWAP1 RETURN JUMPDEST CALLVALUE DUP1 ISZERO PUSH2 0x36E JUMPI PUSH1 0x0 DUP1 REVERT JUMPDEST POP PUSH2 0x389 PUSH1 0x4 DUP1 CALLDATASIZE SUB DUP2 ADD SWAP1 PUSH2 0x384 SWAP2 SWAP1 PUSH2 0x2D52 JUMP JUMPDEST PUSH2 0x1976 JUMP JUMPDEST PUSH1 0x40 MLOAD PUSH2 0x396 SWAP2 SWAP1 PUSH2 0x2DA1 JUMP JUMPDEST PUSH1 0x40 MLOAD DUP1 SWAP2 SUB SWAP1 RETURN JUMPDEST CALLVALUE DUP1 ISZERO PUSH2 0x3AB JUMPI PUSH1 0x0 DUP1 REVERT JUMPDEST POP PUSH2 0x3C6 PUSH1 0x4 DUP1 CALLDATASIZE SUB DUP2 ADD SWAP1 PUSH2 0x3C1 SWAP2 SWAP1 PUSH2 0x28DF JUMP JUMPDEST PUSH2 0x19C4 JUMP JUMPDEST PUSH1 0x40 MLOAD PUSH2 0x3D3 SWAP2 SWAP1 PUSH2 0x2DA1 JUMP JUMPDEST PUSH1 0x40 MLOAD DUP1 SWAP2 SUB SWAP1 RETURN JUMPDEST CALLVALUE DUP1 ISZERO PUSH2 0x3E8 JUMPI PUSH1 0x0 DUP1 REVERT JUMPDEST POP PUSH2 0x403 PUSH1 0x4 DUP1 CALLDATASIZE SUB DUP2 ADD SWAP1 PUSH2 0x3FE SWAP2 SWAP1 PUSH2 0x2DBC JUMP JUMPDEST PUSH2 0x19F7 JUMP JUMPDEST STOP JUMPDEST CALLVALUE DUP1 ISZERO PUSH2 0x411 JUMPI PUSH1 0x0 DUP1 REVERT JUMPDEST POP PUSH2 0x42C PUSH1 0x4 DUP1 CALLDATASIZE SUB DUP2 ADD SWAP1 PUSH2 0x427 SWAP2 SWAP1 PUSH2 0x290C JUMP JUMPDEST PUSH2 0x1BC6 JUMP JUMPDEST PUSH1 0x40 MLOAD PUSH2 0x440 SWAP9 SWAP8 SWAP7 SWAP6 SWAP5 SWAP4 SWAP3 SWAP2 SWAP1 PUSH2 0x2EDD JUMP JUMPDEST PUSH1 0x40 MLOAD DUP1 SWAP2 SUB SWAP1 RETURN JUMPDEST CALLVALUE DUP1 ISZERO PUSH2 0x455 JUMPI PUSH1 0x0 DUP1 REVERT JUMPDEST POP PUSH2 0x45E PUSH2 0x1FED JUMP JUMPDEST PUSH1 0x40 MLOAD PUSH2 0x46B SWAP2 SWAP1 PUSH2 0x295B JUMP JUMPDEST PUSH1 0x40 MLOAD DUP1 SWAP2 SUB SWAP1 RETURN JUMPDEST CALLVALUE DUP1 ISZERO PUSH2 0x480 JUMPI PUSH1 0x0 DUP1 REVERT JUMPDEST POP PUSH2 0x49B PUSH1 0x4 DUP1 CALLDATASIZE SUB DUP2 ADD SWAP1 PUSH2 0x496 SWAP2 SWAP1 PUSH2 0x28DF JUMP JUMPDEST PUSH2 0x1FF3 JUMP JUMPDEST PUSH1 0x40 MLOAD PUSH2 0x4A8 SWAP2 SWAP1 PUSH2 0x2898 JUMP JUMPDEST PUSH1 0x40 MLOAD DUP1 SWAP2 SUB SWAP1 RETURN JUMPDEST PUSH2 0x4CB PUSH1 0x4 DUP1 CALLDATASIZE SUB DUP2 ADD SWAP1 PUSH2 0x4C6 SWAP2 SWAP1 PUSH2 0x28DF JUMP JUMPDEST PUSH2 0x2013 JUMP JUMPDEST STOP JUMPDEST CALLVALUE DUP1 ISZERO PUSH2 0x4D9 JUMPI PUSH1 0x0 DUP1 REVERT JUMPDEST POP PUSH2 0x4F4 PUSH1 0x4 DUP1 CALLDATASIZE SUB DUP2 ADD SWAP1 PUSH2 0x4EF SWAP2 SWAP1 PUSH2 0x285C JUMP JUMPDEST PUSH2 0x22E6 JUMP JUMPDEST PUSH1 0x40 MLOAD PUSH2 0x503 SWAP4 SWAP3 SWAP2 SWAP1 PUSH2 0x2F70 JUMP JUMPDEST PUSH1 0x40 MLOAD DUP1 SWAP2 SUB SWAP1 RETURN JUMPDEST CALLVALUE DUP1 ISZERO PUSH2 0x518 JUMPI PUSH1 0x0 DUP1 REVERT JUMPDEST POP PUSH2 0x533 PUSH1 0x4 DUP1 CALLDATASIZE SUB DUP2 ADD SWAP1 PUSH2 0x52E SWAP2 SWAP1 PUSH2 0x290C JUMP JUMPDEST PUSH2 0x241F JUMP JUMPDEST PUSH1 0x40 MLOAD PUSH2 0x540 SWAP2 SWAP1 PUSH2 0x2898 JUMP JUMPDEST PUSH1 0x40 MLOAD DUP1 SWAP2 SUB SWAP1 RETURN JUMPDEST CALLVALUE DUP1 ISZERO PUSH2 0x555 JUMPI PUSH1 0x0 DUP1 REVERT JUMPDEST POP PUSH2 0x570 PUSH1 0x4 DUP1 CALLDATASIZE SUB DUP2 ADD SWAP1 PUSH2 0x56B SWAP2 SWAP1 PUSH2 0x285C JUMP JUMPDEST PUSH2 0x244E JUMP JUMPDEST PUSH1 0x40 MLOAD PUSH2 0x57F SWAP4 SWAP3 SWAP2 SWAP1 PUSH2 0x2F70 JUMP JUMPDEST PUSH1 0x40 MLOAD DUP1 SWAP2 SUB SWAP1 RETURN JUMPDEST PUSH1 0x60 PUSH1 0x0 DUP1 JUMPDEST PUSH1 0x6 DUP1 SLOAD SWAP1 POP DUP2 LT ISZERO PUSH2 0x5EF JUMPI PUSH1 0x6 DUP2 DUP2 SLOAD DUP2 LT PUSH2 0x5AF JUMPI PUSH2 0x5AE PUSH2 0x2FAE JUMP JUMPDEST JUMPDEST SWAP1 PUSH1 0x0 MSTORE PUSH1 0x20 PUSH1 0x0 KECCAK256 SWAP1 PUSH1 0x9 MUL ADD PUSH1 0x8 ADD PUSH1 0x0 SWAP1 SLOAD SWAP1 PUSH2 0x100 EXP SWAP1 DIV PUSH1 0xFF AND ISZERO PUSH2 0x5E2 JUMPI DUP2 DUP1 PUSH2 0x5DE SWAP1 PUSH2 0x300C JUMP JUMPDEST SWAP3 POP POP JUMPDEST DUP1 DUP1 PUSH1 0x1 ADD SWAP2 POP POP PUSH2 0x58E JUMP JUMPDEST POP PUSH1 0x0 DUP2 PUSH8 0xFFFFFFFFFFFFFFFF DUP2 GT ISZERO PUSH2 0x60C JUMPI PUSH2 0x60B PUSH2 0x2980 JUMP JUMPDEST JUMPDEST PUSH1 0x40 MLOAD SWAP1 DUP1 DUP3 MSTORE DUP1 PUSH1 0x20 MUL PUSH1 0x20 ADD DUP3 ADD PUSH1 0x40 MSTORE DUP1 ISZERO PUSH2 0x645 JUMPI DUP2 PUSH1 0x20 ADD JUMPDEST PUSH2 0x632 PUSH2 0x251A JUMP JUMPDEST DUP2 MSTORE PUSH1 0x20 ADD SWAP1 PUSH1 0x1 SWAP1 SUB SWAP1 DUP2 PUSH2 0x62A JUMPI SWAP1 POP JUMPDEST POP SWAP1 POP PUSH1 0x0 DUP1 JUMPDEST PUSH1 0x6 DUP1 SLOAD SWAP1 POP DUP2 LT ISZERO PUSH2 0x984 JUMPI PUSH1 0x6 DUP2 DUP2 SLOAD DUP2 LT PUSH2 0x66D JUMPI PUSH2 0x66C PUSH2 0x2FAE JUMP JUMPDEST JUMPDEST SWAP1 PUSH1 0x0 MSTORE PUSH1 0x20 PUSH1 0x0 KECCAK256 SWAP1 PUSH1 0x9 MUL ADD PUSH1 0x8 ADD PUSH1 0x0 SWAP1 SLOAD SWAP1 PUSH2 0x100 EXP SWAP1 DIV PUSH1 0xFF AND ISZERO PUSH2 0x977 JUMPI PUSH1 0x6 DUP2 DUP2 SLOAD DUP2 LT PUSH2 0x6A5 JUMPI PUSH2 0x6A4 PUSH2 0x2FAE JUMP JUMPDEST JUMPDEST SWAP1 PUSH1 0x0 MSTORE PUSH1 0x20 PUSH1 0x0 KECCAK256 SWAP1 PUSH1 0x9 MUL ADD PUSH1 0x40 MLOAD DUP1 PUSH2 0x120 ADD PUSH1 0x40 MSTORE SWAP1 DUP2 PUSH1 0x0 DUP3 ADD SLOAD DUP2 MSTORE PUSH1 0x20 ADD PUSH1 0x1 DUP3 ADD DUP1 SLOAD PUSH2 0x6D9 SWAP1 PUSH2 0x3083 JUMP JUMPDEST DUP1 PUSH1 0x1F ADD PUSH1 0x20 DUP1 SWAP2 DIV MUL PUSH1 0x20 ADD PUSH1 0x40 MLOAD SWAP1 DUP2 ADD PUSH1 0x40 MSTORE DUP1 SWAP3 SWAP2 SWAP1 DUP2 DUP2 MSTORE PUSH1 0x20 ADD DUP3 DUP1 SLOAD PUSH2 0x705 SWAP1 PUSH2 0x3083 JUMP JUMPDEST DUP1 ISZERO PUSH2 0x752 JUMPI DUP1 PUSH1 0x1F LT PUSH2 0x727 JUMPI PUSH2 0x100 DUP1 DUP4 SLOAD DIV MUL DUP4 MSTORE SWAP2 PUSH1 0x20 ADD SWAP2 PUSH2 0x752 JUMP JUMPDEST DUP3 ADD SWAP2 SWAP1 PUSH1 0x0 MSTORE PUSH1 0x20 PUSH1 0x0 KECCAK256 SWAP1 JUMPDEST DUP2 SLOAD DUP2 MSTORE SWAP1 PUSH1 0x1 ADD SWAP1 PUSH1 0x20 ADD DUP1 DUP4 GT PUSH2 0x735 JUMPI DUP3 SWAP1 SUB PUSH1 0x1F AND DUP3 ADD SWAP2 JUMPDEST POP POP POP POP POP DUP2 MSTORE PUSH1 0x20 ADD PUSH1 0x2 DUP3 ADD DUP1 SLOAD PUSH2 0x76B SWAP1 PUSH2 0x3083 JUMP JUMPDEST DUP1 PUSH1 0x1F ADD PUSH1 0x20 DUP1 SWAP2 DIV MUL PUSH1 0x20 ADD PUSH1 0x40 MLOAD SWAP1 DUP2 ADD PUSH1 0x40 MSTORE DUP1 SWAP3 SWAP2 SWAP1 DUP2 DUP2 MSTORE PUSH1 0x20 ADD DUP3 DUP1 SLOAD PUSH2 0x797 SWAP1 PUSH2 0x3083 JUMP JUMPDEST DUP1 ISZERO PUSH2 0x7E4 JUMPI DUP1 PUSH1 0x1F LT PUSH2 0x7B9 JUMPI PUSH2 0x100 DUP1 DUP4 SLOAD DIV MUL DUP4 MSTORE SWAP2 PUSH1 0x20 ADD SWAP2 PUSH2 0x7E4 JUMP JUMPDEST DUP3 ADD SWAP2 SWAP1 PUSH1 0x0 MSTORE PUSH1 0x20 PUSH1 0x0 KECCAK256 SWAP1 JUMPDEST DUP2 SLOAD DUP2 MSTORE SWAP1 PUSH1 0x1 ADD SWAP1 PUSH1 0x20 ADD DUP1 DUP4 GT PUSH2 0x7C7 JUMPI DUP3 SWAP1 SUB PUSH1 0x1F AND DUP3 ADD SWAP2 JUMPDEST POP POP POP POP POP DUP2 MSTORE PUSH1 0x20 ADD PUSH1 0x3 DUP3 ADD SLOAD DUP2 MSTORE PUSH1 0x20 ADD PUSH1 0x4 DUP3 ADD SLOAD DUP2 MSTORE PUSH1 0x20 ADD PUSH1 0x5 DUP3 ADD SLOAD DUP2 MSTORE PUSH1 0x20 ADD PUSH1 0x6 DUP3 ADD DUP1 SLOAD PUSH2 0x81B SWAP1 PUSH2 0x3083 JUMP JUMPDEST DUP1 PUSH1 0x1F ADD PUSH1 0x20 DUP1 SWAP2 DIV MUL PUSH1 0x20 ADD PUSH1 0x40 MLOAD SWAP1 DUP2 ADD PUSH1 0x40 MSTORE DUP1 SWAP3 SWAP2 SWAP1 DUP2 DUP2 MSTORE PUSH1 0x20 ADD DUP3 DUP1 SLOAD PUSH2 0x847 SWAP1 PUSH2 0x3083 JUMP JUMPDEST DUP1 ISZERO PUSH2 0x894 JUMPI DUP1 PUSH1 0x1F LT PUSH2 0x869 JUMPI PUSH2 0x100 DUP1 DUP4 SLOAD DIV MUL DUP4 MSTORE SWAP2 PUSH1 0x20 ADD SWAP2 PUSH2 0x894 JUMP JUMPDEST DUP3 ADD SWAP2 SWAP1 PUSH1 0x0 MSTORE PUSH1 0x20 PUSH1 0x0 KECCAK256 SWAP1 JUMPDEST DUP2 SLOAD DUP2 MSTORE SWAP1 PUSH1 0x1 ADD SWAP1 PUSH1 0x20 ADD DUP1 DUP4 GT PUSH2 0x877 JUMPI DUP3 SWAP1 SUB PUSH1 0x1F AND DUP3 ADD SWAP2 JUMPDEST POP POP POP POP POP DUP2 MSTORE PUSH1 0x20 ADD PUSH1 0x7 DUP3 ADD DUP1 SLOAD PUSH2 0x8AD SWAP1 PUSH2 0x3083 JUMP JUMPDEST DUP1 PUSH1 0x1F ADD PUSH1 0x20 DUP1 SWAP2 DIV MUL PUSH1 0x20 ADD PUSH1 0x40 MLOAD SWAP1 DUP2 ADD PUSH1 0x40 MSTORE DUP1 SWAP3 SWAP2 SWAP1 DUP2 DUP2 MSTORE PUSH1 0x20 ADD DUP3 DUP1 SLOAD PUSH2 0x8D9 SWAP1 PUSH2 0x3083 JUMP JUMPDEST DUP1 ISZERO PUSH2 0x926 JUMPI DUP1 PUSH1 0x1F LT PUSH2 0x8FB JUMPI PUSH2 0x100 DUP1 DUP4 SLOAD DIV MUL DUP4 MSTORE SWAP2 PUSH1 0x20 ADD SWAP2 PUSH2 0x926 JUMP JUMPDEST DUP3 ADD SWAP2 SWAP1 PUSH1 0x0 MSTORE PUSH1 0x20 PUSH1 0x0 KECCAK256 SWAP1 JUMPDEST DUP2 SLOAD DUP2 MSTORE SWAP1 PUSH1 0x1 ADD SWAP1 PUSH1 0x20 ADD DUP1 DUP4 GT PUSH2 0x909 JUMPI DUP3 SWAP1 SUB PUSH1 0x1F AND DUP3 ADD SWAP2 JUMPDEST POP POP POP POP POP DUP2 MSTORE PUSH1 0x20 ADD PUSH1 0x8 DUP3 ADD PUSH1 0x0 SWAP1 SLOAD SWAP1 PUSH2 0x100 EXP SWAP1 DIV PUSH1 0xFF AND ISZERO ISZERO ISZERO ISZERO DUP2 MSTORE POP POP DUP4 DUP4 DUP2 MLOAD DUP2 LT PUSH2 0x95D JUMPI PUSH2 0x95C PUSH2 0x2FAE JUMP JUMPDEST JUMPDEST PUSH1 0x20 MUL PUSH1 0x20 ADD ADD DUP2 SWAP1 MSTORE POP DUP2 DUP1 PUSH2 0x973 SWAP1 PUSH2 0x300C JUMP JUMPDEST SWAP3 POP POP JUMPDEST DUP1 DUP1 PUSH1 0x1 ADD SWAP2 POP POP PUSH2 0x64C JUMP JUMPDEST POP DUP2 SWAP4 POP POP POP POP SWAP1 JUMP JUMPDEST PUSH1 0x0 DUP1 PUSH1 0x0 DUP1 DUP5 PUSH20 0xFFFFFFFFFFFFFFFFFFFFFFFFFFFFFFFFFFFFFFFF AND PUSH20 0xFFFFFFFFFFFFFFFFFFFFFFFFFFFFFFFFFFFFFFFF AND DUP2 MSTORE PUSH1 0x20 ADD SWAP1 DUP2 MSTORE PUSH1 0x20 ADD PUSH1 0x0 KECCAK256 PUSH1 0x0 ADD DUP1 SLOAD PUSH2 0x9DD SWAP1 PUSH2 0x3083 JUMP JUMPDEST SWAP1 POP GT SWAP1 POP SWAP2 SWAP1 POP JUMP JUMPDEST PUSH1 0x6 DUP1 SLOAD SWAP1 POP DUP2 LT PUSH2 0xA2E JUMPI PUSH1 0x40 MLOAD PUSH32 0x8C379A000000000000000000000000000000000000000000000000000000000 DUP2 MSTORE PUSH1 0x4 ADD PUSH2 0xA25 SWAP1 PUSH2 0x3100 JUMP JUMPDEST PUSH1 0x40 MLOAD DUP1 SWAP2 SUB SWAP1 REVERT JUMPDEST PUSH2 0xA37 DUP2 PUSH2 0x1340 JUMP JUMPDEST PUSH2 0xA76 JUMPI PUSH1 0x40 MLOAD PUSH32 0x8C379A000000000000000000000000000000000000000000000000000000000 DUP2 MSTORE PUSH1 0x4 ADD PUSH2 0xA6D SWAP1 PUSH2 0x3192 JUMP JUMPDEST PUSH1 0x40 MLOAD DUP1 SWAP2 SUB SWAP1 REVERT JUMPDEST PUSH1 0x1 PUSH1 0x0 DUP3 DUP2 MSTORE PUSH1 0x20 ADD SWAP1 DUP2 MSTORE PUSH1 0x20 ADD PUSH1 0x0 KECCAK256 PUSH1 0x0 SWAP1 SLOAD SWAP1 PUSH2 0x100 EXP SWAP1 DIV PUSH20 0xFFFFFFFFFFFFFFFFFFFFFFFFFFFFFFFFFFFFFFFF AND PUSH20 0xFFFFFFFFFFFFFFFFFFFFFFFFFFFFFFFFFFFFFFFF AND CALLER PUSH20 0xFFFFFFFFFFFFFFFFFFFFFFFFFFFFFFFFFFFFFFFF AND EQ PUSH2 0xB17 JUMPI PUSH1 0x40 MLOAD PUSH32 0x8C379A000000000000000000000000000000000000000000000000000000000 DUP2 MSTORE PUSH1 0x4 ADD PUSH2 0xB0E SWAP1 PUSH2 0x31FE JUMP JUMPDEST PUSH1 0x40 MLOAD DUP1 SWAP2 SUB SWAP1 REVERT JUMPDEST PUSH1 0x3 PUSH1 0x0 DUP3 DUP2 MSTORE PUSH1 0x20 ADD SWAP1 DUP2 MSTORE PUSH1 0x20 ADD PUSH1 0x0 KECCAK256 PUSH1 0x0 SWAP1 SLOAD SWAP1 PUSH2 0x100 EXP SWAP1 DIV PUSH1 0xFF AND ISZERO PUSH2 0xB78 JUMPI PUSH1 0x40 MLOAD PUSH32 0x8C379A000000000000000000000000000000000000000000000000000000000 DUP2 MSTORE PUSH1 0x4 ADD PUSH2 0xB6F SWAP1 PUSH2 0x326A JUMP JUMPDEST PUSH1 0x40 MLOAD DUP1 SWAP2 SUB SWAP1 REVERT JUMPDEST PUSH1 0x0 PUSH1 0x2 PUSH1 0x0 DUP4 DUP2 MSTORE PUSH1 0x20 ADD SWAP1 DUP2 MSTORE PUSH1 0x20 ADD PUSH1 0x0 KECCAK256 DUP1 SLOAD DUP1 PUSH1 0x20 MUL PUSH1 0x20 ADD PUSH1 0x40 MLOAD SWAP1 DUP2 ADD PUSH1 0x40 MSTORE DUP1 SWAP3 SWAP2 SWAP1 DUP2 DUP2 MSTORE PUSH1 0x20 ADD DUP3 DUP1 SLOAD DUP1 ISZERO PUSH2 0xC0D JUMPI PUSH1 0x20 MUL DUP3 ADD SWAP2 SWAP1 PUSH1 0x0 MSTORE PUSH1 0x20 PUSH1 0x0 KECCAK256 SWAP1 JUMPDEST DUP2 PUSH1 0x0 SWAP1 SLOAD SWAP1 PUSH2 0x100 EXP SWAP1 DIV PUSH20 0xFFFFFFFFFFFFFFFFFFFFFFFFFFFFFFFFFFFFFFFF AND PUSH20 0xFFFFFFFFFFFFFFFFFFFFFFFFFFFFFFFFFFFFFFFF AND DUP2 MSTORE PUSH1 0x20 ADD SWAP1 PUSH1 0x1 ADD SWAP1 DUP1 DUP4 GT PUSH2 0xBC3 JUMPI JUMPDEST POP POP POP POP POP SWAP1 POP PUSH1 0x0 DUP1 JUMPDEST DUP3 MLOAD DUP2 LT ISZERO PUSH2 0xD12 JUMPI PUSH1 0x0 DUP4 DUP3 DUP2 MLOAD DUP2 LT PUSH2 0xC36 JUMPI PUSH2 0xC35 PUSH2 0x2FAE JUMP JUMPDEST JUMPDEST PUSH1 0x20 MUL PUSH1 0x20 ADD ADD MLOAD SWAP1 POP PUSH1 0x0 PUSH1 0x4 PUSH1 0x0 DUP8 DUP2 MSTORE PUSH1 0x20 ADD SWAP1 DUP2 MSTORE PUSH1 0x20 ADD PUSH1 0x0 KECCAK256 PUSH1 0x0 DUP4 PUSH20 0xFFFFFFFFFFFFFFFFFFFFFFFFFFFFFFFFFFFFFFFF AND PUSH20 0xFFFFFFFFFFFFFFFFFFFFFFFFFFFFFFFFFFFFFFFF AND DUP2 MSTORE PUSH1 0x20 ADD SWAP1 DUP2 MSTORE PUSH1 0x20 ADD PUSH1 0x0 KECCAK256 SLOAD SWAP1 POP PUSH1 0x0 DUP2 GT ISZERO PUSH2 0xD03 JUMPI PUSH1 0x0 PUSH1 0x4 PUSH1 0x0 DUP9 DUP2 MSTORE PUSH1 0x20 ADD SWAP1 DUP2 MSTORE PUSH1 0x20 ADD PUSH1 0x0 KECCAK256 PUSH1 0x0 DUP5 PUSH20 0xFFFFFFFFFFFFFFFFFFFFFFFFFFFFFFFFFFFFFFFF AND PUSH20 0xFFFFFFFFFFFFFFFFFFFFFFFFFFFFFFFFFFFFFFFF AND DUP2 MSTORE PUSH1 0x20 ADD SWAP1 DUP2 MSTORE PUSH1 0x20 ADD PUSH1 0x0 KECCAK256 DUP2 SWAP1 SSTORE POP DUP1 DUP5 PUSH2 0xD00 SWAP2 SWAP1 PUSH2 0x328A JUMP JUMPDEST SWAP4 POP JUMPDEST POP POP DUP1 DUP1 PUSH1 0x1 ADD SWAP2 POP POP PUSH2 0xC18 JUMP JUMPDEST POP PUSH1 0x0 DUP2 GT PUSH2 0xD56 JUMPI PUSH1 0x40 MLOAD PUSH32 0x8C379A000000000000000000000000000000000000000000000000000000000 DUP2 MSTORE PUSH1 0x4 ADD PUSH2 0xD4D SWAP1 PUSH2 0x330A JUMP JUMPDEST PUSH1 0x40 MLOAD DUP1 SWAP2 SUB SWAP1 REVERT JUMPDEST PUSH1 0x1 PUSH1 0x3 PUSH1 0x0 DUP6 DUP2 MSTORE PUSH1 0x20 ADD SWAP1 DUP2 MSTORE PUSH1 0x20 ADD PUSH1 0x0 KECCAK256 PUSH1 0x0 PUSH2 0x100 EXP DUP2 SLOAD DUP2 PUSH1 0xFF MUL NOT AND SWAP1 DUP4 ISZERO ISZERO MUL OR SWAP1 SSTORE POP CALLER PUSH20 0xFFFFFFFFFFFFFFFFFFFFFFFFFFFFFFFFFFFFFFFF AND PUSH2 0x8FC DUP3 SWAP1 DUP2 ISZERO MUL SWAP1 PUSH1 0x40 MLOAD PUSH1 0x0 PUSH1 0x40 MLOAD DUP1 DUP4 SUB DUP2 DUP6 DUP9 DUP9 CALL SWAP4 POP POP POP POP ISZERO DUP1 ISZERO PUSH2 0xDC8 JUMPI RETURNDATASIZE PUSH1 0x0 DUP1 RETURNDATACOPY RETURNDATASIZE PUSH1 0x0 REVERT JUMPDEST POP PUSH32 0xD490BB0C09FC0AA67EA0E5BF22E57C5ADB6D80867B3DB228F1A446F3936F7FB DUP4 CALLER DUP4 PUSH1 0x40 MLOAD PUSH2 0xDFC SWAP4 SWAP3 SWAP2 SWAP1 PUSH2 0x332A JUMP JUMPDEST PUSH1 0x40 MLOAD DUP1 SWAP2 SUB SWAP1 LOG1 POP POP POP JUMP JUMPDEST PUSH1 0x4 PUSH1 0x20 MSTORE DUP2 PUSH1 0x0 MSTORE PUSH1 0x40 PUSH1 0x0 KECCAK256 PUSH1 0x20 MSTORE DUP1 PUSH1 0x0 MSTORE PUSH1 0x40 PUSH1 0x0 KECCAK256 PUSH1 0x0 SWAP2 POP SWAP2 POP POP SLOAD DUP2 JUMP JUMPDEST PUSH1 0x6 DUP1 SLOAD SWAP1 POP DUP2 LT PUSH2 0xE75 JUMPI PUSH1 0x40 MLOAD PUSH32 0x8C379A000000000000000000000000000000000000000000000000000000000 DUP2 MSTORE PUSH1 0x4 ADD PUSH2 0xE6C SWAP1 PUSH2 0x3100 JUMP JUMPDEST PUSH1 0x40 MLOAD DUP1 SWAP2 SUB SWAP1 REVERT JUMPDEST PUSH1 0x1 PUSH1 0x0 DUP3 DUP2 MSTORE PUSH1 0x20 ADD SWAP1 DUP2 MSTORE PUSH1 0x20 ADD PUSH1 0x0 KECCAK256 PUSH1 0x0 SWAP1 SLOAD SWAP1 PUSH2 0x100 EXP SWAP1 DIV PUSH20 0xFFFFFFFFFFFFFFFFFFFFFFFFFFFFFFFFFFFFFFFF AND PUSH20 0xFFFFFFFFFFFFFFFFFFFFFFFFFFFFFFFFFFFFFFFF AND CALLER PUSH20 0xFFFFFFFFFFFFFFFFFFFFFFFFFFFFFFFFFFFFFFFF AND EQ PUSH2 0xF16 JUMPI PUSH1 0x40 MLOAD PUSH32 0x8C379A000000000000000000000000000000000000000000000000000000000 DUP2 MSTORE PUSH1 0x4 ADD PUSH2 0xF0D SWAP1 PUSH2 0x33D3 JUMP JUMPDEST PUSH1 0x40 MLOAD DUP1 SWAP2 SUB SWAP1 REVERT JUMPDEST PUSH1 0x0 PUSH1 0x6 DUP3 DUP2 SLOAD DUP2 LT PUSH2 0xF2C JUMPI PUSH2 0xF2B PUSH2 0x2FAE JUMP JUMPDEST JUMPDEST SWAP1 PUSH1 0x0 MSTORE PUSH1 0x20 PUSH1 0x0 KECCAK256 SWAP1 PUSH1 0x9 MUL ADD PUSH1 0x8 ADD PUSH1 0x0 PUSH2 0x100 EXP DUP2 SLOAD DUP2 PUSH1 0xFF MUL NOT AND SWAP1 DUP4 ISZERO ISZERO MUL OR SWAP1 SSTORE POP POP JUMP JUMPDEST PUSH1 0x40 MLOAD DUP1 PUSH1 0x60 ADD PUSH1 0x40 MSTORE DUP1 DUP5 DUP2 MSTORE PUSH1 0x20 ADD DUP4 PUSH1 0xFF AND DUP2 MSTORE PUSH1 0x20 ADD DUP3 ISZERO ISZERO DUP2 MSTORE POP PUSH1 0x0 DUP1 CALLER PUSH20 0xFFFFFFFFFFFFFFFFFFFFFFFFFFFFFFFFFFFFFFFF AND PUSH20 0xFFFFFFFFFFFFFFFFFFFFFFFFFFFFFFFFFFFFFFFF AND DUP2 MSTORE PUSH1 0x20 ADD SWAP1 DUP2 MSTORE PUSH1 0x20 ADD PUSH1 0x0 KECCAK256 PUSH1 0x0 DUP3 ADD MLOAD DUP2 PUSH1 0x0 ADD SWAP1 DUP2 PUSH2 0xFCA SWAP2 SWAP1 PUSH2 0x359F JUMP JUMPDEST POP PUSH1 0x20 DUP3 ADD MLOAD DUP2 PUSH1 0x1 ADD PUSH1 0x0 PUSH2 0x100 EXP DUP2 SLOAD DUP2 PUSH1 0xFF MUL NOT AND SWAP1 DUP4 PUSH1 0xFF AND MUL OR SWAP1 SSTORE POP PUSH1 0x40 DUP3 ADD MLOAD DUP2 PUSH1 0x1 ADD PUSH1 0x1 PUSH2 0x100 EXP DUP2 SLOAD DUP2 PUSH1 0xFF MUL NOT AND SWAP1 DUP4 ISZERO ISZERO MUL OR SWAP1 SSTORE POP SWAP1 POP POP POP POP POP JUMP JUMPDEST PUSH1 0x6 DUP2 DUP2 SLOAD DUP2 LT PUSH2 0x1024 JUMPI PUSH1 0x0 DUP1 REVERT JUMPDEST SWAP1 PUSH1 0x0 MSTORE PUSH1 0x20 PUSH1 0x0 KECCAK256 SWAP1 PUSH1 0x9 MUL ADD PUSH1 0x0 SWAP2 POP SWAP1 POP DUP1 PUSH1 0x0 ADD SLOAD SWAP1 DUP1 PUSH1 0x1 ADD DUP1 SLOAD PUSH2 0x104D SWAP1 PUSH2 0x3083 JUMP JUMPDEST DUP1 PUSH1 0x1F ADD PUSH1 0x20 DUP1 SWAP2 DIV MUL PUSH1 0x20 ADD PUSH1 0x40 MLOAD SWAP1 DUP2 ADD PUSH1 0x40 MSTORE DUP1 SWAP3 SWAP2 SWAP1 DUP2 DUP2 MSTORE PUSH1 0x20 ADD DUP3 DUP1 SLOAD PUSH2 0x1079 SWAP1 PUSH2 0x3083 JUMP JUMPDEST DUP1 ISZERO PUSH2 0x10C6 JUMPI DUP1 PUSH1 0x1F LT PUSH2 0x109B JUMPI PUSH2 0x100 DUP1 DUP4 SLOAD DIV MUL DUP4 MSTORE SWAP2 PUSH1 0x20 ADD SWAP2 PUSH2 0x10C6 JUMP JUMPDEST DUP3 ADD SWAP2 SWAP1 PUSH1 0x0 MSTORE PUSH1 0x20 PUSH1 0x0 KECCAK256 SWAP1 JUMPDEST DUP2 SLOAD DUP2 MSTORE SWAP1 PUSH1 0x1 ADD SWAP1 PUSH1 0x20 ADD DUP1 DUP4 GT PUSH2 0x10A9 JUMPI DUP3 SWAP1 SUB PUSH1 0x1F AND DUP3 ADD SWAP2 JUMPDEST POP POP POP POP POP SWAP1 DUP1 PUSH1 0x2 ADD DUP1 SLOAD PUSH2 0x10DB SWAP1 PUSH2 0x3083 JUMP JUMPDEST DUP1 PUSH1 0x1F ADD PUSH1 0x20 DUP1 SWAP2 DIV MUL PUSH1 0x20 ADD PUSH1 0x40 MLOAD SWAP1 DUP2 ADD PUSH1 0x40 MSTORE DUP1 SWAP3 SWAP2 SWAP1 DUP2 DUP2 MSTORE PUSH1 0x20 ADD DUP3 DUP1 SLOAD PUSH2 0x1107 SWAP1 PUSH2 0x3083 JUMP JUMPDEST DUP1 ISZERO PUSH2 0x1154 JUMPI DUP1 PUSH1 0x1F LT PUSH2 0x1129 JUMPI PUSH2 0x100 DUP1 DUP4 SLOAD DIV MUL DUP4 MSTORE SWAP2 PUSH1 0x20 ADD SWAP2 PUSH2 0x1154 JUMP JUMPDEST DUP3 ADD SWAP2 SWAP1 PUSH1 0x0 MSTORE PUSH1 0x20 PUSH1 0x0 KECCAK256 SWAP1 JUMPDEST DUP2 SLOAD DUP2 MSTORE SWAP1 PUSH1 0x1 ADD SWAP1 PUSH1 0x20 ADD DUP1 DUP4 GT PUSH2 0x1137 JUMPI DUP3 SWAP1 SUB PUSH1 0x1F AND DUP3 ADD SWAP2 JUMPDEST POP POP POP POP POP SWAP1 DUP1 PUSH1 0x3 ADD SLOAD SWAP1 DUP1 PUSH1 0x4 ADD SLOAD SWAP1 DUP1 PUSH1 0x5 ADD SLOAD SWAP1 DUP1 PUSH1 0x6 ADD DUP1 SLOAD PUSH2 0x117B SWAP1 PUSH2 0x3083 JUMP JUMPDEST DUP1 PUSH1 0x1F ADD PUSH1 0x20 DUP1 SWAP2 DIV MUL PUSH1 0x20 ADD PUSH1 0x40 MLOAD SWAP1 DUP2 ADD PUSH1 0x40 MSTORE DUP1 SWAP3 SWAP2 SWAP1 DUP2 DUP2 MSTORE PUSH1 0x20 ADD DUP3 DUP1 SLOAD PUSH2 0x11A7 SWAP1 PUSH2 0x3083 JUMP JUMPDEST DUP1 ISZERO PUSH2 0x11F4 JUMPI DUP1 PUSH1 0x1F LT PUSH2 0x11C9 JUMPI PUSH2 0x100 DUP1 DUP4 SLOAD DIV MUL DUP4 MSTORE SWAP2 PUSH1 0x20 ADD SWAP2 PUSH2 0x11F4 JUMP JUMPDEST DUP3 ADD SWAP2 SWAP1 PUSH1 0x0 MSTORE PUSH1 0x20 PUSH1 0x0 KECCAK256 SWAP1 JUMPDEST DUP2 SLOAD DUP2 MSTORE SWAP1 PUSH1 0x1 ADD SWAP1 PUSH1 0x20 ADD DUP1 DUP4 GT PUSH2 0x11D7 JUMPI DUP3 SWAP1 SUB PUSH1 0x1F AND DUP3 ADD SWAP2 JUMPDEST POP POP POP POP POP SWAP1 DUP1 PUSH1 0x7 ADD DUP1 SLOAD PUSH2 0x1209 SWAP1 PUSH2 0x3083 JUMP JUMPDEST DUP1 PUSH1 0x1F ADD PUSH1 0x20 DUP1 SWAP2 DIV MUL PUSH1 0x20 ADD PUSH1 0x40 MLOAD SWAP1 DUP2 ADD PUSH1 0x40 MSTORE DUP1 SWAP3 SWAP2 SWAP1 DUP2 DUP2 MSTORE PUSH1 0x20 ADD DUP3 DUP1 SLOAD PUSH2 0x1235 SWAP1 PUSH2 0x3083 JUMP JUMPDEST DUP1 ISZERO PUSH2 0x1282 JUMPI DUP1 PUSH1 0x1F LT PUSH2 0x1257 JUMPI PUSH2 0x100 DUP1 DUP4 SLOAD DIV MUL DUP4 MSTORE SWAP2 PUSH1 0x20 ADD SWAP2 PUSH2 0x1282 JUMP JUMPDEST DUP3 ADD SWAP2 SWAP1 PUSH1 0x0 MSTORE PUSH1 0x20 PUSH1 0x0 KECCAK256 SWAP1 JUMPDEST DUP2 SLOAD DUP2 MSTORE SWAP1 PUSH1 0x1 ADD SWAP1 PUSH1 0x20 ADD DUP1 DUP4 GT PUSH2 0x1265 JUMPI DUP3 SWAP1 SUB PUSH1 0x1F AND DUP3 ADD SWAP2 JUMPDEST POP POP POP POP POP SWAP1 DUP1 PUSH1 0x8 ADD PUSH1 0x0 SWAP1 SLOAD SWAP1 PUSH2 0x100 EXP SWAP1 DIV PUSH1 0xFF AND SWAP1 POP DUP10 JUMP JUMPDEST PUSH1 0x60 PUSH1 0x2 PUSH1 0x0 DUP4 DUP2 MSTORE PUSH1 0x20 ADD SWAP1 DUP2 MSTORE PUSH1 0x20 ADD PUSH1 0x0 KECCAK256 DUP1 SLOAD DUP1 PUSH1 0x20 MUL PUSH1 0x20 ADD PUSH1 0x40 MLOAD SWAP1 DUP2 ADD PUSH1 0x40 MSTORE DUP1 SWAP3 SWAP2 SWAP1 DUP2 DUP2 MSTORE PUSH1 0x20 ADD DUP3 DUP1 SLOAD DUP1 ISZERO PUSH2 0x1334 JUMPI PUSH1 0x20 MUL DUP3 ADD SWAP2 SWAP1 PUSH1 0x0 MSTORE PUSH1 0x20 PUSH1 0x0 KECCAK256 SWAP1 JUMPDEST DUP2 PUSH1 0x0 SWAP1 SLOAD SWAP1 PUSH2 0x100 EXP SWAP1 DIV PUSH20 0xFFFFFFFFFFFFFFFFFFFFFFFFFFFFFFFFFFFFFFFF AND PUSH20 0xFFFFFFFFFFFFFFFFFFFFFFFFFFFFFFFFFFFFFFFF AND DUP2 MSTORE PUSH1 0x20 ADD SWAP1 PUSH1 0x1 ADD SWAP1 DUP1 DUP4 GT PUSH2 0x12EA JUMPI JUMPDEST POP POP POP POP POP SWAP1 POP SWAP2 SWAP1 POP JUMP JUMPDEST PUSH1 0x0 DUP1 PUSH1 0x2 PUSH1 0x0 DUP5 DUP2 MSTORE PUSH1 0x20 ADD SWAP1 DUP2 MSTORE PUSH1 0x20 ADD PUSH1 0x0 KECCAK256 DUP1 SLOAD DUP1 PUSH1 0x20 MUL PUSH1 0x20 ADD PUSH1 0x40 MLOAD SWAP1 DUP2 ADD PUSH1 0x40 MSTORE DUP1 SWAP3 SWAP2 SWAP1 DUP2 DUP2 MSTORE PUSH1 0x20 ADD DUP3 DUP1 SLOAD DUP1 ISZERO PUSH2 0x13D6 JUMPI PUSH1 0x20 MUL DUP3 ADD SWAP2 SWAP1 PUSH1 0x0 MSTORE PUSH1 0x20 PUSH1 0x0 KECCAK256 SWAP1 JUMPDEST DUP2 PUSH1 0x0 SWAP1 SLOAD SWAP1 PUSH2 0x100 EXP SWAP1 DIV PUSH20 0xFFFFFFFFFFFFFFFFFFFFFFFFFFFFFFFFFFFFFFFF AND PUSH20 0xFFFFFFFFFFFFFFFFFFFFFFFFFFFFFFFFFFFFFFFF AND DUP2 MSTORE PUSH1 0x20 ADD SWAP1 PUSH1 0x1 ADD SWAP1 DUP1 DUP4 GT PUSH2 0x138C JUMPI JUMPDEST POP POP POP POP POP SWAP1 POP PUSH1 0x0 JUMPDEST DUP2 MLOAD DUP2 LT ISZERO PUSH2 0x147D JUMPI PUSH1 0x5 PUSH1 0x0 DUP6 DUP2 MSTORE PUSH1 0x20 ADD SWAP1 DUP2 MSTORE PUSH1 0x20 ADD PUSH1 0x0 KECCAK256 PUSH1 0x0 DUP4 DUP4 DUP2 MLOAD DUP2 LT PUSH2 0x1411 JUMPI PUSH2 0x1410 PUSH2 0x2FAE JUMP JUMPDEST JUMPDEST PUSH1 0x20 MUL PUSH1 0x20 ADD ADD MLOAD PUSH20 0xFFFFFFFFFFFFFFFFFFFFFFFFFFFFFFFFFFFFFFFF AND PUSH20 0xFFFFFFFFFFFFFFFFFFFFFFFFFFFFFFFFFFFFFFFF AND DUP2 MSTORE PUSH1 0x20 ADD SWAP1 DUP2 MSTORE PUSH1 0x20 ADD PUSH1 0x0 KECCAK256 PUSH1 0x0 SWAP1 SLOAD SWAP1 PUSH2 0x100 EXP SWAP1 DIV PUSH1 0xFF AND PUSH2 0x1470 JUMPI PUSH1 0x0 SWAP3 POP POP POP PUSH2 0x1484 JUMP JUMPDEST DUP1 DUP1 PUSH1 0x1 ADD SWAP2 POP POP PUSH2 0x13E0 JUMP JUMPDEST POP PUSH1 0x1 SWAP2 POP POP JUMPDEST SWAP2 SWAP1 POP JUMP JUMPDEST PUSH1 0x6 DUP1 SLOAD SWAP1 POP DUP2 LT PUSH2 0x14D0 JUMPI PUSH1 0x40 MLOAD PUSH32 0x8C379A000000000000000000000000000000000000000000000000000000000 DUP2 MSTORE PUSH1 0x4 ADD PUSH2 0x14C7 SWAP1 PUSH2 0x3100 JUMP JUMPDEST PUSH1 0x40 MLOAD DUP1 SWAP2 SUB SWAP1 REVERT JUMPDEST PUSH1 0x0 PUSH1 0x2 PUSH1 0x0 DUP4 DUP2 MSTORE PUSH1 0x20 ADD SWAP1 DUP2 MSTORE PUSH1 0x20 ADD PUSH1 0x0 KECCAK256 DUP1 SLOAD DUP1 PUSH1 0x20 MUL PUSH1 0x20 ADD PUSH1 0x40 MLOAD SWAP1 DUP2 ADD PUSH1 0x40 MSTORE DUP1 SWAP3 SWAP2 SWAP1 DUP2 DUP2 MSTORE PUSH1 0x20 ADD DUP3 DUP1 SLOAD DUP1 ISZERO PUSH2 0x1565 JUMPI PUSH1 0x20 MUL DUP3 ADD SWAP2 SWAP1 PUSH1 0x0 MSTORE PUSH1 0x20 PUSH1 0x0 KECCAK256 SWAP1 JUMPDEST DUP2 PUSH1 0x0 SWAP1 SLOAD SWAP1 PUSH2 0x100 EXP SWAP1 DIV PUSH20 0xFFFFFFFFFFFFFFFFFFFFFFFFFFFFFFFFFFFFFFFF AND PUSH20 0xFFFFFFFFFFFFFFFFFFFFFFFFFFFFFFFFFFFFFFFF AND DUP2 MSTORE PUSH1 0x20 ADD SWAP1 PUSH1 0x1 ADD SWAP1 DUP1 DUP4 GT PUSH2 0x151B JUMPI JUMPDEST POP POP POP POP POP SWAP1 POP PUSH1 0x0 DUP1 JUMPDEST DUP3 MLOAD DUP2 LT ISZERO PUSH2 0x15DC JUMPI CALLER PUSH20 0xFFFFFFFFFFFFFFFFFFFFFFFFFFFFFFFFFFFFFFFF AND DUP4 DUP3 DUP2 MLOAD DUP2 LT PUSH2 0x15A3 JUMPI PUSH2 0x15A2 PUSH2 0x2FAE JUMP JUMPDEST JUMPDEST PUSH1 0x20 MUL PUSH1 0x20 ADD ADD MLOAD PUSH20 0xFFFFFFFFFFFFFFFFFFFFFFFFFFFFFFFFFFFFFFFF AND SUB PUSH2 0x15CF JUMPI PUSH1 0x1 SWAP2 POP PUSH2 0x15DC JUMP JUMPDEST DUP1 DUP1 PUSH1 0x1 ADD SWAP2 POP POP PUSH2 0x1570 JUMP JUMPDEST POP DUP1 PUSH2 0x161D JUMPI PUSH1 0x40 MLOAD PUSH32 0x8C379A000000000000000000000000000000000000000000000000000000000 DUP2 MSTORE PUSH1 0x4 ADD PUSH2 0x1614 SWAP1 PUSH2 0x36BD JUMP JUMPDEST PUSH1 0x40 MLOAD DUP1 SWAP2 SUB SWAP1 REVERT JUMPDEST PUSH1 0x1 PUSH1 0x5 PUSH1 0x0 DUP6 DUP2 MSTORE PUSH1 0x20 ADD SWAP1 DUP2 MSTORE PUSH1 0x20 ADD PUSH1 0x0 KECCAK256 PUSH1 0x0 CALLER PUSH20 0xFFFFFFFFFFFFFFFFFFFFFFFFFFFFFFFFFFFFFFFF AND PUSH20 0xFFFFFFFFFFFFFFFFFFFFFFFFFFFFFFFFFFFFFFFF AND DUP2 MSTORE PUSH1 0x20 ADD SWAP1 DUP2 MSTORE PUSH1 0x20 ADD PUSH1 0x0 KECCAK256 PUSH1 0x0 PUSH2 0x100 EXP DUP2 SLOAD DUP2 PUSH1 0xFF MUL NOT AND SWAP1 DUP4 ISZERO ISZERO MUL OR SWAP1 SSTORE POP POP POP POP JUMP JUMPDEST PUSH1 0x60 PUSH1 0x6 DUP1 SLOAD DUP1 PUSH1 0x20 MUL PUSH1 0x20 ADD PUSH1 0x40 MLOAD SWAP1 DUP2 ADD PUSH1 0x40 MSTORE DUP1 SWAP3 SWAP2 SWAP1 DUP2 DUP2 MSTORE PUSH1 0x20 ADD PUSH1 0x0 SWAP1 JUMPDEST DUP3 DUP3 LT ISZERO PUSH2 0x196D JUMPI DUP4 DUP3 SWAP1 PUSH1 0x0 MSTORE PUSH1 0x20 PUSH1 0x0 KECCAK256 SWAP1 PUSH1 0x9 MUL ADD PUSH1 0x40 MLOAD DUP1 PUSH2 0x120 ADD PUSH1 0x40 MSTORE SWAP1 DUP2 PUSH1 0x0 DUP3 ADD SLOAD DUP2 MSTORE PUSH1 0x20 ADD PUSH1 0x1 DUP3 ADD DUP1 SLOAD PUSH2 0x16ED SWAP1 PUSH2 0x3083 JUMP JUMPDEST DUP1 PUSH1 0x1F ADD PUSH1 0x20 DUP1 SWAP2 DIV MUL PUSH1 0x20 ADD PUSH1 0x40 MLOAD SWAP1 DUP2 ADD PUSH1 0x40 MSTORE DUP1 SWAP3 SWAP2 SWAP1 DUP2 DUP2 MSTORE PUSH1 0x20 ADD DUP3 DUP1 SLOAD PUSH2 0x1719 SWAP1 PUSH2 0x3083 JUMP JUMPDEST DUP1 ISZERO PUSH2 0x1766 JUMPI DUP1 PUSH1 0x1F LT PUSH2 0x173B JUMPI PUSH2 0x100 DUP1 DUP4 SLOAD DIV MUL DUP4 MSTORE SWAP2 PUSH1 0x20 ADD SWAP2 PUSH2 0x1766 JUMP JUMPDEST DUP3 ADD SWAP2 SWAP1 PUSH1 0x0 MSTORE PUSH1 0x20 PUSH1 0x0 KECCAK256 SWAP1 JUMPDEST DUP2 SLOAD DUP2 MSTORE SWAP1 PUSH1 0x1 ADD SWAP1 PUSH1 0x20 ADD DUP1 DUP4 GT PUSH2 0x1749 JUMPI DUP3 SWAP1 SUB PUSH1 0x1F AND DUP3 ADD SWAP2 JUMPDEST POP POP POP POP POP DUP2 MSTORE PUSH1 0x20 ADD PUSH1 0x2 DUP3 ADD DUP1 SLOAD PUSH2 0x177F SWAP1 PUSH2 0x3083 JUMP JUMPDEST DUP1 PUSH1 0x1F ADD PUSH1 0x20 DUP1 SWAP2 DIV MUL PUSH1 0x20 ADD PUSH1 0x40 MLOAD SWAP1 DUP2 ADD PUSH1 0x40 MSTORE DUP1 SWAP3 SWAP2 SWAP1 DUP2 DUP2 MSTORE PUSH1 0x20 ADD DUP3 DUP1 SLOAD PUSH2 0x17AB SWAP1 PUSH2 0x3083 JUMP JUMPDEST DUP1 ISZERO PUSH2 0x17F8 JUMPI DUP1 PUSH1 0x1F LT PUSH2 0x17CD JUMPI PUSH2 0x100 DUP1 DUP4 SLOAD DIV MUL DUP4 MSTORE SWAP2 PUSH1 0x20 ADD SWAP2 PUSH2 0x17F8 JUMP JUMPDEST DUP3 ADD SWAP2 SWAP1 PUSH1 0x0 MSTORE PUSH1 0x20 PUSH1 0x0 KECCAK256 SWAP1 JUMPDEST DUP2 SLOAD DUP2 MSTORE SWAP1 PUSH1 0x1 ADD SWAP1 PUSH1 0x20 ADD DUP1 DUP4 GT PUSH2 0x17DB JUMPI DUP3 SWAP1 SUB PUSH1 0x1F AND DUP3 ADD SWAP2 JUMPDEST POP POP POP POP POP DUP2 MSTORE PUSH1 0x20 ADD PUSH1 0x3 DUP3 ADD SLOAD DUP2 MSTORE PUSH1 0x20 ADD PUSH1 0x4 DUP3 ADD SLOAD DUP2 MSTORE PUSH1 0x20 ADD PUSH1 0x5 DUP3 ADD SLOAD DUP2 MSTORE PUSH1 0x20 ADD PUSH1 0x6 DUP3 ADD DUP1 SLOAD PUSH2 0x182F SWAP1 PUSH2 0x3083 JUMP JUMPDEST DUP1 PUSH1 0x1F ADD PUSH1 0x20 DUP1 SWAP2 DIV MUL PUSH1 0x20 ADD PUSH1 0x40 MLOAD SWAP1 DUP2 ADD PUSH1 0x40 MSTORE DUP1 SWAP3 SWAP2 SWAP1 DUP2 DUP2 MSTORE PUSH1 0x20 ADD DUP3 DUP1 SLOAD PUSH2 0x185B SWAP1 PUSH2 0x3083 JUMP JUMPDEST DUP1 ISZERO PUSH2 0x18A8 JUMPI DUP1 PUSH1 0x1F LT PUSH2 0x187D JUMPI PUSH2 0x100 DUP1 DUP4 SLOAD DIV MUL DUP4 MSTORE SWAP2 PUSH1 0x20 ADD SWAP2 PUSH2 0x18A8 JUMP JUMPDEST DUP3 ADD SWAP2 SWAP1 PUSH1 0x0 MSTORE PUSH1 0x20 PUSH1 0x0 KECCAK256 SWAP1 JUMPDEST DUP2 SLOAD DUP2 MSTORE SWAP1 PUSH1 0x1 ADD SWAP1 PUSH1 0x20 ADD DUP1 DUP4 GT PUSH2 0x188B JUMPI DUP3 SWAP1 SUB PUSH1 0x1F AND DUP3 ADD SWAP2 JUMPDEST POP POP POP POP POP DUP2 MSTORE PUSH1 0x20 ADD PUSH1 0x7 DUP3 ADD DUP1 SLOAD PUSH2 0x18C1 SWAP1 PUSH2 0x3083 JUMP JUMPDEST DUP1 PUSH1 0x1F ADD PUSH1 0x20 DUP1 SWAP2 DIV MUL PUSH1 0x20 ADD PUSH1 0x40 MLOAD SWAP1 DUP2 ADD PUSH1 0x40 MSTORE DUP1 SWAP3 SWAP2 SWAP1 DUP2 DUP2 MSTORE PUSH1 0x20 ADD DUP3 DUP1 SLOAD PUSH2 0x18ED SWAP1 PUSH2 0x3083 JUMP JUMPDEST DUP1 ISZERO PUSH2 0x193A JUMPI DUP1 PUSH1 0x1F LT PUSH2 0x190F JUMPI PUSH2 0x100 DUP1 DUP4 SLOAD DIV MUL DUP4 MSTORE SWAP2 PUSH1 0x20 ADD SWAP2 PUSH2 0x193A JUMP JUMPDEST DUP3 ADD SWAP2 SWAP1 PUSH1 0x0 MSTORE PUSH1 0x20 PUSH1 0x0 KECCAK256 SWAP1 JUMPDEST DUP2 SLOAD DUP2 MSTORE SWAP1 PUSH1 0x1 ADD SWAP1 PUSH1 0x20 ADD DUP1 DUP4 GT PUSH2 0x191D JUMPI DUP3 SWAP1 SUB PUSH1 0x1F AND DUP3 ADD SWAP2 JUMPDEST POP POP POP POP POP DUP2 MSTORE PUSH1 0x20 ADD PUSH1 0x8 DUP3 ADD PUSH1 0x0 SWAP1 SLOAD SWAP1 PUSH2 0x100 EXP SWAP1 DIV PUSH1 0xFF AND ISZERO ISZERO ISZERO ISZERO DUP2 MSTORE POP POP DUP2 MSTORE PUSH1 0x20 ADD SWAP1 PUSH1 0x1 ADD SWAP1 PUSH2 0x16AF JUMP JUMPDEST POP POP POP POP SWAP1 POP SWAP1 JUMP JUMPDEST PUSH1 0x2 PUSH1 0x20 MSTORE DUP2 PUSH1 0x0 MSTORE PUSH1 0x40 PUSH1 0x0 KECCAK256 DUP2 DUP2 SLOAD DUP2 LT PUSH2 0x1992 JUMPI PUSH1 0x0 DUP1 REVERT JUMPDEST SWAP1 PUSH1 0x0 MSTORE PUSH1 0x20 PUSH1 0x0 KECCAK256 ADD PUSH1 0x0 SWAP2 POP SWAP2 POP SWAP1 SLOAD SWAP1 PUSH2 0x100 EXP SWAP1 DIV PUSH20 0xFFFFFFFFFFFFFFFFFFFFFFFFFFFFFFFFFFFFFFFF AND DUP2 JUMP JUMPDEST PUSH1 0x1 PUSH1 0x20 MSTORE DUP1 PUSH1 0x0 MSTORE PUSH1 0x40 PUSH1 0x0 KECCAK256 PUSH1 0x0 SWAP2 POP SLOAD SWAP1 PUSH2 0x100 EXP SWAP1 DIV PUSH20 0xFFFFFFFFFFFFFFFFFFFFFFFFFFFFFFFFFFFFFFFF AND DUP2 JUMP JUMPDEST PUSH1 0x6 PUSH1 0x40 MLOAD DUP1 PUSH2 0x120 ADD PUSH1 0x40 MSTORE DUP1 PUSH1 0x7 SLOAD DUP2 MSTORE PUSH1 0x20 ADD DUP10 DUP2 MSTORE PUSH1 0x20 ADD DUP9 DUP2 MSTORE PUSH1 0x20 ADD DUP8 DUP2 MSTORE PUSH1 0x20 ADD DUP7 DUP2 MSTORE PUSH1 0x20 ADD DUP6 DUP2 MSTORE PUSH1 0x20 ADD DUP5 DUP2 MSTORE PUSH1 0x20 ADD DUP4 DUP2 MSTORE PUSH1 0x20 ADD PUSH1 0x1 ISZERO ISZERO DUP2 MSTORE POP SWAP1 DUP1 PUSH1 0x1 DUP2 SLOAD ADD DUP1 DUP3 SSTORE DUP1 SWAP2 POP POP PUSH1 0x1 SWAP1 SUB SWAP1 PUSH1 0x0 MSTORE PUSH1 0x20 PUSH1 0x0 KECCAK256 SWAP1 PUSH1 0x9 MUL ADD PUSH1 0x0 SWAP1 SWAP2 SWAP1 SWAP2 SWAP1 SWAP2 POP PUSH1 0x0 DUP3 ADD MLOAD DUP2 PUSH1 0x0 ADD SSTORE PUSH1 0x20 DUP3 ADD MLOAD DUP2 PUSH1 0x1 ADD SWAP1 DUP2 PUSH2 0x1A86 SWAP2 SWAP1 PUSH2 0x359F JUMP JUMPDEST POP PUSH1 0x40 DUP3 ADD MLOAD DUP2 PUSH1 0x2 ADD SWAP1 DUP2 PUSH2 0x1A9C SWAP2 SWAP1 PUSH2 0x359F JUMP JUMPDEST POP PUSH1 0x60 DUP3 ADD MLOAD DUP2 PUSH1 0x3 ADD SSTORE PUSH1 0x80 DUP3 ADD MLOAD DUP2 PUSH1 0x4 ADD SSTORE PUSH1 0xA0 DUP3 ADD MLOAD DUP2 PUSH1 0x5 ADD SSTORE PUSH1 0xC0 DUP3 ADD MLOAD DUP2 PUSH1 0x6 ADD SWAP1 DUP2 PUSH2 0x1AD0 SWAP2 SWAP1 PUSH2 0x359F JUMP JUMPDEST POP PUSH1 0xE0 DUP3 ADD MLOAD DUP2 PUSH1 0x7 ADD SWAP1 DUP2 PUSH2 0x1AE6 SWAP2 SWAP1 PUSH2 0x359F JUMP JUMPDEST POP PUSH2 0x100 DUP3 ADD MLOAD DUP2 PUSH1 0x8 ADD PUSH1 0x0 PUSH2 0x100 EXP DUP2 SLOAD DUP2 PUSH1 0xFF MUL NOT AND SWAP1 DUP4 ISZERO ISZERO MUL OR SWAP1 SSTORE POP POP POP CALLER PUSH1 0x1 PUSH1 0x0 PUSH1 0x7 SLOAD DUP2 MSTORE PUSH1 0x20 ADD SWAP1 DUP2 MSTORE PUSH1 0x20 ADD PUSH1 0x0 KECCAK256 PUSH1 0x0 PUSH2 0x100 EXP DUP2 SLOAD DUP2 PUSH20 0xFFFFFFFFFFFFFFFFFFFFFFFFFFFFFFFFFFFFFFFF MUL NOT AND SWAP1 DUP4 PUSH20 0xFFFFFFFFFFFFFFFFFFFFFFFFFFFFFFFFFFFFFFFF AND MUL OR SWAP1 SSTORE POP PUSH32 0x50EC692C37EF92DB184DBA2E36F72C23F1E98D2288ED07021995C307205DBD68 PUSH1 0x7 SLOAD DUP9 DUP9 DUP9 DUP9 DUP9 DUP9 DUP9 PUSH1 0x40 MLOAD PUSH2 0x1B9D SWAP9 SWAP8 SWAP7 SWAP6 SWAP5 SWAP4 SWAP3 SWAP2 SWAP1 PUSH2 0x36DD JUMP JUMPDEST PUSH1 0x40 MLOAD DUP1 SWAP2 SUB SWAP1 LOG1 PUSH1 0x7 PUSH1 0x0 DUP2 SLOAD DUP1 SWAP3 SWAP2 SWAP1 PUSH2 0x1BB8 SWAP1 PUSH2 0x300C JUMP JUMPDEST SWAP2 SWAP1 POP SSTORE POP POP POP POP POP POP POP POP JUMP JUMPDEST PUSH1 0x60 PUSH1 0x0 DUP1 PUSH1 0x60 DUP1 PUSH1 0x0 DUP1 PUSH1 0x0 DUP1 PUSH1 0x0 DUP1 DUP12 PUSH20 0xFFFFFFFFFFFFFFFFFFFFFFFFFFFFFFFFFFFFFFFF AND PUSH20 0xFFFFFFFFFFFFFFFFFFFFFFFFFFFFFFFFFFFFFFFF AND DUP2 MSTORE PUSH1 0x20 ADD SWAP1 DUP2 MSTORE PUSH1 0x20 ADD PUSH1 0x0 KECCAK256 PUSH1 0x40 MLOAD DUP1 PUSH1 0x60 ADD PUSH1 0x40 MSTORE SWAP1 DUP2 PUSH1 0x0 DUP3 ADD DUP1 SLOAD PUSH2 0x1C2D SWAP1 PUSH2 0x3083 JUMP JUMPDEST DUP1 PUSH1 0x1F ADD PUSH1 0x20 DUP1 SWAP2 DIV MUL PUSH1 0x20 ADD PUSH1 0x40 MLOAD SWAP1 DUP2 ADD PUSH1 0x40 MSTORE DUP1 SWAP3 SWAP2 SWAP1 DUP2 DUP2 MSTORE PUSH1 0x20 ADD DUP3 DUP1 SLOAD PUSH2 0x1C59 SWAP1 PUSH2 0x3083 JUMP JUMPDEST DUP1 ISZERO PUSH2 0x1CA6 JUMPI DUP1 PUSH1 0x1F LT PUSH2 0x1C7B JUMPI PUSH2 0x100 DUP1 DUP4 SLOAD DIV MUL DUP4 MSTORE SWAP2 PUSH1 0x20 ADD SWAP2 PUSH2 0x1CA6 JUMP JUMPDEST DUP3 ADD SWAP2 SWAP1 PUSH1 0x0 MSTORE PUSH1 0x20 PUSH1 0x0 KECCAK256 SWAP1 JUMPDEST DUP2 SLOAD DUP2 MSTORE SWAP1 PUSH1 0x1 ADD SWAP1 PUSH1 0x20 ADD DUP1 DUP4 GT PUSH2 0x1C89 JUMPI DUP3 SWAP1 SUB PUSH1 0x1F AND DUP3 ADD SWAP2 JUMPDEST POP POP POP POP POP DUP2 MSTORE PUSH1 0x20 ADD PUSH1 0x1 DUP3 ADD PUSH1 0x0 SWAP1 SLOAD SWAP1 PUSH2 0x100 EXP SWAP1 DIV PUSH1 0xFF AND PUSH1 0xFF AND PUSH1 0xFF AND DUP2 MSTORE PUSH1 0x20 ADD PUSH1 0x1 DUP3 ADD PUSH1 0x1 SWAP1 SLOAD SWAP1 PUSH2 0x100 EXP SWAP1 DIV PUSH1 0xFF AND ISZERO ISZERO ISZERO ISZERO DUP2 MSTORE POP POP SWAP1 POP PUSH1 0x0 PUSH1 0x6 DUP13 DUP2 SLOAD DUP2 LT PUSH2 0x1CFF JUMPI PUSH2 0x1CFE PUSH2 0x2FAE JUMP JUMPDEST JUMPDEST SWAP1 PUSH1 0x0 MSTORE PUSH1 0x20 PUSH1 0x0 KECCAK256 SWAP1 PUSH1 0x9 MUL ADD PUSH1 0x40 MLOAD DUP1 PUSH2 0x120 ADD PUSH1 0x40 MSTORE SWAP1 DUP2 PUSH1 0x0 DUP3 ADD SLOAD DUP2 MSTORE PUSH1 0x20 ADD PUSH1 0x1 DUP3 ADD DUP1 SLOAD PUSH2 0x1D33 SWAP1 PUSH2 0x3083 JUMP JUMPDEST DUP1 PUSH1 0x1F ADD PUSH1 0x20 DUP1 SWAP2 DIV MUL PUSH1 0x20 ADD PUSH1 0x40 MLOAD SWAP1 DUP2 ADD PUSH1 0x40 MSTORE DUP1 SWAP3 SWAP2 SWAP1 DUP2 DUP2 MSTORE PUSH1 0x20 ADD DUP3 DUP1 SLOAD PUSH2 0x1D5F SWAP1 PUSH2 0x3083 JUMP JUMPDEST DUP1 ISZERO PUSH2 0x1DAC JUMPI DUP1 PUSH1 0x1F LT PUSH2 0x1D81 JUMPI PUSH2 0x100 DUP1 DUP4 SLOAD DIV MUL DUP4 MSTORE SWAP2 PUSH1 0x20 ADD SWAP2 PUSH2 0x1DAC JUMP JUMPDEST DUP3 ADD SWAP2 SWAP1 PUSH1 0x0 MSTORE PUSH1 0x20 PUSH1 0x0 KECCAK256 SWAP1 JUMPDEST DUP2 SLOAD DUP2 MSTORE SWAP1 PUSH1 0x1 ADD SWAP1 PUSH1 0x20 ADD DUP1 DUP4 GT PUSH2 0x1D8F JUMPI DUP3 SWAP1 SUB PUSH1 0x1F AND DUP3 ADD SWAP2 JUMPDEST POP POP POP POP POP DUP2 MSTORE PUSH1 0x20 ADD PUSH1 0x2 DUP3 ADD DUP1 SLOAD PUSH2 0x1DC5 SWAP1 PUSH2 0x3083 JUMP JUMPDEST DUP1 PUSH1 0x1F ADD PUSH1 0x20 DUP1 SWAP2 DIV MUL PUSH1 0x20 ADD PUSH1 0x40 MLOAD SWAP1 DUP2 ADD PUSH1 0x40 MSTORE DUP1 SWAP3 SWAP2 SWAP1 DUP2 DUP2 MSTORE PUSH1 0x20 ADD DUP3 DUP1 SLOAD PUSH2 0x1DF1 SWAP1 PUSH2 0x3083 JUMP JUMPDEST DUP1 ISZERO PUSH2 0x1E3E JUMPI DUP1 PUSH1 0x1F LT PUSH2 0x1E13 JUMPI PUSH2 0x100 DUP1 DUP4 SLOAD DIV MUL DUP4 MSTORE SWAP2 PUSH1 0x20 ADD SWAP2 PUSH2 0x1E3E JUMP JUMPDEST DUP3 ADD SWAP2 SWAP1 PUSH1 0x0 MSTORE PUSH1 0x20 PUSH1 0x0 KECCAK256 SWAP1 JUMPDEST DUP2 SLOAD DUP2 MSTORE SWAP1 PUSH1 0x1 ADD SWAP1 PUSH1 0x20 ADD DUP1 DUP4 GT PUSH2 0x1E21 JUMPI DUP3 SWAP1 SUB PUSH1 0x1F AND DUP3 ADD SWAP2 JUMPDEST POP POP POP POP POP DUP2 MSTORE PUSH1 0x20 ADD PUSH1 0x3 DUP3 ADD SLOAD DUP2 MSTORE PUSH1 0x20 ADD PUSH1 0x4 DUP3 ADD SLOAD DUP2 MSTORE PUSH1 0x20 ADD PUSH1 0x5 DUP3 ADD SLOAD DUP2 MSTORE PUSH1 0x20 ADD PUSH1 0x6 DUP3 ADD DUP1 SLOAD PUSH2 0x1E75 SWAP1 PUSH2 0x3083 JUMP JUMPDEST DUP1 PUSH1 0x1F ADD PUSH1 0x20 DUP1 SWAP2 DIV MUL PUSH1 0x20 ADD PUSH1 0x40 MLOAD SWAP1 DUP2 ADD PUSH1 0x40 MSTORE DUP1 SWAP3 SWAP2 SWAP1 DUP2 DUP2 MSTORE PUSH1 0x20 ADD DUP3 DUP1 SLOAD PUSH2 0x1EA1 SWAP1 PUSH2 0x3083 JUMP JUMPDEST DUP1 ISZERO PUSH2 0x1EEE JUMPI DUP1 PUSH1 0x1F LT PUSH2 0x1EC3 JUMPI PUSH2 0x100 DUP1 DUP4 SLOAD DIV MUL DUP4 MSTORE SWAP2 PUSH1 0x20 ADD SWAP2 PUSH2 0x1EEE JUMP JUMPDEST DUP3 ADD SWAP2 SWAP1 PUSH1 0x0 MSTORE PUSH1 0x20 PUSH1 0x0 KECCAK256 SWAP1 JUMPDEST DUP2 SLOAD DUP2 MSTORE SWAP1 PUSH1 0x1 ADD SWAP1 PUSH1 0x20 ADD DUP1 DUP4 GT PUSH2 0x1ED1 JUMPI DUP3 SWAP1 SUB PUSH1 0x1F AND DUP3 ADD SWAP2 JUMPDEST POP POP POP POP POP DUP2 MSTORE PUSH1 0x20 ADD PUSH1 0x7 DUP3 ADD DUP1 SLOAD PUSH2 0x1F07 SWAP1 PUSH2 0x3083 JUMP JUMPDEST DUP1 PUSH1 0x1F ADD PUSH1 0x20 DUP1 SWAP2 DIV MUL PUSH1 0x20 ADD PUSH1 0x40 MLOAD SWAP1 DUP2 ADD PUSH1 0x40 MSTORE DUP1 SWAP3 SWAP2 SWAP1 DUP2 DUP2 MSTORE PUSH1 0x20 ADD DUP3 DUP1 SLOAD PUSH2 0x1F33 SWAP1 PUSH2 0x3083 JUMP JUMPDEST DUP1 ISZERO PUSH2 0x1F80 JUMPI DUP1 PUSH1 0x1F LT PUSH2 0x1F55 JUMPI PUSH2 0x100 DUP1 DUP4 SLOAD DIV MUL DUP4 MSTORE SWAP2 PUSH1 0x20 ADD SWAP2 PUSH2 0x1F80 JUMP JUMPDEST DUP3 ADD SWAP2 SWAP1 PUSH1 0x0 MSTORE PUSH1 0x20 PUSH1 0x0 KECCAK256 SWAP1 JUMPDEST DUP2 SLOAD DUP2 MSTORE SWAP1 PUSH1 0x1 ADD SWAP1 PUSH1 0x20 ADD DUP1 DUP4 GT PUSH2 0x1F63 JUMPI DUP3 SWAP1 SUB PUSH1 0x1F AND DUP3 ADD SWAP2 JUMPDEST POP POP POP POP POP DUP2 MSTORE PUSH1 0x20 ADD PUSH1 0x8 DUP3 ADD PUSH1 0x0 SWAP1 SLOAD SWAP1 PUSH2 0x100 EXP SWAP1 DIV PUSH1 0xFF AND ISZERO ISZERO ISZERO ISZERO DUP2 MSTORE POP POP SWAP1 POP DUP2 PUSH1 0x0 ADD MLOAD DUP3 PUSH1 0x20 ADD MLOAD DUP4 PUSH1 0x40 ADD MLOAD DUP4 PUSH1 0x20 ADD MLOAD DUP5 PUSH1 0x40 ADD MLOAD DUP6 PUSH1 0x60 ADD MLOAD DUP7 PUSH1 0x80 ADD MLOAD DUP8 PUSH1 0xA0 ADD MLOAD SWAP10 POP SWAP10 POP SWAP10 POP SWAP10 POP SWAP10 POP SWAP10 POP SWAP10 POP SWAP10 POP POP POP SWAP3 SWAP6 SWAP9 POP SWAP3 SWAP6 SWAP9 SWAP1 SWAP4 SWAP7 POP JUMP JUMPDEST PUSH1 0x7 SLOAD DUP2 JUMP JUMPDEST PUSH1 0x3 PUSH1 0x20 MSTORE DUP1 PUSH1 0x0 MSTORE PUSH1 0x40 PUSH1 0x0 KECCAK256 PUSH1 0x0 SWAP2 POP SLOAD SWAP1 PUSH2 0x100 EXP SWAP1 DIV PUSH1 0xFF AND DUP2 JUMP JUMPDEST PUSH1 0x6 DUP1 SLOAD SWAP1 POP DUP2 LT PUSH2 0x205A JUMPI PUSH1 0x40 MLOAD PUSH32 0x8C379A000000000000000000000000000000000000000000000000000000000 DUP2 MSTORE PUSH1 0x4 ADD PUSH2 0x2051 SWAP1 PUSH2 0x37C3 JUMP JUMPDEST PUSH1 0x40 MLOAD DUP1 SWAP2 SUB SWAP1 REVERT JUMPDEST PUSH1 0x0 PUSH1 0x6 DUP3 DUP2 SLOAD DUP2 LT PUSH2 0x2070 JUMPI PUSH2 0x206F PUSH2 0x2FAE JUMP JUMPDEST JUMPDEST SWAP1 PUSH1 0x0 MSTORE PUSH1 0x20 PUSH1 0x0 KECCAK256 SWAP1 PUSH1 0x9 MUL ADD PUSH1 0x5 ADD SLOAD GT PUSH2 0x20C2 JUMPI PUSH1 0x40 MLOAD PUSH32 0x8C379A000000000000000000000000000000000000000000000000000000000 DUP2 MSTORE PUSH1 0x4 ADD PUSH2 0x20B9 SWAP1 PUSH2 0x382F JUMP JUMPDEST PUSH1 0x40 MLOAD DUP1 SWAP2 SUB SWAP1 REVERT JUMPDEST PUSH1 0x0 PUSH1 0x6 DUP3 DUP2 SLOAD DUP2 LT PUSH2 0x20D8 JUMPI PUSH2 0x20D7 PUSH2 0x2FAE JUMP JUMPDEST JUMPDEST SWAP1 PUSH1 0x0 MSTORE PUSH1 0x20 PUSH1 0x0 KECCAK256 SWAP1 PUSH1 0x9 MUL ADD SWAP1 POP DUP1 PUSH1 0x4 ADD SLOAD CALLVALUE EQ PUSH2 0x212E JUMPI PUSH1 0x40 MLOAD PUSH32 0x8C379A000000000000000000000000000000000000000000000000000000000 DUP2 MSTORE PUSH1 0x4 ADD PUSH2 0x2125 SWAP1 PUSH2 0x389B JUMP JUMPDEST PUSH1 0x40 MLOAD DUP1 SWAP2 SUB SWAP1 REVERT JUMPDEST DUP1 PUSH1 0x5 ADD PUSH1 0x0 DUP2 SLOAD DUP1 SWAP3 SWAP2 SWAP1 PUSH2 0x2143 SWAP1 PUSH2 0x38BB JUMP JUMPDEST SWAP2 SWAP1 POP SSTORE POP PUSH1 0x2 PUSH1 0x0 DUP4 DUP2 MSTORE PUSH1 0x20 ADD SWAP1 DUP2 MSTORE PUSH1 0x20 ADD PUSH1 0x0 KECCAK256 CALLER SWAP1 DUP1 PUSH1 0x1 DUP2 SLOAD ADD DUP1 DUP3 SSTORE DUP1 SWAP2 POP POP PUSH1 0x1 SWAP1 SUB SWAP1 PUSH1 0x0 MSTORE PUSH1 0x20 PUSH1 0x0 KECCAK256 ADD PUSH1 0x0 SWAP1 SWAP2 SWAP1 SWAP2 SWAP1 SWAP2 PUSH2 0x100 EXP DUP2 SLOAD DUP2 PUSH20 0xFFFFFFFFFFFFFFFFFFFFFFFFFFFFFFFFFFFFFFFF MUL NOT AND SWAP1 DUP4 PUSH20 0xFFFFFFFFFFFFFFFFFFFFFFFFFFFFFFFFFFFFFFFF AND MUL OR SWAP1 SSTORE POP CALLVALUE PUSH1 0x4 PUSH1 0x0 DUP5 DUP2 MSTORE PUSH1 0x20 ADD SWAP1 DUP2 MSTORE PUSH1 0x20 ADD PUSH1 0x0 KECCAK256 PUSH1 0x0 CALLER PUSH20 0xFFFFFFFFFFFFFFFFFFFFFFFFFFFFFFFFFFFFFFFF AND PUSH20 0xFFFFFFFFFFFFFFFFFFFFFFFFFFFFFFFFFFFFFFFF AND DUP2 MSTORE PUSH1 0x20 ADD SWAP1 DUP2 MSTORE PUSH1 0x20 ADD PUSH1 0x0 KECCAK256 DUP2 SWAP1 SSTORE POP PUSH1 0x1 PUSH1 0x0 DUP4 DUP2 MSTORE PUSH1 0x20 ADD SWAP1 DUP2 MSTORE PUSH1 0x20 ADD PUSH1 0x0 KECCAK256 PUSH1 0x0 SWAP1 SLOAD SWAP1 PUSH2 0x100 EXP SWAP1 DIV PUSH20 0xFFFFFFFFFFFFFFFFFFFFFFFFFFFFFFFFFFFFFFFF AND PUSH20 0xFFFFFFFFFFFFFFFFFFFFFFFFFFFFFFFFFFFFFFFF AND CALLER PUSH20 0xFFFFFFFFFFFFFFFFFFFFFFFFFFFFFFFFFFFFFFFF AND PUSH32 0x959DFDD606796D8B4F43F5579AA99E6F5C44C5090591EBFF34A84D020D210410 CALLVALUE PUSH1 0x40 MLOAD PUSH2 0x22A1 SWAP2 SWAP1 PUSH2 0x295B JUMP JUMPDEST PUSH1 0x40 MLOAD DUP1 SWAP2 SUB SWAP1 LOG3 PUSH32 0x65394BC371DBE55CA40E19310C8A935B039BF28367787CFAEEECFE3361BF18A0 DUP3 CALLER PUSH1 0x40 MLOAD PUSH2 0x22DA SWAP3 SWAP2 SWAP1 PUSH2 0x38E4 JUMP JUMPDEST PUSH1 0x40 MLOAD DUP1 SWAP2 SUB SWAP1 LOG1 POP POP JUMP JUMPDEST PUSH1 0x60 PUSH1 0x0 DUP1 PUSH1 0x0 DUP1 PUSH1 0x0 DUP7 PUSH20 0xFFFFFFFFFFFFFFFFFFFFFFFFFFFFFFFFFFFFFFFF AND PUSH20 0xFFFFFFFFFFFFFFFFFFFFFFFFFFFFFFFFFFFFFFFF AND DUP2 MSTORE PUSH1 0x20 ADD SWAP1 DUP2 MSTORE PUSH1 0x20 ADD PUSH1 0x0 KECCAK256 PUSH1 0x40 MLOAD DUP1 PUSH1 0x60 ADD PUSH1 0x40 MSTORE SWAP1 DUP2 PUSH1 0x0 DUP3 ADD DUP1 SLOAD PUSH2 0x2346 SWAP1 PUSH2 0x3083 JUMP JUMPDEST DUP1 PUSH1 0x1F ADD PUSH1 0x20 DUP1 SWAP2 DIV MUL PUSH1 0x20 ADD PUSH1 0x40 MLOAD SWAP1 DUP2 ADD PUSH1 0x40 MSTORE DUP1 SWAP3 SWAP2 SWAP1 DUP2 DUP2 MSTORE PUSH1 0x20 ADD DUP3 DUP1 SLOAD PUSH2 0x2372 SWAP1 PUSH2 0x3083 JUMP JUMPDEST DUP1 ISZERO PUSH2 0x23BF JUMPI DUP1 PUSH1 0x1F LT PUSH2 0x2394 JUMPI PUSH2 0x100 DUP1 DUP4 SLOAD DIV MUL DUP4 MSTORE SWAP2 PUSH1 0x20 ADD SWAP2 PUSH2 0x23BF JUMP JUMPDEST DUP3 ADD SWAP2 SWAP1 PUSH1 0x0 MSTORE PUSH1 0x20 PUSH1 0x0 KECCAK256 SWAP1 JUMPDEST DUP2 SLOAD DUP2 MSTORE SWAP1 PUSH1 0x1 ADD SWAP1 PUSH1 0x20 ADD DUP1 DUP4 GT PUSH2 0x23A2 JUMPI DUP3 SWAP1 SUB PUSH1 0x1F AND DUP3 ADD SWAP2 JUMPDEST POP POP POP POP POP DUP2 MSTORE PUSH1 0x20 ADD PUSH1 0x1 DUP3 ADD PUSH1 0x0 SWAP1 SLOAD SWAP1 PUSH2 0x100 EXP SWAP1 DIV PUSH1 0xFF AND PUSH1 0xFF AND PUSH1 0xFF AND DUP2 MSTORE PUSH1 0x20 ADD PUSH1 0x1 DUP3 ADD PUSH1 0x1 SWAP1 SLOAD SWAP1 PUSH2 0x100 EXP SWAP1 DIV PUSH1 0xFF AND ISZERO ISZERO ISZERO ISZERO DUP2 MSTORE POP POP SWAP1 POP DUP1 PUSH1 0x0 ADD MLOAD DUP2 PUSH1 0x20 ADD MLOAD DUP3 PUSH1 0x40 ADD MLOAD SWAP4 POP SWAP4 POP SWAP4 POP POP SWAP2 SWAP4 SWAP1 SWAP3 POP JUMP JUMPDEST PUSH1 0x5 PUSH1 0x20 MSTORE DUP2 PUSH1 0x0 MSTORE PUSH1 0x40 PUSH1 0x0 KECCAK256 PUSH1 0x20 MSTORE DUP1 PUSH1 0x0 MSTORE PUSH1 0x40 PUSH1 0x0 KECCAK256 PUSH1 0x0 SWAP2 POP SWAP2 POP SWAP1 SLOAD SWAP1 PUSH2 0x100 EXP SWAP1 DIV PUSH1 0xFF AND DUP2 JUMP JUMPDEST PUSH1 0x0 PUSH1 0x20 MSTORE DUP1 PUSH1 0x0 MSTORE PUSH1 0x40 PUSH1 0x0 KECCAK256 PUSH1 0x0 SWAP2 POP SWAP1 POP DUP1 PUSH1 0x0 ADD DUP1 SLOAD PUSH2 0x2471 SWAP1 PUSH2 0x3083 JUMP JUMPDEST DUP1 PUSH1 0x1F ADD PUSH1 0x20 DUP1 SWAP2 DIV MUL PUSH1 0x20 ADD PUSH1 0x40 MLOAD SWAP1 DUP2 ADD PUSH1 0x40 MSTORE DUP1 SWAP3 SWAP2 SWAP1 DUP2 DUP2 MSTORE PUSH1 0x20 ADD DUP3 DUP1 SLOAD PUSH2 0x249D SWAP1 PUSH2 0x3083 JUMP JUMPDEST DUP1 ISZERO PUSH2 0x24EA JUMPI DUP1 PUSH1 0x1F LT PUSH2 0x24BF JUMPI PUSH2 0x100 DUP1 DUP4 SLOAD DIV MUL DUP4 MSTORE SWAP2 PUSH1 0x20 ADD SWAP2 PUSH2 0x24EA JUMP JUMPDEST DUP3 ADD SWAP2 SWAP1 PUSH1 0x0 MSTORE PUSH1 0x20 PUSH1 0x0 KECCAK256 SWAP1 JUMPDEST DUP2 SLOAD DUP2 MSTORE SWAP1 PUSH1 0x1 ADD SWAP1 PUSH1 0x20 ADD DUP1 DUP4 GT PUSH2 0x24CD JUMPI DUP3 SWAP1 SUB PUSH1 0x1F AND DUP3 ADD SWAP2 JUMPDEST POP POP POP POP POP SWAP1 DUP1 PUSH1 0x1 ADD PUSH1 0x0 SWAP1 SLOAD SWAP1 PUSH2 0x100 EXP SWAP1 DIV PUSH1 0xFF AND SWAP1 DUP1 PUSH1 0x1 ADD PUSH1 0x1 SWAP1 SLOAD SWAP1 PUSH2 0x100 EXP SWAP1 DIV PUSH1 0xFF AND SWAP1 POP DUP4 JUMP JUMPDEST PUSH1 0x40 MLOAD DUP1 PUSH2 0x120 ADD PUSH1 0x40 MSTORE DUP1 PUSH1 0x0 DUP2 MSTORE PUSH1 0x20 ADD PUSH1 0x60 DUP2 MSTORE PUSH1 0x20 ADD PUSH1 0x60 DUP2 MSTORE PUSH1 0x20 ADD PUSH1 0x0 DUP2 MSTORE PUSH1 0x20 ADD PUSH1 0x0 DUP2 MSTORE PUSH1 0x20 ADD PUSH1 0x0 DUP2 MSTORE PUSH1 0x20 ADD PUSH1 0x60 DUP2 MSTORE PUSH1 0x20 ADD PUSH1 0x60 DUP2 MSTORE PUSH1 0x20 ADD PUSH1 0x0 ISZERO ISZERO DUP2 MSTORE POP SWAP1 JUMP JUMPDEST PUSH1 0x0 DUP2 MLOAD SWAP1 POP SWAP2 SWAP1 POP JUMP JUMPDEST PUSH1 0x0 DUP3 DUP3 MSTORE PUSH1 0x20 DUP3 ADD SWAP1 POP SWAP3 SWAP2 POP POP JUMP JUMPDEST PUSH1 0x0 DUP2 SWAP1 POP PUSH1 0x20 DUP3 ADD SWAP1 POP SWAP2 SWAP1 POP JUMP JUMPDEST PUSH1 0x0 DUP2 SWAP1 POP SWAP2 SWAP1 POP JUMP JUMPDEST PUSH2 0x25A7 DUP2 PUSH2 0x2594 JUMP JUMPDEST DUP3 MSTORE POP POP JUMP JUMPDEST PUSH1 0x0 DUP2 MLOAD SWAP1 POP SWAP2 SWAP1 POP JUMP JUMPDEST PUSH1 0x0 DUP3 DUP3 MSTORE PUSH1 0x20 DUP3 ADD SWAP1 POP SWAP3 SWAP2 POP POP JUMP JUMPDEST PUSH1 0x0 JUMPDEST DUP4 DUP2 LT ISZERO PUSH2 0x25E7 JUMPI DUP1 DUP3 ADD MLOAD DUP2 DUP5 ADD MSTORE PUSH1 0x20 DUP2 ADD SWAP1 POP PUSH2 0x25CC JUMP JUMPDEST PUSH1 0x0 DUP5 DUP5 ADD MSTORE POP POP POP POP JUMP JUMPDEST PUSH1 0x0 PUSH1 0x1F NOT PUSH1 0x1F DUP4 ADD AND SWAP1 POP SWAP2 SWAP1 POP JUMP JUMPDEST PUSH1 0x0 PUSH2 0x260F DUP3 PUSH2 0x25AD JUMP JUMPDEST PUSH2 0x2619 DUP2 DUP6 PUSH2 0x25B8 JUMP JUMPDEST SWAP4 POP PUSH2 0x2629 DUP2 DUP6 PUSH1 0x20 DUP7 ADD PUSH2 0x25C9 JUMP JUMPDEST PUSH2 0x2632 DUP2 PUSH2 0x25F3 JUMP JUMPDEST DUP5 ADD SWAP2 POP POP SWAP3 SWAP2 POP POP JUMP JUMPDEST PUSH1 0x0 DUP2 ISZERO ISZERO SWAP1 POP SWAP2 SWAP1 POP JUMP JUMPDEST PUSH2 0x2652 DUP2 PUSH2 0x263D JUMP JUMPDEST DUP3 MSTORE POP POP JUMP JUMPDEST PUSH1 0x0 PUSH2 0x120 DUP4 ADD PUSH1 0x0 DUP4 ADD MLOAD PUSH2 0x2671 PUSH1 0x0 DUP7 ADD DUP3 PUSH2 0x259E JUMP JUMPDEST POP PUSH1 0x20 DUP4 ADD MLOAD DUP5 DUP3 SUB PUSH1 0x20 DUP7 ADD MSTORE PUSH2 0x2689 DUP3 DUP3 PUSH2 0x2604 JUMP JUMPDEST SWAP2 POP POP PUSH1 0x40 DUP4 ADD MLOAD DUP5 DUP3 SUB PUSH1 0x40 DUP7 ADD MSTORE PUSH2 0x26A3 DUP3 DUP3 PUSH2 0x2604 JUMP JUMPDEST SWAP2 POP POP PUSH1 0x60 DUP4 ADD MLOAD PUSH2 0x26B8 PUSH1 0x60 DUP7 ADD DUP3 PUSH2 0x259E JUMP JUMPDEST POP PUSH1 0x80 DUP4 ADD MLOAD PUSH2 0x26CB PUSH1 0x80 DUP7 ADD DUP3 PUSH2 0x259E JUMP JUMPDEST POP PUSH1 0xA0 DUP4 ADD MLOAD PUSH2 0x26DE PUSH1 0xA0 DUP7 ADD DUP3 PUSH2 0x259E JUMP JUMPDEST POP PUSH1 0xC0 DUP4 ADD MLOAD DUP5 DUP3 SUB PUSH1 0xC0 DUP7 ADD MSTORE PUSH2 0x26F6 DUP3 DUP3 PUSH2 0x2604 JUMP JUMPDEST SWAP2 POP POP PUSH1 0xE0 DUP4 ADD MLOAD DUP5 DUP3 SUB PUSH1 0xE0 DUP7 ADD MSTORE PUSH2 0x2710 DUP3 DUP3 PUSH2 0x2604 JUMP JUMPDEST SWAP2 POP POP PUSH2 0x100 DUP4 ADD MLOAD PUSH2 0x2727 PUSH2 0x100 DUP7 ADD DUP3 PUSH2 0x2649 JUMP JUMPDEST POP DUP1 SWAP2 POP POP SWAP3 SWAP2 POP POP JUMP JUMPDEST PUSH1 0x0 PUSH2 0x273E DUP4 DUP4 PUSH2 0x2658 JUMP JUMPDEST SWAP1 POP SWAP3 SWAP2 POP POP JUMP JUMPDEST PUSH1 0x0 PUSH1 0x20 DUP3 ADD SWAP1 POP SWAP2 SWAP1 POP JUMP JUMPDEST PUSH1 0x0 PUSH2 0x275E DUP3 PUSH2 0x2568 JUMP JUMPDEST PUSH2 0x2768 DUP2 DUP6 PUSH2 0x2573 JUMP JUMPDEST SWAP4 POP DUP4 PUSH1 0x20 DUP3 MUL DUP6 ADD PUSH2 0x277A DUP6 PUSH2 0x2584 JUMP JUMPDEST DUP1 PUSH1 0x0 JUMPDEST DUP6 DUP2 LT ISZERO PUSH2 0x27B6 JUMPI DUP5 DUP5 SUB DUP10 MSTORE DUP2 MLOAD PUSH2 0x2797 DUP6 DUP3 PUSH2 0x2732 JUMP JUMPDEST SWAP5 POP PUSH2 0x27A2 DUP4 PUSH2 0x2746 JUMP JUMPDEST SWAP3 POP PUSH1 0x20 DUP11 ADD SWAP10 POP POP PUSH1 0x1 DUP2 ADD SWAP1 POP PUSH2 0x277E JUMP JUMPDEST POP DUP3 SWAP8 POP DUP8 SWAP6 POP POP POP POP POP POP SWAP3 SWAP2 POP POP JUMP JUMPDEST PUSH1 0x0 PUSH1 0x20 DUP3 ADD SWAP1 POP DUP2 DUP2 SUB PUSH1 0x0 DUP4 ADD MSTORE PUSH2 0x27E2 DUP2 DUP5 PUSH2 0x2753 JUMP JUMPDEST SWAP1 POP SWAP3 SWAP2 POP POP JUMP JUMPDEST PUSH1 0x0 PUSH1 0x40 MLOAD SWAP1 POP SWAP1 JUMP JUMPDEST PUSH1 0x0 DUP1 REVERT JUMPDEST PUSH1 0x0 DUP1 REVERT JUMPDEST PUSH1 0x0 PUSH20 0xFFFFFFFFFFFFFFFFFFFFFFFFFFFFFFFFFFFFFFFF DUP3 AND SWAP1 POP SWAP2 SWAP1 POP JUMP JUMPDEST PUSH1 0x0 PUSH2 0x2829 DUP3 PUSH2 0x27FE JUMP JUMPDEST SWAP1 POP SWAP2 SWAP1 POP JUMP JUMPDEST PUSH2 0x2839 DUP2 PUSH2 0x281E JUMP JUMPDEST DUP2 EQ PUSH2 0x2844 JUMPI PUSH1 0x0 DUP1 REVERT JUMPDEST POP JUMP JUMPDEST PUSH1 0x0 DUP2 CALLDATALOAD SWAP1 POP PUSH2 0x2856 DUP2 PUSH2 0x2830 JUMP JUMPDEST SWAP3 SWAP2 POP POP JUMP JUMPDEST PUSH1 0x0 PUSH1 0x20 DUP3 DUP5 SUB SLT ISZERO PUSH2 0x2872 JUMPI PUSH2 0x2871 PUSH2 0x27F4 JUMP JUMPDEST JUMPDEST PUSH1 0x0 PUSH2 0x2880 DUP5 DUP3 DUP6 ADD PUSH2 0x2847 JUMP JUMPDEST SWAP2 POP POP SWAP3 SWAP2 POP POP JUMP JUMPDEST PUSH2 0x2892 DUP2 PUSH2 0x263D JUMP JUMPDEST DUP3 MSTORE POP POP JUMP JUMPDEST PUSH1 0x0 PUSH1 0x20 DUP3 ADD SWAP1 POP PUSH2 0x28AD PUSH1 0x0 DUP4 ADD DUP5 PUSH2 0x2889 JUMP JUMPDEST SWAP3 SWAP2 POP POP JUMP JUMPDEST PUSH2 0x28BC DUP2 PUSH2 0x2594 JUMP JUMPDEST DUP2 EQ PUSH2 0x28C7 JUMPI PUSH1 0x0 DUP1 REVERT JUMPDEST POP JUMP JUMPDEST PUSH1 0x0 DUP2 CALLDATALOAD SWAP1 POP PUSH2 0x28D9 DUP2 PUSH2 0x28B3 JUMP JUMPDEST SWAP3 SWAP2 POP POP JUMP JUMPDEST PUSH1 0x0 PUSH1 0x20 DUP3 DUP5 SUB SLT ISZERO PUSH2 0x28F5 JUMPI PUSH2 0x28F4 PUSH2 0x27F4 JUMP JUMPDEST JUMPDEST PUSH1 0x0 PUSH2 0x2903 DUP5 DUP3 DUP6 ADD PUSH2 0x28CA JUMP JUMPDEST SWAP2 POP POP SWAP3 SWAP2 POP POP JUMP JUMPDEST PUSH1 0x0 DUP1 PUSH1 0x40 DUP4 DUP6 SUB SLT ISZERO PUSH2 0x2923 JUMPI PUSH2 0x2922 PUSH2 0x27F4 JUMP JUMPDEST JUMPDEST PUSH1 0x0 PUSH2 0x2931 DUP6 DUP3 DUP7 ADD PUSH2 0x28CA JUMP JUMPDEST SWAP3 POP POP PUSH1 0x20 PUSH2 0x2942 DUP6 DUP3 DUP7 ADD PUSH2 0x2847 JUMP JUMPDEST SWAP2 POP POP SWAP3 POP SWAP3 SWAP1 POP JUMP JUMPDEST PUSH2 0x2955 DUP2 PUSH2 0x2594 JUMP JUMPDEST DUP3 MSTORE POP POP JUMP JUMPDEST PUSH1 0x0 PUSH1 0x20 DUP3 ADD SWAP1 POP PUSH2 0x2970 PUSH1 0x0 DUP4 ADD DUP5 PUSH2 0x294C JUMP JUMPDEST SWAP3 SWAP2 POP POP JUMP JUMPDEST PUSH1 0x0 DUP1 REVERT JUMPDEST PUSH1 0x0 DUP1 REVERT JUMPDEST PUSH32 0x4E487B7100000000000000000000000000000000000000000000000000000000 PUSH1 0x0 MSTORE PUSH1 0x41 PUSH1 0x4 MSTORE PUSH1 0x24 PUSH1 0x0 REVERT JUMPDEST PUSH2 0x29B8 DUP3 PUSH2 0x25F3 JUMP JUMPDEST DUP2 ADD DUP2 DUP2 LT PUSH8 0xFFFFFFFFFFFFFFFF DUP3 GT OR ISZERO PUSH2 0x29D7 JUMPI PUSH2 0x29D6 PUSH2 0x2980 JUMP JUMPDEST JUMPDEST DUP1 PUSH1 0x40 MSTORE POP POP POP JUMP JUMPDEST PUSH1 0x0 PUSH2 0x29EA PUSH2 0x27EA JUMP JUMPDEST SWAP1 POP PUSH2 0x29F6 DUP3 DUP3 PUSH2 0x29AF JUMP JUMPDEST SWAP2 SWAP1 POP JUMP JUMPDEST PUSH1 0x0 PUSH8 0xFFFFFFFFFFFFFFFF DUP3 GT ISZERO PUSH2 0x2A16 JUMPI PUSH2 0x2A15 PUSH2 0x2980 JUMP JUMPDEST JUMPDEST PUSH2 0x2A1F DUP3 PUSH2 0x25F3 JUMP JUMPDEST SWAP1 POP PUSH1 0x20 DUP2 ADD SWAP1 POP SWAP2 SWAP1 POP JUMP JUMPDEST DUP3 DUP2 DUP4 CALLDATACOPY PUSH1 0x0 DUP4 DUP4 ADD MSTORE POP POP POP JUMP JUMPDEST PUSH1 0x0 PUSH2 0x2A4E PUSH2 0x2A49 DUP5 PUSH2 0x29FB JUMP JUMPDEST PUSH2 0x29E0 JUMP JUMPDEST SWAP1 POP DUP3 DUP2 MSTORE PUSH1 0x20 DUP2 ADD DUP5 DUP5 DUP5 ADD GT ISZERO PUSH2 0x2A6A JUMPI PUSH2 0x2A69 PUSH2 0x297B JUMP JUMPDEST JUMPDEST PUSH2 0x2A75 DUP5 DUP3 DUP6 PUSH2 0x2A2C JUMP JUMPDEST POP SWAP4 SWAP3 POP POP POP JUMP JUMPDEST PUSH1 0x0 DUP3 PUSH1 0x1F DUP4 ADD SLT PUSH2 0x2A92 JUMPI PUSH2 0x2A91 PUSH2 0x2976 JUMP JUMPDEST JUMPDEST DUP2 CALLDATALOAD PUSH2 0x2AA2 DUP5 DUP3 PUSH1 0x20 DUP7 ADD PUSH2 0x2A3B JUMP JUMPDEST SWAP2 POP POP SWAP3 SWAP2 POP POP JUMP JUMPDEST PUSH1 0x0 PUSH1 0xFF DUP3 AND SWAP1 POP SWAP2 SWAP1 POP JUMP JUMPDEST PUSH2 0x2AC1 DUP2 PUSH2 0x2AAB JUMP JUMPDEST DUP2 EQ PUSH2 0x2ACC JUMPI PUSH1 0x0 DUP1 REVERT JUMPDEST POP JUMP JUMPDEST PUSH1 0x0 DUP2 CALLDATALOAD SWAP1 POP PUSH2 0x2ADE DUP2 PUSH2 0x2AB8 JUMP JUMPDEST SWAP3 SWAP2 POP POP JUMP JUMPDEST PUSH2 0x2AED DUP2 PUSH2 0x263D JUMP JUMPDEST DUP2 EQ PUSH2 0x2AF8 JUMPI PUSH1 0x0 DUP1 REVERT JUMPDEST POP JUMP JUMPDEST PUSH1 0x0 DUP2 CALLDATALOAD SWAP1 POP PUSH2 0x2B0A DUP2 PUSH2 0x2AE4 JUMP JUMPDEST SWAP3 SWAP2 POP POP JUMP JUMPDEST PUSH1 0x0 DUP1 PUSH1 0x0 PUSH1 0x60 DUP5 DUP7 SUB SLT ISZERO PUSH2 0x2B29 JUMPI PUSH2 0x2B28 PUSH2 0x27F4 JUMP JUMPDEST JUMPDEST PUSH1 0x0 DUP5 ADD CALLDATALOAD PUSH8 0xFFFFFFFFFFFFFFFF DUP2 GT ISZERO PUSH2 0x2B47 JUMPI PUSH2 0x2B46 PUSH2 0x27F9 JUMP JUMPDEST JUMPDEST PUSH2 0x2B53 DUP7 DUP3 DUP8 ADD PUSH2 0x2A7D JUMP JUMPDEST SWAP4 POP POP PUSH1 0x20 PUSH2 0x2B64 DUP7 DUP3 DUP8 ADD PUSH2 0x2ACF JUMP JUMPDEST SWAP3 POP POP PUSH1 0x40 PUSH2 0x2B75 DUP7 DUP3 DUP8 ADD PUSH2 0x2AFB JUMP JUMPDEST SWAP2 POP POP SWAP3 POP SWAP3 POP SWAP3 JUMP JUMPDEST PUSH1 0x0 DUP3 DUP3 MSTORE PUSH1 0x20 DUP3 ADD SWAP1 POP SWAP3 SWAP2 POP POP JUMP JUMPDEST PUSH1 0x0 PUSH2 0x2B9B DUP3 PUSH2 0x25AD JUMP JUMPDEST PUSH2 0x2BA5 DUP2 DUP6 PUSH2 0x2B7F JUMP JUMPDEST SWAP4 POP PUSH2 0x2BB5 DUP2 DUP6 PUSH1 0x20 DUP7 ADD PUSH2 0x25C9 JUMP JUMPDEST PUSH2 0x2BBE DUP2 PUSH2 0x25F3 JUMP JUMPDEST DUP5 ADD SWAP2 POP POP SWAP3 SWAP2 POP POP JUMP JUMPDEST PUSH1 0x0 PUSH2 0x120 DUP3 ADD SWAP1 POP PUSH2 0x2BDF PUSH1 0x0 DUP4 ADD DUP13 PUSH2 0x294C JUMP JUMPDEST DUP2 DUP2 SUB PUSH1 0x20 DUP4 ADD MSTORE PUSH2 0x2BF1 DUP2 DUP12 PUSH2 0x2B90 JUMP JUMPDEST SWAP1 POP DUP2 DUP2 SUB PUSH1 0x40 DUP4 ADD MSTORE PUSH2 0x2C05 DUP2 DUP11 PUSH2 0x2B90 JUMP JUMPDEST SWAP1 POP PUSH2 0x2C14 PUSH1 0x60 DUP4 ADD DUP10 PUSH2 0x294C JUMP JUMPDEST PUSH2 0x2C21 PUSH1 0x80 DUP4 ADD DUP9 PUSH2 0x294C JUMP JUMPDEST PUSH2 0x2C2E PUSH1 0xA0 DUP4 ADD DUP8 PUSH2 0x294C JUMP JUMPDEST DUP2 DUP2 SUB PUSH1 0xC0 DUP4 ADD MSTORE PUSH2 0x2C40 DUP2 DUP7 PUSH2 0x2B90 JUMP JUMPDEST SWAP1 POP DUP2 DUP2 SUB PUSH1 0xE0 DUP4 ADD MSTORE PUSH2 0x2C54 DUP2 DUP6 PUSH2 0x2B90 JUMP JUMPDEST SWAP1 POP PUSH2 0x2C64 PUSH2 0x100 DUP4 ADD DUP5 PUSH2 0x2889 JUMP JUMPDEST SWAP11 SWAP10 POP POP POP POP POP POP POP POP POP POP JUMP JUMPDEST PUSH1 0x0 DUP2 MLOAD SWAP1 POP SWAP2 SWAP1 POP JUMP JUMPDEST PUSH1 0x0 DUP3 DUP3 MSTORE PUSH1 0x20 DUP3 ADD SWAP1 POP SWAP3 SWAP2 POP POP JUMP JUMPDEST PUSH1 0x0 DUP2 SWAP1 POP PUSH1 0x20 DUP3 ADD SWAP1 POP SWAP2 SWAP1 POP JUMP JUMPDEST PUSH2 0x2CA7 DUP2 PUSH2 0x281E JUMP JUMPDEST DUP3 MSTORE POP POP JUMP JUMPDEST PUSH1 0x0 PUSH2 0x2CB9 DUP4 DUP4 PUSH2 0x2C9E JUMP JUMPDEST PUSH1 0x20 DUP4 ADD SWAP1 POP SWAP3 SWAP2 POP POP JUMP JUMPDEST PUSH1 0x0 PUSH1 0x20 DUP3 ADD SWAP1 POP SWAP2 SWAP1 POP JUMP JUMPDEST PUSH1 0x0 PUSH2 0x2CDD DUP3 PUSH2 0x2C72 JUMP JUMPDEST PUSH2 0x2CE7 DUP2 DUP6 PUSH2 0x2C7D JUMP JUMPDEST SWAP4 POP PUSH2 0x2CF2 DUP4 PUSH2 0x2C8E JUMP JUMPDEST DUP1 PUSH1 0x0 JUMPDEST DUP4 DUP2 LT ISZERO PUSH2 0x2D23 JUMPI DUP2 MLOAD PUSH2 0x2D0A DUP9 DUP3 PUSH2 0x2CAD JUMP JUMPDEST SWAP8 POP PUSH2 0x2D15 DUP4 PUSH2 0x2CC5 JUMP JUMPDEST SWAP3 POP POP PUSH1 0x1 DUP2 ADD SWAP1 POP PUSH2 0x2CF6 JUMP JUMPDEST POP DUP6 SWAP4 POP POP POP POP SWAP3 SWAP2 POP POP JUMP JUMPDEST PUSH1 0x0 PUSH1 0x20 DUP3 ADD SWAP1 POP DUP2 DUP2 SUB PUSH1 0x0 DUP4 ADD MSTORE PUSH2 0x2D4A DUP2 DUP5 PUSH2 0x2CD2 JUMP JUMPDEST SWAP1 POP SWAP3 SWAP2 POP POP JUMP JUMPDEST PUSH1 0x0 DUP1 PUSH1 0x40 DUP4 DUP6 SUB SLT ISZERO PUSH2 0x2D69 JUMPI PUSH2 0x2D68 PUSH2 0x27F4 JUMP JUMPDEST JUMPDEST PUSH1 0x0 PUSH2 0x2D77 DUP6 DUP3 DUP7 ADD PUSH2 0x28CA JUMP JUMPDEST SWAP3 POP POP PUSH1 0x20 PUSH2 0x2D88 DUP6 DUP3 DUP7 ADD PUSH2 0x28CA JUMP JUMPDEST SWAP2 POP POP SWAP3 POP SWAP3 SWAP1 POP JUMP JUMPDEST PUSH2 0x2D9B DUP2 PUSH2 0x281E JUMP JUMPDEST DUP3 MSTORE POP POP JUMP JUMPDEST PUSH1 0x0 PUSH1 0x20 DUP3 ADD SWAP1 POP PUSH2 0x2DB6 PUSH1 0x0 DUP4 ADD DUP5 PUSH2 0x2D92 JUMP JUMPDEST SWAP3 SWAP2 POP POP JUMP JUMPDEST PUSH1 0x0 DUP1 PUSH1 0x0 DUP1 PUSH1 0x0 DUP1 PUSH1 0x0 PUSH1 0xE0 DUP9 DUP11 SUB SLT ISZERO PUSH2 0x2DDB JUMPI PUSH2 0x2DDA PUSH2 0x27F4 JUMP JUMPDEST JUMPDEST PUSH1 0x0 DUP9 ADD CALLDATALOAD PUSH8 0xFFFFFFFFFFFFFFFF DUP2 GT ISZERO PUSH2 0x2DF9 JUMPI PUSH2 0x2DF8 PUSH2 0x27F9 JUMP JUMPDEST JUMPDEST PUSH2 0x2E05 DUP11 DUP3 DUP12 ADD PUSH2 0x2A7D JUMP JUMPDEST SWAP8 POP POP PUSH1 0x20 DUP9 ADD CALLDATALOAD PUSH8 0xFFFFFFFFFFFFFFFF DUP2 GT ISZERO PUSH2 0x2E26 JUMPI PUSH2 0x2E25 PUSH2 0x27F9 JUMP JUMPDEST JUMPDEST PUSH2 0x2E32 DUP11 DUP3 DUP12 ADD PUSH2 0x2A7D JUMP JUMPDEST SWAP7 POP POP PUSH1 0x40 PUSH2 0x2E43 DUP11 DUP3 DUP12 ADD PUSH2 0x28CA JUMP JUMPDEST SWAP6 POP POP PUSH1 0x60 PUSH2 0x2E54 DUP11 DUP3 DUP12 ADD PUSH2 0x28CA JUMP JUMPDEST SWAP5 POP POP PUSH1 0x80 PUSH2 0x2E65 DUP11 DUP3 DUP12 ADD PUSH2 0x28CA JUMP JUMPDEST SWAP4 POP POP PUSH1 0xA0 DUP9 ADD CALLDATALOAD PUSH8 0xFFFFFFFFFFFFFFFF DUP2 GT ISZERO PUSH2 0x2E86 JUMPI PUSH2 0x2E85 PUSH2 0x27F9 JUMP JUMPDEST JUMPDEST PUSH2 0x2E92 DUP11 DUP3 DUP12 ADD PUSH2 0x2A7D JUMP JUMPDEST SWAP3 POP POP PUSH1 0xC0 DUP9 ADD CALLDATALOAD PUSH8 0xFFFFFFFFFFFFFFFF DUP2 GT ISZERO PUSH2 0x2EB3 JUMPI PUSH2 0x2EB2 PUSH2 0x27F9 JUMP JUMPDEST JUMPDEST PUSH2 0x2EBF DUP11 DUP3 DUP12 ADD PUSH2 0x2A7D JUMP JUMPDEST SWAP2 POP POP SWAP3 SWAP6 SWAP9 SWAP2 SWAP5 SWAP8 POP SWAP3 SWAP6 POP JUMP JUMPDEST PUSH2 0x2ED7 DUP2 PUSH2 0x2AAB JUMP JUMPDEST DUP3 MSTORE POP POP JUMP JUMPDEST PUSH1 0x0 PUSH2 0x100 DUP3 ADD SWAP1 POP DUP2 DUP2 SUB PUSH1 0x0 DUP4 ADD MSTORE PUSH2 0x2EF8 DUP2 DUP12 PUSH2 0x2B90 JUMP JUMPDEST SWAP1 POP PUSH2 0x2F07 PUSH1 0x20 DUP4 ADD DUP11 PUSH2 0x2ECE JUMP JUMPDEST PUSH2 0x2F14 PUSH1 0x40 DUP4 ADD DUP10 PUSH2 0x2889 JUMP JUMPDEST DUP2 DUP2 SUB PUSH1 0x60 DUP4 ADD MSTORE PUSH2 0x2F26 DUP2 DUP9 PUSH2 0x2B90 JUMP JUMPDEST SWAP1 POP DUP2 DUP2 SUB PUSH1 0x80 DUP4 ADD MSTORE PUSH2 0x2F3A DUP2 DUP8 PUSH2 0x2B90 JUMP JUMPDEST SWAP1 POP PUSH2 0x2F49 PUSH1 0xA0 DUP4 ADD DUP7 PUSH2 0x294C JUMP JUMPDEST PUSH2 0x2F56 PUSH1 0xC0 DUP4 ADD DUP6 PUSH2 0x294C JUMP JUMPDEST PUSH2 0x2F63 PUSH1 0xE0 DUP4 ADD DUP5 PUSH2 0x294C JUMP JUMPDEST SWAP10 SWAP9 POP POP POP POP POP POP POP POP POP JUMP JUMPDEST PUSH1 0x0 PUSH1 0x60 DUP3 ADD SWAP1 POP DUP2 DUP2 SUB PUSH1 0x0 DUP4 ADD MSTORE PUSH2 0x2F8A DUP2 DUP7 PUSH2 0x2B90 JUMP JUMPDEST SWAP1 POP PUSH2 0x2F99 PUSH1 0x20 DUP4 ADD DUP6 PUSH2 0x2ECE JUMP JUMPDEST PUSH2 0x2FA6 PUSH1 0x40 DUP4 ADD DUP5 PUSH2 0x2889 JUMP JUMPDEST SWAP5 SWAP4 POP POP POP POP JUMP JUMPDEST PUSH32 0x4E487B7100000000000000000000000000000000000000000000000000000000 PUSH1 0x0 MSTORE PUSH1 0x32 PUSH1 0x4 MSTORE PUSH1 0x24 PUSH1 0x0 REVERT JUMPDEST PUSH32 0x4E487B7100000000000000000000000000000000000000000000000000000000 PUSH1 0x0 MSTORE PUSH1 0x11 PUSH1 0x4 MSTORE PUSH1 0x24 PUSH1 0x0 REVERT JUMPDEST PUSH1 0x0 PUSH2 0x3017 DUP3 PUSH2 0x2594 JUMP JUMPDEST SWAP2 POP PUSH32 0xFFFFFFFFFFFFFFFFFFFFFFFFFFFFFFFFFFFFFFFFFFFFFFFFFFFFFFFFFFFFFFFF DUP3 SUB PUSH2 0x3049 JUMPI PUSH2 0x3048 PUSH2 0x2FDD JUMP JUMPDEST JUMPDEST PUSH1 0x1 DUP3 ADD SWAP1 POP SWAP2 SWAP1 POP JUMP JUMPDEST PUSH32 0x4E487B7100000000000000000000000000000000000000000000000000000000 PUSH1 0x0 MSTORE PUSH1 0x22 PUSH1 0x4 MSTORE PUSH1 0x24 PUSH1 0x0 REVERT JUMPDEST PUSH1 0x0 PUSH1 0x2 DUP3 DIV SWAP1 POP PUSH1 0x1 DUP3 AND DUP1 PUSH2 0x309B JUMPI PUSH1 0x7F DUP3 AND SWAP2 POP JUMPDEST PUSH1 0x20 DUP3 LT DUP2 SUB PUSH2 0x30AE JUMPI PUSH2 0x30AD PUSH2 0x3054 JUMP JUMPDEST JUMPDEST POP SWAP2 SWAP1 POP JUMP JUMPDEST PUSH32 0x496E76616C696420726964652049440000000000000000000000000000000000 PUSH1 0x0 DUP3 ADD MSTORE POP JUMP JUMPDEST PUSH1 0x0 PUSH2 0x30EA PUSH1 0xF DUP4 PUSH2 0x2B7F JUMP JUMPDEST SWAP2 POP PUSH2 0x30F5 DUP3 PUSH2 0x30B4 JUMP JUMPDEST PUSH1 0x20 DUP3 ADD SWAP1 POP SWAP2 SWAP1 POP JUMP JUMPDEST PUSH1 0x0 PUSH1 0x20 DUP3 ADD SWAP1 POP DUP2 DUP2 SUB PUSH1 0x0 DUP4 ADD MSTORE PUSH2 0x3119 DUP2 PUSH2 0x30DD JUMP JUMPDEST SWAP1 POP SWAP2 SWAP1 POP JUMP JUMPDEST PUSH32 0x50617373656E6765727320686176656E277420616C6C20636F6E6669726D6564 PUSH1 0x0 DUP3 ADD MSTORE PUSH32 0x20726964652E0000000000000000000000000000000000000000000000000000 PUSH1 0x20 DUP3 ADD MSTORE POP JUMP JUMPDEST PUSH1 0x0 PUSH2 0x317C PUSH1 0x26 DUP4 PUSH2 0x2B7F JUMP JUMPDEST SWAP2 POP PUSH2 0x3187 DUP3 PUSH2 0x3120 JUMP JUMPDEST PUSH1 0x40 DUP3 ADD SWAP1 POP SWAP2 SWAP1 POP JUMP JUMPDEST PUSH1 0x0 PUSH1 0x20 DUP3 ADD SWAP1 POP DUP2 DUP2 SUB PUSH1 0x0 DUP4 ADD MSTORE PUSH2 0x31AB DUP2 PUSH2 0x316F JUMP JUMPDEST SWAP1 POP SWAP2 SWAP1 POP JUMP JUMPDEST PUSH32 0x4F6E6C792072696465722063616E207769746864726177000000000000000000 PUSH1 0x0 DUP3 ADD MSTORE POP JUMP JUMPDEST PUSH1 0x0 PUSH2 0x31E8 PUSH1 0x17 DUP4 PUSH2 0x2B7F JUMP JUMPDEST SWAP2 POP PUSH2 0x31F3 DUP3 PUSH2 0x31B2 JUMP JUMPDEST PUSH1 0x20 DUP3 ADD SWAP1 POP SWAP2 SWAP1 POP JUMP JUMPDEST PUSH1 0x0 PUSH1 0x20 DUP3 ADD SWAP1 POP DUP2 DUP2 SUB PUSH1 0x0 DUP4 ADD MSTORE PUSH2 0x3217 DUP2 PUSH2 0x31DB JUMP JUMPDEST SWAP1 POP SWAP2 SWAP1 POP JUMP JUMPDEST PUSH32 0x5061796D656E7420616C72656164792072656C65617365640000000000000000 PUSH1 0x0 DUP3 ADD MSTORE POP JUMP JUMPDEST PUSH1 0x0 PUSH2 0x3254 PUSH1 0x18 DUP4 PUSH2 0x2B7F JUMP JUMPDEST SWAP2 POP PUSH2 0x325F DUP3 PUSH2 0x321E JUMP JUMPDEST PUSH1 0x20 DUP3 ADD SWAP1 POP SWAP2 SWAP1 POP JUMP JUMPDEST PUSH1 0x0 PUSH1 0x20 DUP3 ADD SWAP1 POP DUP2 DUP2 SUB PUSH1 0x0 DUP4 ADD MSTORE PUSH2 0x3283 DUP2 PUSH2 0x3247 JUMP JUMPDEST SWAP1 POP SWAP2 SWAP1 POP JUMP JUMPDEST PUSH1 0x0 PUSH2 0x3295 DUP3 PUSH2 0x2594 JUMP JUMPDEST SWAP2 POP PUSH2 0x32A0 DUP4 PUSH2 0x2594 JUMP JUMPDEST SWAP3 POP DUP3 DUP3 ADD SWAP1 POP DUP1 DUP3 GT ISZERO PUSH2 0x32B8 JUMPI PUSH2 0x32B7 PUSH2 0x2FDD JUMP JUMPDEST JUMPDEST SWAP3 SWAP2 POP POP JUMP JUMPDEST PUSH32 0x4E6F20666172657320746F207769746864726177000000000000000000000000 PUSH1 0x0 DUP3 ADD MSTORE POP JUMP JUMPDEST PUSH1 0x0 PUSH2 0x32F4 PUSH1 0x14 DUP4 PUSH2 0x2B7F JUMP JUMPDEST SWAP2 POP PUSH2 0x32FF DUP3 PUSH2 0x32BE JUMP JUMPDEST PUSH1 0x20 DUP3 ADD SWAP1 POP SWAP2 SWAP1 POP JUMP JUMPDEST PUSH1 0x0 PUSH1 0x20 DUP3 ADD SWAP1 POP DUP2 DUP2 SUB PUSH1 0x0 DUP4 ADD MSTORE PUSH2 0x3323 DUP2 PUSH2 0x32E7 JUMP JUMPDEST SWAP1 POP SWAP2 SWAP1 POP JUMP JUMPDEST PUSH1 0x0 PUSH1 0x60 DUP3 ADD SWAP1 POP PUSH2 0x333F PUSH1 0x0 DUP4 ADD DUP7 PUSH2 0x294C JUMP JUMPDEST PUSH2 0x334C PUSH1 0x20 DUP4 ADD DUP6 PUSH2 0x2D92 JUMP JUMPDEST PUSH2 0x3359 PUSH1 0x40 DUP4 ADD DUP5 PUSH2 0x294C JUMP JUMPDEST SWAP5 SWAP4 POP POP POP POP JUMP JUMPDEST PUSH32 0x4F6E6C792072696465206F776E65722063616E2064656C657465207468652072 PUSH1 0x0 DUP3 ADD MSTORE PUSH32 0x6964650000000000000000000000000000000000000000000000000000000000 PUSH1 0x20 DUP3 ADD MSTORE POP JUMP JUMPDEST PUSH1 0x0 PUSH2 0x33BD PUSH1 0x23 DUP4 PUSH2 0x2B7F JUMP JUMPDEST SWAP2 POP PUSH2 0x33C8 DUP3 PUSH2 0x3361 JUMP JUMPDEST PUSH1 0x40 DUP3 ADD SWAP1 POP SWAP2 SWAP1 POP JUMP JUMPDEST PUSH1 0x0 PUSH1 0x20 DUP3 ADD SWAP1 POP DUP2 DUP2 SUB PUSH1 0x0 DUP4 ADD MSTORE PUSH2 0x33EC DUP2 PUSH2 0x33B0 JUMP JUMPDEST SWAP1 POP SWAP2 SWAP1 POP JUMP JUMPDEST PUSH1 0x0 DUP2 SWAP1 POP DUP2 PUSH1 0x0 MSTORE PUSH1 0x20 PUSH1 0x0 KECCAK256 SWAP1 POP SWAP2 SWAP1 POP JUMP JUMPDEST PUSH1 0x0 PUSH1 0x20 PUSH1 0x1F DUP4 ADD DIV SWAP1 POP SWAP2 SWAP1 POP JUMP JUMPDEST PUSH1 0x0 DUP3 DUP3 SHL SWAP1 POP SWAP3 SWAP2 POP POP JUMP JUMPDEST PUSH1 0x0 PUSH1 0x8 DUP4 MUL PUSH2 0x3455 PUSH32 0xFFFFFFFFFFFFFFFFFFFFFFFFFFFFFFFFFFFFFFFFFFFFFFFFFFFFFFFFFFFFFFFF DUP3 PUSH2 0x3418 JUMP JUMPDEST PUSH2 0x345F DUP7 DUP4 PUSH2 0x3418 JUMP JUMPDEST SWAP6 POP DUP1 NOT DUP5 AND SWAP4 POP DUP1 DUP7 AND DUP5 OR SWAP3 POP POP POP SWAP4 SWAP3 POP POP POP JUMP JUMPDEST PUSH1 0x0 DUP2 SWAP1 POP SWAP2 SWAP1 POP JUMP JUMPDEST PUSH1 0x0 PUSH2 0x349C PUSH2 0x3497 PUSH2 0x3492 DUP5 PUSH2 0x2594 JUMP JUMPDEST PUSH2 0x3477 JUMP JUMPDEST PUSH2 0x2594 JUMP JUMPDEST SWAP1 POP SWAP2 SWAP1 POP JUMP JUMPDEST PUSH1 0x0 DUP2 SWAP1 POP SWAP2 SWAP1 POP JUMP JUMPDEST PUSH2 0x34B6 DUP4 PUSH2 0x3481 JUMP JUMPDEST PUSH2 0x34CA PUSH2 0x34C2 DUP3 PUSH2 0x34A3 JUMP JUMPDEST DUP5 DUP5 SLOAD PUSH2 0x3425 JUMP JUMPDEST DUP3 SSTORE POP POP POP POP JUMP JUMPDEST PUSH1 0x0 SWAP1 JUMP JUMPDEST PUSH2 0x34DF PUSH2 0x34D2 JUMP JUMPDEST PUSH2 0x34EA DUP2 DUP5 DUP5 PUSH2 0x34AD JUMP JUMPDEST POP POP POP JUMP JUMPDEST JUMPDEST DUP2 DUP2 LT ISZERO PUSH2 0x350E JUMPI PUSH2 0x3503 PUSH1 0x0 DUP3 PUSH2 0x34D7 JUMP JUMPDEST PUSH1 0x1 DUP2 ADD SWAP1 POP PUSH2 0x34F0 JUMP JUMPDEST POP POP JUMP JUMPDEST PUSH1 0x1F DUP3 GT ISZERO PUSH2 0x3553 JUMPI PUSH2 0x3524 DUP2 PUSH2 0x33F3 JUMP JUMPDEST PUSH2 0x352D DUP5 PUSH2 0x3408 JUMP JUMPDEST DUP2 ADD PUSH1 0x20 DUP6 LT ISZERO PUSH2 0x353C JUMPI DUP2 SWAP1 POP JUMPDEST PUSH2 0x3550 PUSH2 0x3548 DUP6 PUSH2 0x3408 JUMP JUMPDEST DUP4 ADD DUP3 PUSH2 0x34EF JUMP JUMPDEST POP POP JUMPDEST POP POP POP JUMP JUMPDEST PUSH1 0x0 DUP3 DUP3 SHR SWAP1 POP SWAP3 SWAP2 POP POP JUMP JUMPDEST PUSH1 0x0 PUSH2 0x3576 PUSH1 0x0 NOT DUP5 PUSH1 0x8 MUL PUSH2 0x3558 JUMP JUMPDEST NOT DUP1 DUP4 AND SWAP2 POP POP SWAP3 SWAP2 POP POP JUMP JUMPDEST PUSH1 0x0 PUSH2 0x358F DUP4 DUP4 PUSH2 0x3565 JUMP JUMPDEST SWAP2 POP DUP3 PUSH1 0x2 MUL DUP3 OR SWAP1 POP SWAP3 SWAP2 POP POP JUMP JUMPDEST PUSH2 0x35A8 DUP3 PUSH2 0x25AD JUMP JUMPDEST PUSH8 0xFFFFFFFFFFFFFFFF DUP2 GT ISZERO PUSH2 0x35C1 JUMPI PUSH2 0x35C0 PUSH2 0x2980 JUMP JUMPDEST JUMPDEST PUSH2 0x35CB DUP3 SLOAD PUSH2 0x3083 JUMP JUMPDEST PUSH2 0x35D6 DUP3 DUP3 DUP6 PUSH2 0x3512 JUMP JUMPDEST PUSH1 0x0 PUSH1 0x20 SWAP1 POP PUSH1 0x1F DUP4 GT PUSH1 0x1 DUP2 EQ PUSH2 0x3609 JUMPI PUSH1 0x0 DUP5 ISZERO PUSH2 0x35F7 JUMPI DUP3 DUP8 ADD MLOAD SWAP1 POP JUMPDEST PUSH2 0x3601 DUP6 DUP3 PUSH2 0x3583 JUMP JUMPDEST DUP7 SSTORE POP PUSH2 0x3669 JUMP JUMPDEST PUSH1 0x1F NOT DUP5 AND PUSH2 0x3617 DUP7 PUSH2 0x33F3 JUMP JUMPDEST PUSH1 0x0 JUMPDEST DUP3 DUP2 LT ISZERO PUSH2 0x363F JUMPI DUP5 DUP10 ADD MLOAD DUP3 SSTORE PUSH1 0x1 DUP3 ADD SWAP2 POP PUSH1 0x20 DUP6 ADD SWAP5 POP PUSH1 0x20 DUP2 ADD SWAP1 POP PUSH2 0x361A JUMP JUMPDEST DUP7 DUP4 LT ISZERO PUSH2 0x365C JUMPI DUP5 DUP10 ADD MLOAD PUSH2 0x3658 PUSH1 0x1F DUP10 AND DUP3 PUSH2 0x3565 JUMP JUMPDEST DUP4 SSTORE POP JUMPDEST PUSH1 0x1 PUSH1 0x2 DUP9 MUL ADD DUP9 SSTORE POP POP POP JUMPDEST POP POP POP POP POP POP JUMP JUMPDEST PUSH32 0x4E6F7420612070617373656E67657220666F7220746869732072696465000000 PUSH1 0x0 DUP3 ADD MSTORE POP JUMP JUMPDEST PUSH1 0x0 PUSH2 0x36A7 PUSH1 0x1D DUP4 PUSH2 0x2B7F JUMP JUMPDEST SWAP2 POP PUSH2 0x36B2 DUP3 PUSH2 0x3671 JUMP JUMPDEST PUSH1 0x20 DUP3 ADD SWAP1 POP SWAP2 SWAP1 POP JUMP JUMPDEST PUSH1 0x0 PUSH1 0x20 DUP3 ADD SWAP1 POP DUP2 DUP2 SUB PUSH1 0x0 DUP4 ADD MSTORE PUSH2 0x36D6 DUP2 PUSH2 0x369A JUMP JUMPDEST SWAP1 POP SWAP2 SWAP1 POP JUMP JUMPDEST PUSH1 0x0 PUSH2 0x100 DUP3 ADD SWAP1 POP PUSH2 0x36F3 PUSH1 0x0 DUP4 ADD DUP12 PUSH2 0x294C JUMP JUMPDEST DUP2 DUP2 SUB PUSH1 0x20 DUP4 ADD MSTORE PUSH2 0x3705 DUP2 DUP11 PUSH2 0x2B90 JUMP JUMPDEST SWAP1 POP DUP2 DUP2 SUB PUSH1 0x40 DUP4 ADD MSTORE PUSH2 0x3719 DUP2 DUP10 PUSH2 0x2B90 JUMP JUMPDEST SWAP1 POP PUSH2 0x3728 PUSH1 0x60 DUP4 ADD DUP9 PUSH2 0x294C JUMP JUMPDEST PUSH2 0x3735 PUSH1 0x80 DUP4 ADD DUP8 PUSH2 0x294C JUMP JUMPDEST PUSH2 0x3742 PUSH1 0xA0 DUP4 ADD DUP7 PUSH2 0x294C JUMP JUMPDEST DUP2 DUP2 SUB PUSH1 0xC0 DUP4 ADD MSTORE PUSH2 0x3754 DUP2 DUP6 PUSH2 0x2B90 JUMP JUMPDEST SWAP1 POP DUP2 DUP2 SUB PUSH1 0xE0 DUP4 ADD MSTORE PUSH2 0x3768 DUP2 DUP5 PUSH2 0x2B90 JUMP JUMPDEST SWAP1 POP SWAP10 SWAP9 POP POP POP POP POP POP POP POP POP JUMP JUMPDEST PUSH32 0x5269646520646F6573206E6F7420657869737400000000000000000000000000 PUSH1 0x0 DUP3 ADD MSTORE POP JUMP JUMPDEST PUSH1 0x0 PUSH2 0x37AD PUSH1 0x13 DUP4 PUSH2 0x2B7F JUMP JUMPDEST SWAP2 POP PUSH2 0x37B8 DUP3 PUSH2 0x3777 JUMP JUMPDEST PUSH1 0x20 DUP3 ADD SWAP1 POP SWAP2 SWAP1 POP JUMP JUMPDEST PUSH1 0x0 PUSH1 0x20 DUP3 ADD SWAP1 POP DUP2 DUP2 SUB PUSH1 0x0 DUP4 ADD MSTORE PUSH2 0x37DC DUP2 PUSH2 0x37A0 JUMP JUMPDEST SWAP1 POP SWAP2 SWAP1 POP JUMP JUMPDEST PUSH32 0x4E6F20736561747320617661696C61626C650000000000000000000000000000 PUSH1 0x0 DUP3 ADD MSTORE POP JUMP JUMPDEST PUSH1 0x0 PUSH2 0x3819 PUSH1 0x12 DUP4 PUSH2 0x2B7F JUMP JUMPDEST SWAP2 POP PUSH2 0x3824 DUP3 PUSH2 0x37E3 JUMP JUMPDEST PUSH1 0x20 DUP3 ADD SWAP1 POP SWAP2 SWAP1 POP JUMP JUMPDEST PUSH1 0x0 PUSH1 0x20 DUP3 ADD SWAP1 POP DUP2 DUP2 SUB PUSH1 0x0 DUP4 ADD MSTORE PUSH2 0x3848 DUP2 PUSH2 0x380C JUMP JUMPDEST SWAP1 POP SWAP2 SWAP1 POP JUMP JUMPDEST PUSH32 0x496E636F727265637420666172652073656E7400000000000000000000000000 PUSH1 0x0 DUP3 ADD MSTORE POP JUMP JUMPDEST PUSH1 0x0 PUSH2 0x3885 PUSH1 0x13 DUP4 PUSH2 0x2B7F JUMP JUMPDEST SWAP2 POP PUSH2 0x3890 DUP3 PUSH2 0x384F JUMP JUMPDEST PUSH1 0x20 DUP3 ADD SWAP1 POP SWAP2 SWAP1 POP JUMP JUMPDEST PUSH1 0x0 PUSH1 0x20 DUP3 ADD SWAP1 POP DUP2 DUP2 SUB PUSH1 0x0 DUP4 ADD MSTORE PUSH2 0x38B4 DUP2 PUSH2 0x3878 JUMP JUMPDEST SWAP1 POP SWAP2 SWAP1 POP JUMP JUMPDEST PUSH1 0x0 PUSH2 0x38C6 DUP3 PUSH2 0x2594 JUMP JUMPDEST SWAP2 POP PUSH1 0x0 DUP3 SUB PUSH2 0x38D9 JUMPI PUSH2 0x38D8 PUSH2 0x2FDD JUMP JUMPDEST JUMPDEST PUSH1 0x1 DUP3 SUB SWAP1 POP SWAP2 SWAP1 POP JUMP JUMPDEST PUSH1 0x0 PUSH1 0x40 DUP3 ADD SWAP1 POP PUSH2 0x38F9 PUSH1 0x0 DUP4 ADD DUP6 PUSH2 0x294C JUMP JUMPDEST PUSH2 0x3906 PUSH1 0x20 DUP4 ADD DUP5 PUSH2 0x2D92 JUMP JUMPDEST SWAP4 SWAP3 POP POP POP JUMP INVALID LOG2 PUSH5 0x6970667358 0x22 SLT KECCAK256 0x2C EXTCODESIZE 0xB7 CODESIZE 0x4B SWAP4 0xB4 SWAP13 STOP ADDRESS SWAP15 SELFDESTRUCT DUP15 MSTORE PUSH26 0xD5D7AFD4192AAF588A55F10C56B783130464736F6C634300081C STOP CALLER "
        },
        "methodIdentifiers": {
          "addressDetails(address)": "ebf7a828",
          "allPassengersConfirmed(uint256)": "6b5acaa5",
          "bookRide(uint256)": "c69b2cf6",
          "confirmRideCompleted(uint256)": "6d04b3c4",
          "createRide(string,string,uint256,uint256,uint256,string,string)": "89b7085a",
          "deleteRide(uint256)": "3c70c157",
          "getActiveRides()": "0dcc2fb7",
          "getAllRides()": "787660c3",
          "getPassengerDetails(uint256,address)": "8ed20c74",
          "getPassengersForRide(uint256)": "650fbb7c",
          "getUserDetails(address)": "cc3d967b",
          "newUser(string,uint8,bool)": "4717bba6",
          "passengerPayments(uint256,address)": "3177fdd7",
          "passengersByRide(uint256,uint256)": "7e8d519c",
          "paymentReleased(uint256)": "c1522919",
          "releasePaymentToRider(uint256)": "1740d5ae",
          "rideCompletedConfirmations(uint256,address)": "daa256a1",
          "rideCount()": "b47c1883",
          "rideOwner(uint256)": "81c05f92",
          "rides(uint256)": "5205f112",
          "userExists(address)": "0e666e49"
        }
      }
    }
  }
}